{
  "contracts/MemoryMatch.sol": {
    "MemoryMatch": {
      "abi": [
        {
          "inputs": [],
          "stateMutability": "nonpayable",
          "type": "constructor"
        },
        {
          "inputs": [
            {
              "internalType": "address",
              "name": "owner",
              "type": "address"
            }
          ],
          "name": "OwnableInvalidOwner",
          "type": "error"
        },
        {
          "inputs": [
            {
              "internalType": "address",
              "name": "account",
              "type": "address"
            }
          ],
          "name": "OwnableUnauthorizedAccount",
          "type": "error"
        },
        {
          "inputs": [],
          "name": "ReentrancyGuardReentrantCall",
          "type": "error"
        },
        {
          "anonymous": false,
          "inputs": [
            {
              "indexed": true,
              "internalType": "address",
              "name": "owner",
              "type": "address"
            },
            {
              "indexed": false,
              "internalType": "uint256",
              "name": "amount",
              "type": "uint256"
            }
          ],
          "name": "FeesWithdrawn",
          "type": "event"
        },
        {
          "anonymous": false,
          "inputs": [
            {
              "indexed": true,
              "internalType": "address",
              "name": "player",
              "type": "address"
            },
            {
              "indexed": true,
              "internalType": "uint256",
              "name": "gameId",
              "type": "uint256"
            }
          ],
          "name": "GameAbandoned",
          "type": "event"
        },
        {
          "anonymous": false,
          "inputs": [
            {
              "indexed": true,
              "internalType": "address",
              "name": "player",
              "type": "address"
            },
            {
              "indexed": true,
              "internalType": "uint256",
              "name": "gameId",
              "type": "uint256"
            },
            {
              "indexed": false,
              "internalType": "uint256",
              "name": "finalScore",
              "type": "uint256"
            },
            {
              "indexed": false,
              "internalType": "uint256",
              "name": "moveCount",
              "type": "uint256"
            }
          ],
          "name": "GameCompleted",
          "type": "event"
        },
        {
          "anonymous": false,
          "inputs": [
            {
              "indexed": false,
              "internalType": "uint256",
              "name": "oldFee",
              "type": "uint256"
            },
            {
              "indexed": false,
              "internalType": "uint256",
              "name": "newFee",
              "type": "uint256"
            }
          ],
          "name": "GameFeeUpdated",
          "type": "event"
        },
        {
          "anonymous": false,
          "inputs": [
            {
              "indexed": true,
              "internalType": "address",
              "name": "player",
              "type": "address"
            },
            {
              "indexed": true,
              "internalType": "uint256",
              "name": "gameId",
              "type": "uint256"
            },
            {
              "indexed": false,
              "internalType": "bytes",
              "name": "gameData",
              "type": "bytes"
            }
          ],
          "name": "GameStarted",
          "type": "event"
        },
        {
          "anonymous": false,
          "inputs": [
            {
              "indexed": true,
              "internalType": "address",
              "name": "previousOwner",
              "type": "address"
            },
            {
              "indexed": true,
              "internalType": "address",
              "name": "newOwner",
              "type": "address"
            }
          ],
          "name": "OwnershipTransferred",
          "type": "event"
        },
        {
          "inputs": [],
          "name": "GRID_SIZE",
          "outputs": [
            {
              "internalType": "uint256",
              "name": "",
              "type": "uint256"
            }
          ],
          "stateMutability": "view",
          "type": "function"
        },
        {
          "inputs": [],
          "name": "MAX_ATTEMPTS",
          "outputs": [
            {
              "internalType": "uint256",
              "name": "",
              "type": "uint256"
            }
          ],
          "stateMutability": "view",
          "type": "function"
        },
        {
          "inputs": [],
          "name": "gameFee",
          "outputs": [
            {
              "internalType": "uint256",
              "name": "",
              "type": "uint256"
            }
          ],
          "stateMutability": "view",
          "type": "function"
        },
        {
          "inputs": [],
          "name": "gameIdCounter",
          "outputs": [
            {
              "internalType": "uint256",
              "name": "",
              "type": "uint256"
            }
          ],
          "stateMutability": "view",
          "type": "function"
        },
        {
          "inputs": [
            {
              "internalType": "address",
              "name": "_player",
              "type": "address"
            }
          ],
          "name": "getActiveGame",
          "outputs": [
            {
              "internalType": "uint256",
              "name": "gameId",
              "type": "uint256"
            },
            {
              "internalType": "bytes",
              "name": "gameData",
              "type": "bytes"
            }
          ],
          "stateMutability": "view",
          "type": "function"
        },
        {
          "inputs": [
            {
              "internalType": "uint256",
              "name": "_gameId",
              "type": "uint256"
            }
          ],
          "name": "getGameSession",
          "outputs": [
            {
              "internalType": "address",
              "name": "player",
              "type": "address"
            },
            {
              "internalType": "uint256",
              "name": "startTime",
              "type": "uint256"
            },
            {
              "internalType": "uint256",
              "name": "endTime",
              "type": "uint256"
            },
            {
              "internalType": "uint256",
              "name": "finalScore",
              "type": "uint256"
            },
            {
              "internalType": "bytes",
              "name": "moves",
              "type": "bytes"
            },
            {
              "internalType": "enum IMiniGamesOnInk.GameState",
              "name": "state",
              "type": "uint8"
            }
          ],
          "stateMutability": "view",
          "type": "function"
        },
        {
          "inputs": [
            {
              "internalType": "uint256",
              "name": "_gameId",
              "type": "uint256"
            }
          ],
          "name": "getGameSessionWithGrid",
          "outputs": [
            {
              "internalType": "address",
              "name": "player",
              "type": "address"
            },
            {
              "internalType": "bytes",
              "name": "initialGrid",
              "type": "bytes"
            },
            {
              "internalType": "uint256",
              "name": "startTime",
              "type": "uint256"
            },
            {
              "internalType": "uint256",
              "name": "endTime",
              "type": "uint256"
            },
            {
              "internalType": "uint256",
              "name": "finalScore",
              "type": "uint256"
            },
            {
              "internalType": "bytes",
              "name": "moves",
              "type": "bytes"
            },
            {
              "internalType": "enum IMiniGamesOnInk.GameState",
              "name": "state",
              "type": "uint8"
            }
          ],
          "stateMutability": "view",
          "type": "function"
        },
        {
          "inputs": [
            {
              "internalType": "address",
              "name": "_player",
              "type": "address"
            }
          ],
          "name": "getPlayerGames",
          "outputs": [
            {
              "internalType": "uint256[]",
              "name": "",
              "type": "uint256[]"
            }
          ],
          "stateMutability": "view",
          "type": "function"
        },
        {
          "inputs": [
            {
              "internalType": "address",
              "name": "_player",
              "type": "address"
            },
            {
              "internalType": "uint256",
              "name": "_limit",
              "type": "uint256"
            },
            {
              "internalType": "uint256",
              "name": "_offset",
              "type": "uint256"
            }
          ],
          "name": "getPlayerHistory",
          "outputs": [
            {
              "internalType": "uint256[]",
              "name": "gameIds",
              "type": "uint256[]"
            },
            {
              "internalType": "uint256[]",
              "name": "scores",
              "type": "uint256[]"
            },
            {
              "internalType": "uint256[]",
              "name": "timestamps",
              "type": "uint256[]"
            },
            {
              "internalType": "enum IMiniGamesOnInk.GameState[]",
              "name": "states",
              "type": "uint8[]"
            }
          ],
          "stateMutability": "view",
          "type": "function"
        },
        {
          "inputs": [],
          "name": "owner",
          "outputs": [
            {
              "internalType": "address",
              "name": "",
              "type": "address"
            }
          ],
          "stateMutability": "view",
          "type": "function"
        },
        {
          "inputs": [
            {
              "internalType": "address",
              "name": "",
              "type": "address"
            },
            {
              "internalType": "uint256",
              "name": "",
              "type": "uint256"
            }
          ],
          "name": "playerGames",
          "outputs": [
            {
              "internalType": "uint256",
              "name": "",
              "type": "uint256"
            }
          ],
          "stateMutability": "view",
          "type": "function"
        },
        {
          "inputs": [],
          "name": "renounceOwnership",
          "outputs": [],
          "stateMutability": "nonpayable",
          "type": "function"
        },
        {
          "inputs": [
            {
              "internalType": "bytes",
              "name": "gameData",
              "type": "bytes"
            }
          ],
          "name": "startGame",
          "outputs": [
            {
              "internalType": "uint256",
              "name": "",
              "type": "uint256"
            }
          ],
          "stateMutability": "payable",
          "type": "function"
        },
        {
          "inputs": [
            {
              "internalType": "uint256",
              "name": "_gameId",
              "type": "uint256"
            },
            {
              "internalType": "uint256",
              "name": "_finalScore",
              "type": "uint256"
            },
            {
              "internalType": "bytes",
              "name": "_moves",
              "type": "bytes"
            }
          ],
          "name": "submitGame",
          "outputs": [],
          "stateMutability": "nonpayable",
          "type": "function"
        },
        {
          "inputs": [
            {
              "internalType": "address",
              "name": "newOwner",
              "type": "address"
            }
          ],
          "name": "transferOwnership",
          "outputs": [],
          "stateMutability": "nonpayable",
          "type": "function"
        },
        {
          "inputs": [
            {
              "internalType": "uint256",
              "name": "_newFee",
              "type": "uint256"
            }
          ],
          "name": "updateGameFee",
          "outputs": [],
          "stateMutability": "nonpayable",
          "type": "function"
        },
        {
          "inputs": [],
          "name": "withdrawFees",
          "outputs": [],
          "stateMutability": "nonpayable",
          "type": "function"
        },
        {
          "inputs": [
            {
              "internalType": "address",
              "name": "_lostToken",
              "type": "address"
            }
          ],
          "name": "withdrawLostTokens",
          "outputs": [],
          "stateMutability": "nonpayable",
          "type": "function"
        }
      ],
      "evm": {
        "bytecode": {
          "linkReferences": {},
          "object": "6080604052655af3107a400060025534801561001a57600080fd5b5033600073ffffffffffffffffffffffffffffffffffffffff168173ffffffffffffffffffffffffffffffffffffffff160361008e5760006040517f1e4fbdf700000000000000000000000000000000000000000000000000000000815260040161008591906101af565b60405180910390fd5b61009d816100aa60201b60201c565b50600180819055506101ca565b60008060009054906101000a900473ffffffffffffffffffffffffffffffffffffffff169050816000806101000a81548173ffffffffffffffffffffffffffffffffffffffff021916908373ffffffffffffffffffffffffffffffffffffffff1602179055508173ffffffffffffffffffffffffffffffffffffffff168173ffffffffffffffffffffffffffffffffffffffff167f8be0079c531659141344cd1fd0a4f28419497f9722a3daafe3b4186f6b6457e060405160405180910390a35050565b600073ffffffffffffffffffffffffffffffffffffffff82169050919050565b60006101998261016e565b9050919050565b6101a98161018e565b82525050565b60006020820190506101c460008301846101a0565b92915050565b612c8a806101d96000396000f3fe6080604052600436106101095760003560e01c80638ab06fea11610095578063d46588bf11610064578063d46588bf1461035d578063dc2ac1291461039d578063ea777eec146103cd578063eab9308f146103f8578063f2fde38b1461043b57610109565b80638ab06fea1461029e5780638da5cb5b146102e0578063a3546be41461030b578063b70a6dec1461033457610109565b8063476343ee116100dc578063476343ee146101de578063628aa9a7146101f5578063715018a61461021e5780637bf77345146102355780637fc4eda81461027357610109565b80630a5694c21461010e578063129daf841461014b5780631bb412d61461018857806330e4349c146101b3575b600080fd5b34801561011a57600080fd5b5061013560048036038101906101309190611c15565b610464565b6040516101429190611c64565b60405180910390f35b34801561015757600080fd5b50610172600480360381019061016d9190611c7f565b610495565b60405161017f9190611d6a565b60405180910390f35b34801561019457600080fd5b5061019d61052c565b6040516101aa9190611c64565b60405180910390f35b3480156101bf57600080fd5b506101c8610532565b6040516101d59190611c64565b60405180910390f35b3480156101ea57600080fd5b506101f3610537565b005b34801561020157600080fd5b5061021c60048036038101906102179190611ed2565b610693565b005b34801561022a57600080fd5b50610233610827565b005b34801561024157600080fd5b5061025c60048036038101906102579190611c7f565b61083b565b60405161026a929190611fc0565b60405180910390f35b34801561027f57600080fd5b50610288610855565b6040516102959190611c64565b60405180910390f35b3480156102aa57600080fd5b506102c560048036038101906102c09190611ff0565b61085a565b6040516102d7969594939291906120a3565b60405180910390f35b3480156102ec57600080fd5b506102f5610966565b604051610302919061210b565b60405180910390f35b34801561031757600080fd5b50610332600480360381019061032d9190611c7f565b61098f565b005b34801561034057600080fd5b5061035b60048036038101906103569190611ff0565b610b95565b005b34801561036957600080fd5b50610384600480360381019061037f9190612126565b610be8565b6040516103949493929190612237565b60405180910390f35b6103b760048036038101906103b29190612298565b610c0e565b6040516103c49190611c64565b60405180910390f35b3480156103d957600080fd5b506103e2610d64565b6040516103ef9190611c64565b60405180910390f35b34801561040457600080fd5b5061041f600480360381019061041a9190611ff0565b610d6a565b60405161043297969594939291906122e1565b60405180910390f35b34801561044757600080fd5b50610462600480360381019061045d9190611c7f565b610f0d565b005b6003602052816000526040600020818154811061048057600080fd5b90600052602060002001600091509150505481565b6060600360008373ffffffffffffffffffffffffffffffffffffffff1673ffffffffffffffffffffffffffffffffffffffff16815260200190815260200160002080548060200260200160405190810160405280929190818152602001828054801561052057602002820191906000526020600020905b81548152602001906001019080831161050c575b50505050509050919050565b60055481565b603281565b61053f610f93565b600047905060008111610587576040517f08c379a000000000000000000000000000000000000000000000000000000000815260040161057e906123bb565b60405180910390fd5b6000610591610966565b73ffffffffffffffffffffffffffffffffffffffff16826040516105b49061240c565b60006040518083038185875af1925050503d80600081146105f1576040519150601f19603f3d011682016040523d82523d6000602084013e6105f6565b606091505b505090508061063a576040517f08c379a00000000000000000000000000000000000000000000000000000000081526004016106319061246d565b60405180910390fd5b610642610966565b73ffffffffffffffffffffffffffffffffffffffff167fc0819c13be868895eb93e40eaceb96de976442fa1d404e5c55f14bb65a8c489a836040516106879190611c64565b60405180910390a25050565b61069b61101a565b60006004600085815260200190815260200160002090503373ffffffffffffffffffffffffffffffffffffffff168160000160009054906101000a900473ffffffffffffffffffffffffffffffffffffffff1673ffffffffffffffffffffffffffffffffffffffff1614610744576040517f08c379a000000000000000000000000000000000000000000000000000000000815260040161073b906124d9565b60405180910390fd5b600060028111156107585761075761202c565b5b8160070160009054906101000a900460ff16600281111561077c5761077b61202c565b5b146107bc576040517f08c379a00000000000000000000000000000000000000000000000000000000081526004016107b390612545565b60405180910390fd5b6107c7818484611060565b833373ffffffffffffffffffffffffffffffffffffffff167f02bc913790ab631ec32c90d78f72b9b8ef68289c2dcd586f7da9c36b244a2ed4858551604051610811929190612565565b60405180910390a3506108226110b6565b505050565b61082f610f93565b61083960006110bf565b565b6000606061084c6003600485611183565b91509150915091565b601981565b60008060008060606000806004600089815260200190815260200160002090508060000160009054906101000a900473ffffffffffffffffffffffffffffffffffffffff16816003015482600401548360050154846006018560070160009054906101000a900460ff168180546108d0906125bd565b80601f01602080910402602001604051908101604052809291908181526020018280546108fc906125bd565b80156109495780601f1061091e57610100808354040283529160200191610949565b820191906000526020600020905b81548152906001019060200180831161092c57829003601f168201915b505050505091509650965096509650965096505091939550919395565b60008060009054906101000a900473ffffffffffffffffffffffffffffffffffffffff16905090565b610997610f93565b600073ffffffffffffffffffffffffffffffffffffffff168173ffffffffffffffffffffffffffffffffffffffff1603610a06576040517f08c379a00000000000000000000000000000000000000000000000000000000081526004016109fd9061263a565b60405180910390fd5b600081905060008173ffffffffffffffffffffffffffffffffffffffff166370a08231306040518263ffffffff1660e01b8152600401610a46919061210b565b602060405180830381865afa158015610a63573d6000803e3d6000fd5b505050506040513d601f19601f82011682018060405250810190610a87919061266f565b905060008111610acc576040517f08c379a0000000000000000000000000000000000000000000000000000000008152600401610ac3906126e8565b60405180910390fd5b8173ffffffffffffffffffffffffffffffffffffffff1663a9059cbb610af0610966565b836040518363ffffffff1660e01b8152600401610b0e929190612708565b6020604051808303816000875af1158015610b2d573d6000803e3d6000fd5b505050506040513d601f19601f82011682018060405250810190610b519190612769565b610b90576040517f08c379a0000000000000000000000000000000000000000000000000000000008152600401610b87906127e2565b60405180910390fd5b505050565b610b9d610f93565b60006002549050816002819055507f75aef5483b24548953e5e86df155417ee9e1b8a174ad54f9c1a2211ab03822c28183604051610bdc929190612565565b60405180910390a15050565b606080606080610bfd60036004898989611311565b935093509350935093509350935093565b6000610c1861101a565b600254341015610c5d576040517f08c379a0000000000000000000000000000000000000000000000000000000008152600401610c549061284e565b60405180910390fd5b600080610c6d600360043361174b565b915091508115610cbc57803373ffffffffffffffffffffffffffffffffffffffff167fc8fea8853b9a09335acd8a7a289338cd416b10c98090b62aa8361950b866303d60405160405180910390a35b60056000815480929190610ccf9061289d565b919050555060006005549050610cea6004600383338961187b565b610cf76006600733611992565b803373ffffffffffffffffffffffffffffffffffffffff167fb93756cd05fbb5bda0c87e5d77406d7b7e3649fe1327f6783b4e28bb5789d96987604051610d3e91906128e5565b60405180910390a3610d51600254611aa1565b809350505050610d5f6110b6565b919050565b60025481565b6000606060008060006060600080600460008a815260200190815260200160002090508060000160009054906101000a900473ffffffffffffffffffffffffffffffffffffffff1681600201826003015483600401548460050154856006018660070160009054906101000a900460ff16858054610de7906125bd565b80601f0160208091040260200160405190810160405280929190818152602001828054610e13906125bd565b8015610e605780601f10610e3557610100808354040283529160200191610e60565b820191906000526020600020905b815481529060010190602001808311610e4357829003601f168201915b50505050509550818054610e73906125bd565b80601f0160208091040260200160405190810160405280929190818152602001828054610e9f906125bd565b8015610eec5780601f10610ec157610100808354040283529160200191610eec565b820191906000526020600020905b815481529060010190602001808311610ecf57829003601f168201915b50505050509150975097509750975097509750975050919395979092949650565b610f15610f93565b600073ffffffffffffffffffffffffffffffffffffffff168173ffffffffffffffffffffffffffffffffffffffff1603610f875760006040517f1e4fbdf7000000000000000000000000000000000000000000000000000000008152600401610f7e919061210b565b60405180910390fd5b610f90816110bf565b50565b610f9b611b65565b73ffffffffffffffffffffffffffffffffffffffff16610fb9610966565b73ffffffffffffffffffffffffffffffffffffffff161461101857610fdc611b65565b6040517f118cdaa700000000000000000000000000000000000000000000000000000000815260040161100f919061210b565b60405180910390fd5b565b600260015403611056576040517f3ee5aeb500000000000000000000000000000000000000000000000000000000815260040160405180910390fd5b6002600181905550565b8183600501819055508083600601908161107a9190612ab3565b5042836004018190555060018360070160006101000a81548160ff021916908360028111156110ac576110ab61202c565b5b0217905550505050565b60018081905550565b60008060009054906101000a900473ffffffffffffffffffffffffffffffffffffffff169050816000806101000a81548173ffffffffffffffffffffffffffffffffffffffff021916908373ffffffffffffffffffffffffffffffffffffffff1602179055508173ffffffffffffffffffffffffffffffffffffffff168173ffffffffffffffffffffffffffffffffffffffff167f8be0079c531659141344cd1fd0a4f28419497f9722a3daafe3b4186f6b6457e060405160405180910390a35050565b6000606060008560008573ffffffffffffffffffffffffffffffffffffffff1673ffffffffffffffffffffffffffffffffffffffff168152602001908152602001600020905060008180549050036111df576000925050611309565b600081600183805490506111f39190612b85565b8154811061120457611203612bb9565b5b90600052602060002001549050600086600083815260200190815260200160002090506000600281111561123b5761123a61202c565b5b8160070160009054906101000a900460ff16600281111561125f5761125e61202c565b5b03611301578181600201808054611275906125bd565b80601f01602080910402602001604051908101604052809291908181526020018280546112a1906125bd565b80156112ee5780601f106112c3576101008083540402835291602001916112ee565b820191906000526020600020905b8154815290600101906020018083116112d157829003601f168201915b5050505050905094509450505050611309565b600094505050505b935093915050565b60608060608060008960008973ffffffffffffffffffffffffffffffffffffffff1673ffffffffffffffffffffffffffffffffffffffff16815260200190815260200160002090506000818054905090508087106114a057600067ffffffffffffffff81111561138457611383611da7565b5b6040519080825280602002602001820160405280156113b25781602001602082028036833780820191505090505b50600067ffffffffffffffff8111156113ce576113cd611da7565b5b6040519080825280602002602001820160405280156113fc5781602001602082028036833780820191505090505b50600067ffffffffffffffff81111561141857611417611da7565b5b6040519080825280602002602001820160405280156114465781602001602082028036833780820191505090505b50600067ffffffffffffffff81111561146257611461611da7565b5b6040519080825280602002602001820160405280156114905781602001602082028036833780820191505090505b509550955095509550505061173f565b600087826114ae9190612b85565b905060008982106114bf57896114c1565b815b90508067ffffffffffffffff8111156114dd576114dc611da7565b5b60405190808252806020026020018201604052801561150b5781602001602082028036833780820191505090505b5097508067ffffffffffffffff81111561152857611527611da7565b5b6040519080825280602002602001820160405280156115565781602001602082028036833780820191505090505b5096508067ffffffffffffffff81111561157357611572611da7565b5b6040519080825280602002602001820160405280156115a15781602001602082028036833780820191505090505b5095508067ffffffffffffffff8111156115be576115bd611da7565b5b6040519080825280602002602001820160405280156115ec5781602001602082028036833780820191505090505b50945060005b8181101561173957600085828c60018861160c9190612b85565b6116169190612b85565b6116209190612b85565b8154811061163157611630612bb9565b5b9060005260206000200154905060008e60008381526020019081526020016000209050818b848151811061166857611667612bb9565b5b60200260200101818152505080600501548a848151811061168c5761168b612bb9565b5b60200260200101818152505060008160040154116116ae5780600301546116b4565b80600401545b8984815181106116c7576116c6612bb9565b5b6020026020010181815250508060070160009054906101000a900460ff168884815181106116f8576116f7612bb9565b5b602002602001019060028111156117125761171161202c565b5b908160028111156117265761172561202c565b5b81525050505080806001019150506115f2565b50505050505b95509550955095915050565b60008060008560008573ffffffffffffffffffffffffffffffffffffffff1673ffffffffffffffffffffffffffffffffffffffff168152602001908152602001600020905060008180549050111561186a57600081600183805490506117b19190612b85565b815481106117c2576117c1612bb9565b5b9060005260206000200154905060008660008381526020019081526020016000209050600060028111156117f9576117f861202c565b5b8160070160009054906101000a900460ff16600281111561181d5761181c61202c565b5b036118675760028160070160006101000a81548160ff0219169083600281111561184a5761184961202c565b5b021790555042816004018190555060018294509450505050611873565b50505b60008092509250505b935093915050565b60008560008581526020019081526020016000209050828160000160006101000a81548173ffffffffffffffffffffffffffffffffffffffff021916908373ffffffffffffffffffffffffffffffffffffffff160217905550838160010181905550818160020190816118ee9190612ab3565b5042816003018190555060008160070160006101000a81548160ff021916908360028111156119205761191f61202c565b5b02179055508460008473ffffffffffffffffffffffffffffffffffffffff1673ffffffffffffffffffffffffffffffffffffffff168152602001908152602001600020849080600181540180825580915050600190039060005260206000200160009091909190915055505050505050565b8160008273ffffffffffffffffffffffffffffffffffffffff1673ffffffffffffffffffffffffffffffffffffffff16815260200190815260200160002060009054906101000a900460ff16611a9c5782819080600181540180825580915050600190039060005260206000200160009091909190916101000a81548173ffffffffffffffffffffffffffffffffffffffff021916908373ffffffffffffffffffffffffffffffffffffffff16021790555060018260008373ffffffffffffffffffffffffffffffffffffffff1673ffffffffffffffffffffffffffffffffffffffff16815260200190815260200160002060006101000a81548160ff0219169083151502179055505b505050565b80341115611b625760003373ffffffffffffffffffffffffffffffffffffffff168234611ace9190612b85565b604051611ada9061240c565b60006040518083038185875af1925050503d8060008114611b17576040519150601f19603f3d011682016040523d82523d6000602084013e611b1c565b606091505b5050905080611b60576040517f08c379a0000000000000000000000000000000000000000000000000000000008152600401611b5790612c34565b60405180910390fd5b505b50565b600033905090565b6000604051905090565b600080fd5b600080fd5b600073ffffffffffffffffffffffffffffffffffffffff82169050919050565b6000611bac82611b81565b9050919050565b611bbc81611ba1565b8114611bc757600080fd5b50565b600081359050611bd981611bb3565b92915050565b6000819050919050565b611bf281611bdf565b8114611bfd57600080fd5b50565b600081359050611c0f81611be9565b92915050565b60008060408385031215611c2c57611c2b611b77565b5b6000611c3a85828601611bca565b9250506020611c4b85828601611c00565b9150509250929050565b611c5e81611bdf565b82525050565b6000602082019050611c796000830184611c55565b92915050565b600060208284031215611c9557611c94611b77565b5b6000611ca384828501611bca565b91505092915050565b600081519050919050565b600082825260208201905092915050565b6000819050602082019050919050565b611ce181611bdf565b82525050565b6000611cf38383611cd8565b60208301905092915050565b6000602082019050919050565b6000611d1782611cac565b611d218185611cb7565b9350611d2c83611cc8565b8060005b83811015611d5d578151611d448882611ce7565b9750611d4f83611cff565b925050600181019050611d30565b5085935050505092915050565b60006020820190508181036000830152611d848184611d0c565b905092915050565b600080fd5b600080fd5b6000601f19601f8301169050919050565b7f4e487b7100000000000000000000000000000000000000000000000000000000600052604160045260246000fd5b611ddf82611d96565b810181811067ffffffffffffffff82111715611dfe57611dfd611da7565b5b80604052505050565b6000611e11611b6d565b9050611e1d8282611dd6565b919050565b600067ffffffffffffffff821115611e3d57611e3c611da7565b5b611e4682611d96565b9050602081019050919050565b82818337600083830152505050565b6000611e75611e7084611e22565b611e07565b905082815260208101848484011115611e9157611e90611d91565b5b611e9c848285611e53565b509392505050565b600082601f830112611eb957611eb8611d8c565b5b8135611ec9848260208601611e62565b91505092915050565b600080600060608486031215611eeb57611eea611b77565b5b6000611ef986828701611c00565b9350506020611f0a86828701611c00565b925050604084013567ffffffffffffffff811115611f2b57611f2a611b7c565b5b611f3786828701611ea4565b9150509250925092565b600081519050919050565b600082825260208201905092915050565b60005b83811015611f7b578082015181840152602081019050611f60565b60008484015250505050565b6000611f9282611f41565b611f9c8185611f4c565b9350611fac818560208601611f5d565b611fb581611d96565b840191505092915050565b6000604082019050611fd56000830185611c55565b8181036020830152611fe78184611f87565b90509392505050565b60006020828403121561200657612005611b77565b5b600061201484828501611c00565b91505092915050565b61202681611ba1565b82525050565b7f4e487b7100000000000000000000000000000000000000000000000000000000600052602160045260246000fd5b6003811061206c5761206b61202c565b5b50565b600081905061207d8261205b565b919050565b600061208d8261206f565b9050919050565b61209d81612082565b82525050565b600060c0820190506120b8600083018961201d565b6120c56020830188611c55565b6120d26040830187611c55565b6120df6060830186611c55565b81810360808301526120f18185611f87565b905061210060a0830184612094565b979650505050505050565b6000602082019050612120600083018461201d565b92915050565b60008060006060848603121561213f5761213e611b77565b5b600061214d86828701611bca565b935050602061215e86828701611c00565b925050604061216f86828701611c00565b9150509250925092565b600081519050919050565b600082825260208201905092915050565b6000819050602082019050919050565b6121ae81612082565b82525050565b60006121c083836121a5565b60208301905092915050565b6000602082019050919050565b60006121e482612179565b6121ee8185612184565b93506121f983612195565b8060005b8381101561222a57815161221188826121b4565b975061221c836121cc565b9250506001810190506121fd565b5085935050505092915050565b600060808201905081810360008301526122518187611d0c565b905081810360208301526122658186611d0c565b905081810360408301526122798185611d0c565b9050818103606083015261228d81846121d9565b905095945050505050565b6000602082840312156122ae576122ad611b77565b5b600082013567ffffffffffffffff8111156122cc576122cb611b7c565b5b6122d884828501611ea4565b91505092915050565b600060e0820190506122f6600083018a61201d565b81810360208301526123088189611f87565b90506123176040830188611c55565b6123246060830187611c55565b6123316080830186611c55565b81810360a08301526123438185611f87565b905061235260c0830184612094565b98975050505050505050565b600082825260208201905092915050565b7f4e6f206665657320746f20776974686472617700000000000000000000000000600082015250565b60006123a560138361235e565b91506123b08261236f565b602082019050919050565b600060208201905081810360008301526123d481612398565b9050919050565b600081905092915050565b50565b60006123f66000836123db565b9150612401826123e6565b600082019050919050565b6000612417826123e9565b9150819050919050565b7f5769746864726177616c206661696c6564000000000000000000000000000000600082015250565b600061245760118361235e565b915061246282612421565b602082019050919050565b600060208201905081810360008301526124868161244a565b9050919050565b7f4e6f7420796f75722067616d6500000000000000000000000000000000000000600082015250565b60006124c3600d8361235e565b91506124ce8261248d565b602082019050919050565b600060208201905081810360008301526124f2816124b6565b9050919050565b7f47616d65206e6f74206163746976650000000000000000000000000000000000600082015250565b600061252f600f8361235e565b915061253a826124f9565b602082019050919050565b6000602082019050818103600083015261255e81612522565b9050919050565b600060408201905061257a6000830185611c55565b6125876020830184611c55565b9392505050565b7f4e487b7100000000000000000000000000000000000000000000000000000000600052602260045260246000fd5b600060028204905060018216806125d557607f821691505b6020821081036125e8576125e761258e565b5b50919050565b7f496e76616c696420746f6b656e20616464726573730000000000000000000000600082015250565b600061262460158361235e565b915061262f826125ee565b602082019050919050565b6000602082019050818103600083015261265381612617565b9050919050565b60008151905061266981611be9565b92915050565b60006020828403121561268557612684611b77565b5b60006126938482850161265a565b91505092915050565b7f4e6f20746f6b656e7320746f2077697468647261770000000000000000000000600082015250565b60006126d260158361235e565b91506126dd8261269c565b602082019050919050565b60006020820190508181036000830152612701816126c5565b9050919050565b600060408201905061271d600083018561201d565b61272a6020830184611c55565b9392505050565b60008115159050919050565b61274681612731565b811461275157600080fd5b50565b6000815190506127638161273d565b92915050565b60006020828403121561277f5761277e611b77565b5b600061278d84828501612754565b91505092915050565b7f546f6b656e207472616e73666572206661696c65640000000000000000000000600082015250565b60006127cc60158361235e565b91506127d782612796565b602082019050919050565b600060208201905081810360008301526127fb816127bf565b9050919050565b7f496e73756666696369656e742067616d65206665650000000000000000000000600082015250565b600061283860158361235e565b915061284382612802565b602082019050919050565b600060208201905081810360008301526128678161282b565b9050919050565b7f4e487b7100000000000000000000000000000000000000000000000000000000600052601160045260246000fd5b60006128a882611bdf565b91507fffffffffffffffffffffffffffffffffffffffffffffffffffffffffffffffff82036128da576128d961286e565b5b600182019050919050565b600060208201905081810360008301526128ff8184611f87565b905092915050565b60008190508160005260206000209050919050565b60006020601f8301049050919050565b600082821b905092915050565b6000600883026129697fffffffffffffffffffffffffffffffffffffffffffffffffffffffffffffffff8261292c565b612973868361292c565b95508019841693508086168417925050509392505050565b6000819050919050565b60006129b06129ab6129a684611bdf565b61298b565b611bdf565b9050919050565b6000819050919050565b6129ca83612995565b6129de6129d6826129b7565b848454612939565b825550505050565b600090565b6129f36129e6565b6129fe8184846129c1565b505050565b5b81811015612a2257612a176000826129eb565b600181019050612a04565b5050565b601f821115612a6757612a3881612907565b612a418461291c565b81016020851015612a50578190505b612a64612a5c8561291c565b830182612a03565b50505b505050565b600082821c905092915050565b6000612a8a60001984600802612a6c565b1980831691505092915050565b6000612aa38383612a79565b9150826002028217905092915050565b612abc82611f41565b67ffffffffffffffff811115612ad557612ad4611da7565b5b612adf82546125bd565b612aea828285612a26565b600060209050601f831160018114612b1d5760008415612b0b578287015190505b612b158582612a97565b865550612b7d565b601f198416612b2b86612907565b60005b82811015612b5357848901518255600182019150602085019450602081019050612b2e565b86831015612b705784890151612b6c601f891682612a79565b8355505b6001600288020188555050505b505050505050565b6000612b9082611bdf565b9150612b9b83611bdf565b9250828203905081811115612bb357612bb261286e565b5b92915050565b7f4e487b7100000000000000000000000000000000000000000000000000000000600052603260045260246000fd5b7f526566756e64206661696c656400000000000000000000000000000000000000600082015250565b6000612c1e600d8361235e565b9150612c2982612be8565b602082019050919050565b60006020820190508181036000830152612c4d81612c11565b905091905056fea26469706673582212203901ead597a889f06f45381a8af3b0db7dd496563828b420d4c4a4fb4d985e7464736f6c634300081c0033",
          "opcodes": "PUSH1 0x80 PUSH1 0x40 MSTORE PUSH6 0x5AF3107A4000 PUSH1 0x2 SSTORE CALLVALUE DUP1 ISZERO PUSH2 0x1A JUMPI PUSH1 0x0 DUP1 REVERT JUMPDEST POP CALLER PUSH1 0x0 PUSH20 0xFFFFFFFFFFFFFFFFFFFFFFFFFFFFFFFFFFFFFFFF AND DUP2 PUSH20 0xFFFFFFFFFFFFFFFFFFFFFFFFFFFFFFFFFFFFFFFF AND SUB PUSH2 0x8E JUMPI PUSH1 0x0 PUSH1 0x40 MLOAD PUSH32 0x1E4FBDF700000000000000000000000000000000000000000000000000000000 DUP2 MSTORE PUSH1 0x4 ADD PUSH2 0x85 SWAP2 SWAP1 PUSH2 0x1AF JUMP JUMPDEST PUSH1 0x40 MLOAD DUP1 SWAP2 SUB SWAP1 REVERT JUMPDEST PUSH2 0x9D DUP2 PUSH2 0xAA PUSH1 0x20 SHL PUSH1 0x20 SHR JUMP JUMPDEST POP PUSH1 0x1 DUP1 DUP2 SWAP1 SSTORE POP PUSH2 0x1CA JUMP JUMPDEST PUSH1 0x0 DUP1 PUSH1 0x0 SWAP1 SLOAD SWAP1 PUSH2 0x100 EXP SWAP1 DIV PUSH20 0xFFFFFFFFFFFFFFFFFFFFFFFFFFFFFFFFFFFFFFFF AND SWAP1 POP DUP2 PUSH1 0x0 DUP1 PUSH2 0x100 EXP DUP2 SLOAD DUP2 PUSH20 0xFFFFFFFFFFFFFFFFFFFFFFFFFFFFFFFFFFFFFFFF MUL NOT AND SWAP1 DUP4 PUSH20 0xFFFFFFFFFFFFFFFFFFFFFFFFFFFFFFFFFFFFFFFF AND MUL OR SWAP1 SSTORE POP DUP2 PUSH20 0xFFFFFFFFFFFFFFFFFFFFFFFFFFFFFFFFFFFFFFFF AND DUP2 PUSH20 0xFFFFFFFFFFFFFFFFFFFFFFFFFFFFFFFFFFFFFFFF AND PUSH32 0x8BE0079C531659141344CD1FD0A4F28419497F9722A3DAAFE3B4186F6B6457E0 PUSH1 0x40 MLOAD PUSH1 0x40 MLOAD DUP1 SWAP2 SUB SWAP1 LOG3 POP POP JUMP JUMPDEST PUSH1 0x0 PUSH20 0xFFFFFFFFFFFFFFFFFFFFFFFFFFFFFFFFFFFFFFFF DUP3 AND SWAP1 POP SWAP2 SWAP1 POP JUMP JUMPDEST PUSH1 0x0 PUSH2 0x199 DUP3 PUSH2 0x16E JUMP JUMPDEST SWAP1 POP SWAP2 SWAP1 POP JUMP JUMPDEST PUSH2 0x1A9 DUP2 PUSH2 0x18E JUMP JUMPDEST DUP3 MSTORE POP POP JUMP JUMPDEST PUSH1 0x0 PUSH1 0x20 DUP3 ADD SWAP1 POP PUSH2 0x1C4 PUSH1 0x0 DUP4 ADD DUP5 PUSH2 0x1A0 JUMP JUMPDEST SWAP3 SWAP2 POP POP JUMP JUMPDEST PUSH2 0x2C8A DUP1 PUSH2 0x1D9 PUSH1 0x0 CODECOPY PUSH1 0x0 RETURN INVALID PUSH1 0x80 PUSH1 0x40 MSTORE PUSH1 0x4 CALLDATASIZE LT PUSH2 0x109 JUMPI PUSH1 0x0 CALLDATALOAD PUSH1 0xE0 SHR DUP1 PUSH4 0x8AB06FEA GT PUSH2 0x95 JUMPI DUP1 PUSH4 0xD46588BF GT PUSH2 0x64 JUMPI DUP1 PUSH4 0xD46588BF EQ PUSH2 0x35D JUMPI DUP1 PUSH4 0xDC2AC129 EQ PUSH2 0x39D JUMPI DUP1 PUSH4 0xEA777EEC EQ PUSH2 0x3CD JUMPI DUP1 PUSH4 0xEAB9308F EQ PUSH2 0x3F8 JUMPI DUP1 PUSH4 0xF2FDE38B EQ PUSH2 0x43B JUMPI PUSH2 0x109 JUMP JUMPDEST DUP1 PUSH4 0x8AB06FEA EQ PUSH2 0x29E JUMPI DUP1 PUSH4 0x8DA5CB5B EQ PUSH2 0x2E0 JUMPI DUP1 PUSH4 0xA3546BE4 EQ PUSH2 0x30B JUMPI DUP1 PUSH4 0xB70A6DEC EQ PUSH2 0x334 JUMPI PUSH2 0x109 JUMP JUMPDEST DUP1 PUSH4 0x476343EE GT PUSH2 0xDC JUMPI DUP1 PUSH4 0x476343EE EQ PUSH2 0x1DE JUMPI DUP1 PUSH4 0x628AA9A7 EQ PUSH2 0x1F5 JUMPI DUP1 PUSH4 0x715018A6 EQ PUSH2 0x21E JUMPI DUP1 PUSH4 0x7BF77345 EQ PUSH2 0x235 JUMPI DUP1 PUSH4 0x7FC4EDA8 EQ PUSH2 0x273 JUMPI PUSH2 0x109 JUMP JUMPDEST DUP1 PUSH4 0xA5694C2 EQ PUSH2 0x10E JUMPI DUP1 PUSH4 0x129DAF84 EQ PUSH2 0x14B JUMPI DUP1 PUSH4 0x1BB412D6 EQ PUSH2 0x188 JUMPI DUP1 PUSH4 0x30E4349C EQ PUSH2 0x1B3 JUMPI JUMPDEST PUSH1 0x0 DUP1 REVERT JUMPDEST CALLVALUE DUP1 ISZERO PUSH2 0x11A JUMPI PUSH1 0x0 DUP1 REVERT JUMPDEST POP PUSH2 0x135 PUSH1 0x4 DUP1 CALLDATASIZE SUB DUP2 ADD SWAP1 PUSH2 0x130 SWAP2 SWAP1 PUSH2 0x1C15 JUMP JUMPDEST PUSH2 0x464 JUMP JUMPDEST PUSH1 0x40 MLOAD PUSH2 0x142 SWAP2 SWAP1 PUSH2 0x1C64 JUMP JUMPDEST PUSH1 0x40 MLOAD DUP1 SWAP2 SUB SWAP1 RETURN JUMPDEST CALLVALUE DUP1 ISZERO PUSH2 0x157 JUMPI PUSH1 0x0 DUP1 REVERT JUMPDEST POP PUSH2 0x172 PUSH1 0x4 DUP1 CALLDATASIZE SUB DUP2 ADD SWAP1 PUSH2 0x16D SWAP2 SWAP1 PUSH2 0x1C7F JUMP JUMPDEST PUSH2 0x495 JUMP JUMPDEST PUSH1 0x40 MLOAD PUSH2 0x17F SWAP2 SWAP1 PUSH2 0x1D6A JUMP JUMPDEST PUSH1 0x40 MLOAD DUP1 SWAP2 SUB SWAP1 RETURN JUMPDEST CALLVALUE DUP1 ISZERO PUSH2 0x194 JUMPI PUSH1 0x0 DUP1 REVERT JUMPDEST POP PUSH2 0x19D PUSH2 0x52C JUMP JUMPDEST PUSH1 0x40 MLOAD PUSH2 0x1AA SWAP2 SWAP1 PUSH2 0x1C64 JUMP JUMPDEST PUSH1 0x40 MLOAD DUP1 SWAP2 SUB SWAP1 RETURN JUMPDEST CALLVALUE DUP1 ISZERO PUSH2 0x1BF JUMPI PUSH1 0x0 DUP1 REVERT JUMPDEST POP PUSH2 0x1C8 PUSH2 0x532 JUMP JUMPDEST PUSH1 0x40 MLOAD PUSH2 0x1D5 SWAP2 SWAP1 PUSH2 0x1C64 JUMP JUMPDEST PUSH1 0x40 MLOAD DUP1 SWAP2 SUB SWAP1 RETURN JUMPDEST CALLVALUE DUP1 ISZERO PUSH2 0x1EA JUMPI PUSH1 0x0 DUP1 REVERT JUMPDEST POP PUSH2 0x1F3 PUSH2 0x537 JUMP JUMPDEST STOP JUMPDEST CALLVALUE DUP1 ISZERO PUSH2 0x201 JUMPI PUSH1 0x0 DUP1 REVERT JUMPDEST POP PUSH2 0x21C PUSH1 0x4 DUP1 CALLDATASIZE SUB DUP2 ADD SWAP1 PUSH2 0x217 SWAP2 SWAP1 PUSH2 0x1ED2 JUMP JUMPDEST PUSH2 0x693 JUMP JUMPDEST STOP JUMPDEST CALLVALUE DUP1 ISZERO PUSH2 0x22A JUMPI PUSH1 0x0 DUP1 REVERT JUMPDEST POP PUSH2 0x233 PUSH2 0x827 JUMP JUMPDEST STOP JUMPDEST CALLVALUE DUP1 ISZERO PUSH2 0x241 JUMPI PUSH1 0x0 DUP1 REVERT JUMPDEST POP PUSH2 0x25C PUSH1 0x4 DUP1 CALLDATASIZE SUB DUP2 ADD SWAP1 PUSH2 0x257 SWAP2 SWAP1 PUSH2 0x1C7F JUMP JUMPDEST PUSH2 0x83B JUMP JUMPDEST PUSH1 0x40 MLOAD PUSH2 0x26A SWAP3 SWAP2 SWAP1 PUSH2 0x1FC0 JUMP JUMPDEST PUSH1 0x40 MLOAD DUP1 SWAP2 SUB SWAP1 RETURN JUMPDEST CALLVALUE DUP1 ISZERO PUSH2 0x27F JUMPI PUSH1 0x0 DUP1 REVERT JUMPDEST POP PUSH2 0x288 PUSH2 0x855 JUMP JUMPDEST PUSH1 0x40 MLOAD PUSH2 0x295 SWAP2 SWAP1 PUSH2 0x1C64 JUMP JUMPDEST PUSH1 0x40 MLOAD DUP1 SWAP2 SUB SWAP1 RETURN JUMPDEST CALLVALUE DUP1 ISZERO PUSH2 0x2AA JUMPI PUSH1 0x0 DUP1 REVERT JUMPDEST POP PUSH2 0x2C5 PUSH1 0x4 DUP1 CALLDATASIZE SUB DUP2 ADD SWAP1 PUSH2 0x2C0 SWAP2 SWAP1 PUSH2 0x1FF0 JUMP JUMPDEST PUSH2 0x85A JUMP JUMPDEST PUSH1 0x40 MLOAD PUSH2 0x2D7 SWAP7 SWAP6 SWAP5 SWAP4 SWAP3 SWAP2 SWAP1 PUSH2 0x20A3 JUMP JUMPDEST PUSH1 0x40 MLOAD DUP1 SWAP2 SUB SWAP1 RETURN JUMPDEST CALLVALUE DUP1 ISZERO PUSH2 0x2EC JUMPI PUSH1 0x0 DUP1 REVERT JUMPDEST POP PUSH2 0x2F5 PUSH2 0x966 JUMP JUMPDEST PUSH1 0x40 MLOAD PUSH2 0x302 SWAP2 SWAP1 PUSH2 0x210B JUMP JUMPDEST PUSH1 0x40 MLOAD DUP1 SWAP2 SUB SWAP1 RETURN JUMPDEST CALLVALUE DUP1 ISZERO PUSH2 0x317 JUMPI PUSH1 0x0 DUP1 REVERT JUMPDEST POP PUSH2 0x332 PUSH1 0x4 DUP1 CALLDATASIZE SUB DUP2 ADD SWAP1 PUSH2 0x32D SWAP2 SWAP1 PUSH2 0x1C7F JUMP JUMPDEST PUSH2 0x98F JUMP JUMPDEST STOP JUMPDEST CALLVALUE DUP1 ISZERO PUSH2 0x340 JUMPI PUSH1 0x0 DUP1 REVERT JUMPDEST POP PUSH2 0x35B PUSH1 0x4 DUP1 CALLDATASIZE SUB DUP2 ADD SWAP1 PUSH2 0x356 SWAP2 SWAP1 PUSH2 0x1FF0 JUMP JUMPDEST PUSH2 0xB95 JUMP JUMPDEST STOP JUMPDEST CALLVALUE DUP1 ISZERO PUSH2 0x369 JUMPI PUSH1 0x0 DUP1 REVERT JUMPDEST POP PUSH2 0x384 PUSH1 0x4 DUP1 CALLDATASIZE SUB DUP2 ADD SWAP1 PUSH2 0x37F SWAP2 SWAP1 PUSH2 0x2126 JUMP JUMPDEST PUSH2 0xBE8 JUMP JUMPDEST PUSH1 0x40 MLOAD PUSH2 0x394 SWAP5 SWAP4 SWAP3 SWAP2 SWAP1 PUSH2 0x2237 JUMP JUMPDEST PUSH1 0x40 MLOAD DUP1 SWAP2 SUB SWAP1 RETURN JUMPDEST PUSH2 0x3B7 PUSH1 0x4 DUP1 CALLDATASIZE SUB DUP2 ADD SWAP1 PUSH2 0x3B2 SWAP2 SWAP1 PUSH2 0x2298 JUMP JUMPDEST PUSH2 0xC0E JUMP JUMPDEST PUSH1 0x40 MLOAD PUSH2 0x3C4 SWAP2 SWAP1 PUSH2 0x1C64 JUMP JUMPDEST PUSH1 0x40 MLOAD DUP1 SWAP2 SUB SWAP1 RETURN JUMPDEST CALLVALUE DUP1 ISZERO PUSH2 0x3D9 JUMPI PUSH1 0x0 DUP1 REVERT JUMPDEST POP PUSH2 0x3E2 PUSH2 0xD64 JUMP JUMPDEST PUSH1 0x40 MLOAD PUSH2 0x3EF SWAP2 SWAP1 PUSH2 0x1C64 JUMP JUMPDEST PUSH1 0x40 MLOAD DUP1 SWAP2 SUB SWAP1 RETURN JUMPDEST CALLVALUE DUP1 ISZERO PUSH2 0x404 JUMPI PUSH1 0x0 DUP1 REVERT JUMPDEST POP PUSH2 0x41F PUSH1 0x4 DUP1 CALLDATASIZE SUB DUP2 ADD SWAP1 PUSH2 0x41A SWAP2 SWAP1 PUSH2 0x1FF0 JUMP JUMPDEST PUSH2 0xD6A JUMP JUMPDEST PUSH1 0x40 MLOAD PUSH2 0x432 SWAP8 SWAP7 SWAP6 SWAP5 SWAP4 SWAP3 SWAP2 SWAP1 PUSH2 0x22E1 JUMP JUMPDEST PUSH1 0x40 MLOAD DUP1 SWAP2 SUB SWAP1 RETURN JUMPDEST CALLVALUE DUP1 ISZERO PUSH2 0x447 JUMPI PUSH1 0x0 DUP1 REVERT JUMPDEST POP PUSH2 0x462 PUSH1 0x4 DUP1 CALLDATASIZE SUB DUP2 ADD SWAP1 PUSH2 0x45D SWAP2 SWAP1 PUSH2 0x1C7F JUMP JUMPDEST PUSH2 0xF0D JUMP JUMPDEST STOP JUMPDEST PUSH1 0x3 PUSH1 0x20 MSTORE DUP2 PUSH1 0x0 MSTORE PUSH1 0x40 PUSH1 0x0 KECCAK256 DUP2 DUP2 SLOAD DUP2 LT PUSH2 0x480 JUMPI PUSH1 0x0 DUP1 REVERT JUMPDEST SWAP1 PUSH1 0x0 MSTORE PUSH1 0x20 PUSH1 0x0 KECCAK256 ADD PUSH1 0x0 SWAP2 POP SWAP2 POP POP SLOAD DUP2 JUMP JUMPDEST PUSH1 0x60 PUSH1 0x3 PUSH1 0x0 DUP4 PUSH20 0xFFFFFFFFFFFFFFFFFFFFFFFFFFFFFFFFFFFFFFFF AND PUSH20 0xFFFFFFFFFFFFFFFFFFFFFFFFFFFFFFFFFFFFFFFF AND DUP2 MSTORE PUSH1 0x20 ADD SWAP1 DUP2 MSTORE PUSH1 0x20 ADD PUSH1 0x0 KECCAK256 DUP1 SLOAD DUP1 PUSH1 0x20 MUL PUSH1 0x20 ADD PUSH1 0x40 MLOAD SWAP1 DUP2 ADD PUSH1 0x40 MSTORE DUP1 SWAP3 SWAP2 SWAP1 DUP2 DUP2 MSTORE PUSH1 0x20 ADD DUP3 DUP1 SLOAD DUP1 ISZERO PUSH2 0x520 JUMPI PUSH1 0x20 MUL DUP3 ADD SWAP2 SWAP1 PUSH1 0x0 MSTORE PUSH1 0x20 PUSH1 0x0 KECCAK256 SWAP1 JUMPDEST DUP2 SLOAD DUP2 MSTORE PUSH1 0x20 ADD SWAP1 PUSH1 0x1 ADD SWAP1 DUP1 DUP4 GT PUSH2 0x50C JUMPI JUMPDEST POP POP POP POP POP SWAP1 POP SWAP2 SWAP1 POP JUMP JUMPDEST PUSH1 0x5 SLOAD DUP2 JUMP JUMPDEST PUSH1 0x32 DUP2 JUMP JUMPDEST PUSH2 0x53F PUSH2 0xF93 JUMP JUMPDEST PUSH1 0x0 SELFBALANCE SWAP1 POP PUSH1 0x0 DUP2 GT PUSH2 0x587 JUMPI PUSH1 0x40 MLOAD PUSH32 0x8C379A000000000000000000000000000000000000000000000000000000000 DUP2 MSTORE PUSH1 0x4 ADD PUSH2 0x57E SWAP1 PUSH2 0x23BB JUMP JUMPDEST PUSH1 0x40 MLOAD DUP1 SWAP2 SUB SWAP1 REVERT JUMPDEST PUSH1 0x0 PUSH2 0x591 PUSH2 0x966 JUMP JUMPDEST PUSH20 0xFFFFFFFFFFFFFFFFFFFFFFFFFFFFFFFFFFFFFFFF AND DUP3 PUSH1 0x40 MLOAD PUSH2 0x5B4 SWAP1 PUSH2 0x240C JUMP JUMPDEST PUSH1 0x0 PUSH1 0x40 MLOAD DUP1 DUP4 SUB DUP2 DUP6 DUP8 GAS CALL SWAP3 POP POP POP RETURNDATASIZE DUP1 PUSH1 0x0 DUP2 EQ PUSH2 0x5F1 JUMPI PUSH1 0x40 MLOAD SWAP2 POP PUSH1 0x1F NOT PUSH1 0x3F RETURNDATASIZE ADD AND DUP3 ADD PUSH1 0x40 MSTORE RETURNDATASIZE DUP3 MSTORE RETURNDATASIZE PUSH1 0x0 PUSH1 0x20 DUP5 ADD RETURNDATACOPY PUSH2 0x5F6 JUMP JUMPDEST PUSH1 0x60 SWAP2 POP JUMPDEST POP POP SWAP1 POP DUP1 PUSH2 0x63A JUMPI PUSH1 0x40 MLOAD PUSH32 0x8C379A000000000000000000000000000000000000000000000000000000000 DUP2 MSTORE PUSH1 0x4 ADD PUSH2 0x631 SWAP1 PUSH2 0x246D JUMP JUMPDEST PUSH1 0x40 MLOAD DUP1 SWAP2 SUB SWAP1 REVERT JUMPDEST PUSH2 0x642 PUSH2 0x966 JUMP JUMPDEST PUSH20 0xFFFFFFFFFFFFFFFFFFFFFFFFFFFFFFFFFFFFFFFF AND PUSH32 0xC0819C13BE868895EB93E40EACEB96DE976442FA1D404E5C55F14BB65A8C489A DUP4 PUSH1 0x40 MLOAD PUSH2 0x687 SWAP2 SWAP1 PUSH2 0x1C64 JUMP JUMPDEST PUSH1 0x40 MLOAD DUP1 SWAP2 SUB SWAP1 LOG2 POP POP JUMP JUMPDEST PUSH2 0x69B PUSH2 0x101A JUMP JUMPDEST PUSH1 0x0 PUSH1 0x4 PUSH1 0x0 DUP6 DUP2 MSTORE PUSH1 0x20 ADD SWAP1 DUP2 MSTORE PUSH1 0x20 ADD PUSH1 0x0 KECCAK256 SWAP1 POP CALLER PUSH20 0xFFFFFFFFFFFFFFFFFFFFFFFFFFFFFFFFFFFFFFFF AND DUP2 PUSH1 0x0 ADD PUSH1 0x0 SWAP1 SLOAD SWAP1 PUSH2 0x100 EXP SWAP1 DIV PUSH20 0xFFFFFFFFFFFFFFFFFFFFFFFFFFFFFFFFFFFFFFFF AND PUSH20 0xFFFFFFFFFFFFFFFFFFFFFFFFFFFFFFFFFFFFFFFF AND EQ PUSH2 0x744 JUMPI PUSH1 0x40 MLOAD PUSH32 0x8C379A000000000000000000000000000000000000000000000000000000000 DUP2 MSTORE PUSH1 0x4 ADD PUSH2 0x73B SWAP1 PUSH2 0x24D9 JUMP JUMPDEST PUSH1 0x40 MLOAD DUP1 SWAP2 SUB SWAP1 REVERT JUMPDEST PUSH1 0x0 PUSH1 0x2 DUP2 GT ISZERO PUSH2 0x758 JUMPI PUSH2 0x757 PUSH2 0x202C JUMP JUMPDEST JUMPDEST DUP2 PUSH1 0x7 ADD PUSH1 0x0 SWAP1 SLOAD SWAP1 PUSH2 0x100 EXP SWAP1 DIV PUSH1 0xFF AND PUSH1 0x2 DUP2 GT ISZERO PUSH2 0x77C JUMPI PUSH2 0x77B PUSH2 0x202C JUMP JUMPDEST JUMPDEST EQ PUSH2 0x7BC JUMPI PUSH1 0x40 MLOAD PUSH32 0x8C379A000000000000000000000000000000000000000000000000000000000 DUP2 MSTORE PUSH1 0x4 ADD PUSH2 0x7B3 SWAP1 PUSH2 0x2545 JUMP JUMPDEST PUSH1 0x40 MLOAD DUP1 SWAP2 SUB SWAP1 REVERT JUMPDEST PUSH2 0x7C7 DUP2 DUP5 DUP5 PUSH2 0x1060 JUMP JUMPDEST DUP4 CALLER PUSH20 0xFFFFFFFFFFFFFFFFFFFFFFFFFFFFFFFFFFFFFFFF AND PUSH32 0x2BC913790AB631EC32C90D78F72B9B8EF68289C2DCD586F7DA9C36B244A2ED4 DUP6 DUP6 MLOAD PUSH1 0x40 MLOAD PUSH2 0x811 SWAP3 SWAP2 SWAP1 PUSH2 0x2565 JUMP JUMPDEST PUSH1 0x40 MLOAD DUP1 SWAP2 SUB SWAP1 LOG3 POP PUSH2 0x822 PUSH2 0x10B6 JUMP JUMPDEST POP POP POP JUMP JUMPDEST PUSH2 0x82F PUSH2 0xF93 JUMP JUMPDEST PUSH2 0x839 PUSH1 0x0 PUSH2 0x10BF JUMP JUMPDEST JUMP JUMPDEST PUSH1 0x0 PUSH1 0x60 PUSH2 0x84C PUSH1 0x3 PUSH1 0x4 DUP6 PUSH2 0x1183 JUMP JUMPDEST SWAP2 POP SWAP2 POP SWAP2 POP SWAP2 JUMP JUMPDEST PUSH1 0x19 DUP2 JUMP JUMPDEST PUSH1 0x0 DUP1 PUSH1 0x0 DUP1 PUSH1 0x60 PUSH1 0x0 DUP1 PUSH1 0x4 PUSH1 0x0 DUP10 DUP2 MSTORE PUSH1 0x20 ADD SWAP1 DUP2 MSTORE PUSH1 0x20 ADD PUSH1 0x0 KECCAK256 SWAP1 POP DUP1 PUSH1 0x0 ADD PUSH1 0x0 SWAP1 SLOAD SWAP1 PUSH2 0x100 EXP SWAP1 DIV PUSH20 0xFFFFFFFFFFFFFFFFFFFFFFFFFFFFFFFFFFFFFFFF AND DUP2 PUSH1 0x3 ADD SLOAD DUP3 PUSH1 0x4 ADD SLOAD DUP4 PUSH1 0x5 ADD SLOAD DUP5 PUSH1 0x6 ADD DUP6 PUSH1 0x7 ADD PUSH1 0x0 SWAP1 SLOAD SWAP1 PUSH2 0x100 EXP SWAP1 DIV PUSH1 0xFF AND DUP2 DUP1 SLOAD PUSH2 0x8D0 SWAP1 PUSH2 0x25BD JUMP JUMPDEST DUP1 PUSH1 0x1F ADD PUSH1 0x20 DUP1 SWAP2 DIV MUL PUSH1 0x20 ADD PUSH1 0x40 MLOAD SWAP1 DUP2 ADD PUSH1 0x40 MSTORE DUP1 SWAP3 SWAP2 SWAP1 DUP2 DUP2 MSTORE PUSH1 0x20 ADD DUP3 DUP1 SLOAD PUSH2 0x8FC SWAP1 PUSH2 0x25BD JUMP JUMPDEST DUP1 ISZERO PUSH2 0x949 JUMPI DUP1 PUSH1 0x1F LT PUSH2 0x91E JUMPI PUSH2 0x100 DUP1 DUP4 SLOAD DIV MUL DUP4 MSTORE SWAP2 PUSH1 0x20 ADD SWAP2 PUSH2 0x949 JUMP JUMPDEST DUP3 ADD SWAP2 SWAP1 PUSH1 0x0 MSTORE PUSH1 0x20 PUSH1 0x0 KECCAK256 SWAP1 JUMPDEST DUP2 SLOAD DUP2 MSTORE SWAP1 PUSH1 0x1 ADD SWAP1 PUSH1 0x20 ADD DUP1 DUP4 GT PUSH2 0x92C JUMPI DUP3 SWAP1 SUB PUSH1 0x1F AND DUP3 ADD SWAP2 JUMPDEST POP POP POP POP POP SWAP2 POP SWAP7 POP SWAP7 POP SWAP7 POP SWAP7 POP SWAP7 POP SWAP7 POP POP SWAP2 SWAP4 SWAP6 POP SWAP2 SWAP4 SWAP6 JUMP JUMPDEST PUSH1 0x0 DUP1 PUSH1 0x0 SWAP1 SLOAD SWAP1 PUSH2 0x100 EXP SWAP1 DIV PUSH20 0xFFFFFFFFFFFFFFFFFFFFFFFFFFFFFFFFFFFFFFFF AND SWAP1 POP SWAP1 JUMP JUMPDEST PUSH2 0x997 PUSH2 0xF93 JUMP JUMPDEST PUSH1 0x0 PUSH20 0xFFFFFFFFFFFFFFFFFFFFFFFFFFFFFFFFFFFFFFFF AND DUP2 PUSH20 0xFFFFFFFFFFFFFFFFFFFFFFFFFFFFFFFFFFFFFFFF AND SUB PUSH2 0xA06 JUMPI PUSH1 0x40 MLOAD PUSH32 0x8C379A000000000000000000000000000000000000000000000000000000000 DUP2 MSTORE PUSH1 0x4 ADD PUSH2 0x9FD SWAP1 PUSH2 0x263A JUMP JUMPDEST PUSH1 0x40 MLOAD DUP1 SWAP2 SUB SWAP1 REVERT JUMPDEST PUSH1 0x0 DUP2 SWAP1 POP PUSH1 0x0 DUP2 PUSH20 0xFFFFFFFFFFFFFFFFFFFFFFFFFFFFFFFFFFFFFFFF AND PUSH4 0x70A08231 ADDRESS PUSH1 0x40 MLOAD DUP3 PUSH4 0xFFFFFFFF AND PUSH1 0xE0 SHL DUP2 MSTORE PUSH1 0x4 ADD PUSH2 0xA46 SWAP2 SWAP1 PUSH2 0x210B JUMP JUMPDEST PUSH1 0x20 PUSH1 0x40 MLOAD DUP1 DUP4 SUB DUP2 DUP7 GAS STATICCALL ISZERO DUP1 ISZERO PUSH2 0xA63 JUMPI RETURNDATASIZE PUSH1 0x0 DUP1 RETURNDATACOPY RETURNDATASIZE PUSH1 0x0 REVERT JUMPDEST POP POP POP POP PUSH1 0x40 MLOAD RETURNDATASIZE PUSH1 0x1F NOT PUSH1 0x1F DUP3 ADD AND DUP3 ADD DUP1 PUSH1 0x40 MSTORE POP DUP2 ADD SWAP1 PUSH2 0xA87 SWAP2 SWAP1 PUSH2 0x266F JUMP JUMPDEST SWAP1 POP PUSH1 0x0 DUP2 GT PUSH2 0xACC JUMPI PUSH1 0x40 MLOAD PUSH32 0x8C379A000000000000000000000000000000000000000000000000000000000 DUP2 MSTORE PUSH1 0x4 ADD PUSH2 0xAC3 SWAP1 PUSH2 0x26E8 JUMP JUMPDEST PUSH1 0x40 MLOAD DUP1 SWAP2 SUB SWAP1 REVERT JUMPDEST DUP2 PUSH20 0xFFFFFFFFFFFFFFFFFFFFFFFFFFFFFFFFFFFFFFFF AND PUSH4 0xA9059CBB PUSH2 0xAF0 PUSH2 0x966 JUMP JUMPDEST DUP4 PUSH1 0x40 MLOAD DUP4 PUSH4 0xFFFFFFFF AND PUSH1 0xE0 SHL DUP2 MSTORE PUSH1 0x4 ADD PUSH2 0xB0E SWAP3 SWAP2 SWAP1 PUSH2 0x2708 JUMP JUMPDEST PUSH1 0x20 PUSH1 0x40 MLOAD DUP1 DUP4 SUB DUP2 PUSH1 0x0 DUP8 GAS CALL ISZERO DUP1 ISZERO PUSH2 0xB2D JUMPI RETURNDATASIZE PUSH1 0x0 DUP1 RETURNDATACOPY RETURNDATASIZE PUSH1 0x0 REVERT JUMPDEST POP POP POP POP PUSH1 0x40 MLOAD RETURNDATASIZE PUSH1 0x1F NOT PUSH1 0x1F DUP3 ADD AND DUP3 ADD DUP1 PUSH1 0x40 MSTORE POP DUP2 ADD SWAP1 PUSH2 0xB51 SWAP2 SWAP1 PUSH2 0x2769 JUMP JUMPDEST PUSH2 0xB90 JUMPI PUSH1 0x40 MLOAD PUSH32 0x8C379A000000000000000000000000000000000000000000000000000000000 DUP2 MSTORE PUSH1 0x4 ADD PUSH2 0xB87 SWAP1 PUSH2 0x27E2 JUMP JUMPDEST PUSH1 0x40 MLOAD DUP1 SWAP2 SUB SWAP1 REVERT JUMPDEST POP POP POP JUMP JUMPDEST PUSH2 0xB9D PUSH2 0xF93 JUMP JUMPDEST PUSH1 0x0 PUSH1 0x2 SLOAD SWAP1 POP DUP2 PUSH1 0x2 DUP2 SWAP1 SSTORE POP PUSH32 0x75AEF5483B24548953E5E86DF155417EE9E1B8A174AD54F9C1A2211AB03822C2 DUP2 DUP4 PUSH1 0x40 MLOAD PUSH2 0xBDC SWAP3 SWAP2 SWAP1 PUSH2 0x2565 JUMP JUMPDEST PUSH1 0x40 MLOAD DUP1 SWAP2 SUB SWAP1 LOG1 POP POP JUMP JUMPDEST PUSH1 0x60 DUP1 PUSH1 0x60 DUP1 PUSH2 0xBFD PUSH1 0x3 PUSH1 0x4 DUP10 DUP10 DUP10 PUSH2 0x1311 JUMP JUMPDEST SWAP4 POP SWAP4 POP SWAP4 POP SWAP4 POP SWAP4 POP SWAP4 POP SWAP4 POP SWAP4 JUMP JUMPDEST PUSH1 0x0 PUSH2 0xC18 PUSH2 0x101A JUMP JUMPDEST PUSH1 0x2 SLOAD CALLVALUE LT ISZERO PUSH2 0xC5D JUMPI PUSH1 0x40 MLOAD PUSH32 0x8C379A000000000000000000000000000000000000000000000000000000000 DUP2 MSTORE PUSH1 0x4 ADD PUSH2 0xC54 SWAP1 PUSH2 0x284E JUMP JUMPDEST PUSH1 0x40 MLOAD DUP1 SWAP2 SUB SWAP1 REVERT JUMPDEST PUSH1 0x0 DUP1 PUSH2 0xC6D PUSH1 0x3 PUSH1 0x4 CALLER PUSH2 0x174B JUMP JUMPDEST SWAP2 POP SWAP2 POP DUP2 ISZERO PUSH2 0xCBC JUMPI DUP1 CALLER PUSH20 0xFFFFFFFFFFFFFFFFFFFFFFFFFFFFFFFFFFFFFFFF AND PUSH32 0xC8FEA8853B9A09335ACD8A7A289338CD416B10C98090B62AA8361950B866303D PUSH1 0x40 MLOAD PUSH1 0x40 MLOAD DUP1 SWAP2 SUB SWAP1 LOG3 JUMPDEST PUSH1 0x5 PUSH1 0x0 DUP2 SLOAD DUP1 SWAP3 SWAP2 SWAP1 PUSH2 0xCCF SWAP1 PUSH2 0x289D JUMP JUMPDEST SWAP2 SWAP1 POP SSTORE POP PUSH1 0x0 PUSH1 0x5 SLOAD SWAP1 POP PUSH2 0xCEA PUSH1 0x4 PUSH1 0x3 DUP4 CALLER DUP10 PUSH2 0x187B JUMP JUMPDEST PUSH2 0xCF7 PUSH1 0x6 PUSH1 0x7 CALLER PUSH2 0x1992 JUMP JUMPDEST DUP1 CALLER PUSH20 0xFFFFFFFFFFFFFFFFFFFFFFFFFFFFFFFFFFFFFFFF AND PUSH32 0xB93756CD05FBB5BDA0C87E5D77406D7B7E3649FE1327F6783B4E28BB5789D969 DUP8 PUSH1 0x40 MLOAD PUSH2 0xD3E SWAP2 SWAP1 PUSH2 0x28E5 JUMP JUMPDEST PUSH1 0x40 MLOAD DUP1 SWAP2 SUB SWAP1 LOG3 PUSH2 0xD51 PUSH1 0x2 SLOAD PUSH2 0x1AA1 JUMP JUMPDEST DUP1 SWAP4 POP POP POP POP PUSH2 0xD5F PUSH2 0x10B6 JUMP JUMPDEST SWAP2 SWAP1 POP JUMP JUMPDEST PUSH1 0x2 SLOAD DUP2 JUMP JUMPDEST PUSH1 0x0 PUSH1 0x60 PUSH1 0x0 DUP1 PUSH1 0x0 PUSH1 0x60 PUSH1 0x0 DUP1 PUSH1 0x4 PUSH1 0x0 DUP11 DUP2 MSTORE PUSH1 0x20 ADD SWAP1 DUP2 MSTORE PUSH1 0x20 ADD PUSH1 0x0 KECCAK256 SWAP1 POP DUP1 PUSH1 0x0 ADD PUSH1 0x0 SWAP1 SLOAD SWAP1 PUSH2 0x100 EXP SWAP1 DIV PUSH20 0xFFFFFFFFFFFFFFFFFFFFFFFFFFFFFFFFFFFFFFFF AND DUP2 PUSH1 0x2 ADD DUP3 PUSH1 0x3 ADD SLOAD DUP4 PUSH1 0x4 ADD SLOAD DUP5 PUSH1 0x5 ADD SLOAD DUP6 PUSH1 0x6 ADD DUP7 PUSH1 0x7 ADD PUSH1 0x0 SWAP1 SLOAD SWAP1 PUSH2 0x100 EXP SWAP1 DIV PUSH1 0xFF AND DUP6 DUP1 SLOAD PUSH2 0xDE7 SWAP1 PUSH2 0x25BD JUMP JUMPDEST DUP1 PUSH1 0x1F ADD PUSH1 0x20 DUP1 SWAP2 DIV MUL PUSH1 0x20 ADD PUSH1 0x40 MLOAD SWAP1 DUP2 ADD PUSH1 0x40 MSTORE DUP1 SWAP3 SWAP2 SWAP1 DUP2 DUP2 MSTORE PUSH1 0x20 ADD DUP3 DUP1 SLOAD PUSH2 0xE13 SWAP1 PUSH2 0x25BD JUMP JUMPDEST DUP1 ISZERO PUSH2 0xE60 JUMPI DUP1 PUSH1 0x1F LT PUSH2 0xE35 JUMPI PUSH2 0x100 DUP1 DUP4 SLOAD DIV MUL DUP4 MSTORE SWAP2 PUSH1 0x20 ADD SWAP2 PUSH2 0xE60 JUMP JUMPDEST DUP3 ADD SWAP2 SWAP1 PUSH1 0x0 MSTORE PUSH1 0x20 PUSH1 0x0 KECCAK256 SWAP1 JUMPDEST DUP2 SLOAD DUP2 MSTORE SWAP1 PUSH1 0x1 ADD SWAP1 PUSH1 0x20 ADD DUP1 DUP4 GT PUSH2 0xE43 JUMPI DUP3 SWAP1 SUB PUSH1 0x1F AND DUP3 ADD SWAP2 JUMPDEST POP POP POP POP POP SWAP6 POP DUP2 DUP1 SLOAD PUSH2 0xE73 SWAP1 PUSH2 0x25BD JUMP JUMPDEST DUP1 PUSH1 0x1F ADD PUSH1 0x20 DUP1 SWAP2 DIV MUL PUSH1 0x20 ADD PUSH1 0x40 MLOAD SWAP1 DUP2 ADD PUSH1 0x40 MSTORE DUP1 SWAP3 SWAP2 SWAP1 DUP2 DUP2 MSTORE PUSH1 0x20 ADD DUP3 DUP1 SLOAD PUSH2 0xE9F SWAP1 PUSH2 0x25BD JUMP JUMPDEST DUP1 ISZERO PUSH2 0xEEC JUMPI DUP1 PUSH1 0x1F LT PUSH2 0xEC1 JUMPI PUSH2 0x100 DUP1 DUP4 SLOAD DIV MUL DUP4 MSTORE SWAP2 PUSH1 0x20 ADD SWAP2 PUSH2 0xEEC JUMP JUMPDEST DUP3 ADD SWAP2 SWAP1 PUSH1 0x0 MSTORE PUSH1 0x20 PUSH1 0x0 KECCAK256 SWAP1 JUMPDEST DUP2 SLOAD DUP2 MSTORE SWAP1 PUSH1 0x1 ADD SWAP1 PUSH1 0x20 ADD DUP1 DUP4 GT PUSH2 0xECF JUMPI DUP3 SWAP1 SUB PUSH1 0x1F AND DUP3 ADD SWAP2 JUMPDEST POP POP POP POP POP SWAP2 POP SWAP8 POP SWAP8 POP SWAP8 POP SWAP8 POP SWAP8 POP SWAP8 POP SWAP8 POP POP SWAP2 SWAP4 SWAP6 SWAP8 SWAP1 SWAP3 SWAP5 SWAP7 POP JUMP JUMPDEST PUSH2 0xF15 PUSH2 0xF93 JUMP JUMPDEST PUSH1 0x0 PUSH20 0xFFFFFFFFFFFFFFFFFFFFFFFFFFFFFFFFFFFFFFFF AND DUP2 PUSH20 0xFFFFFFFFFFFFFFFFFFFFFFFFFFFFFFFFFFFFFFFF AND SUB PUSH2 0xF87 JUMPI PUSH1 0x0 PUSH1 0x40 MLOAD PUSH32 0x1E4FBDF700000000000000000000000000000000000000000000000000000000 DUP2 MSTORE PUSH1 0x4 ADD PUSH2 0xF7E SWAP2 SWAP1 PUSH2 0x210B JUMP JUMPDEST PUSH1 0x40 MLOAD DUP1 SWAP2 SUB SWAP1 REVERT JUMPDEST PUSH2 0xF90 DUP2 PUSH2 0x10BF JUMP JUMPDEST POP JUMP JUMPDEST PUSH2 0xF9B PUSH2 0x1B65 JUMP JUMPDEST PUSH20 0xFFFFFFFFFFFFFFFFFFFFFFFFFFFFFFFFFFFFFFFF AND PUSH2 0xFB9 PUSH2 0x966 JUMP JUMPDEST PUSH20 0xFFFFFFFFFFFFFFFFFFFFFFFFFFFFFFFFFFFFFFFF AND EQ PUSH2 0x1018 JUMPI PUSH2 0xFDC PUSH2 0x1B65 JUMP JUMPDEST PUSH1 0x40 MLOAD PUSH32 0x118CDAA700000000000000000000000000000000000000000000000000000000 DUP2 MSTORE PUSH1 0x4 ADD PUSH2 0x100F SWAP2 SWAP1 PUSH2 0x210B JUMP JUMPDEST PUSH1 0x40 MLOAD DUP1 SWAP2 SUB SWAP1 REVERT JUMPDEST JUMP JUMPDEST PUSH1 0x2 PUSH1 0x1 SLOAD SUB PUSH2 0x1056 JUMPI PUSH1 0x40 MLOAD PUSH32 0x3EE5AEB500000000000000000000000000000000000000000000000000000000 DUP2 MSTORE PUSH1 0x4 ADD PUSH1 0x40 MLOAD DUP1 SWAP2 SUB SWAP1 REVERT JUMPDEST PUSH1 0x2 PUSH1 0x1 DUP2 SWAP1 SSTORE POP JUMP JUMPDEST DUP2 DUP4 PUSH1 0x5 ADD DUP2 SWAP1 SSTORE POP DUP1 DUP4 PUSH1 0x6 ADD SWAP1 DUP2 PUSH2 0x107A SWAP2 SWAP1 PUSH2 0x2AB3 JUMP JUMPDEST POP TIMESTAMP DUP4 PUSH1 0x4 ADD DUP2 SWAP1 SSTORE POP PUSH1 0x1 DUP4 PUSH1 0x7 ADD PUSH1 0x0 PUSH2 0x100 EXP DUP2 SLOAD DUP2 PUSH1 0xFF MUL NOT AND SWAP1 DUP4 PUSH1 0x2 DUP2 GT ISZERO PUSH2 0x10AC JUMPI PUSH2 0x10AB PUSH2 0x202C JUMP JUMPDEST JUMPDEST MUL OR SWAP1 SSTORE POP POP POP POP JUMP JUMPDEST PUSH1 0x1 DUP1 DUP2 SWAP1 SSTORE POP JUMP JUMPDEST PUSH1 0x0 DUP1 PUSH1 0x0 SWAP1 SLOAD SWAP1 PUSH2 0x100 EXP SWAP1 DIV PUSH20 0xFFFFFFFFFFFFFFFFFFFFFFFFFFFFFFFFFFFFFFFF AND SWAP1 POP DUP2 PUSH1 0x0 DUP1 PUSH2 0x100 EXP DUP2 SLOAD DUP2 PUSH20 0xFFFFFFFFFFFFFFFFFFFFFFFFFFFFFFFFFFFFFFFF MUL NOT AND SWAP1 DUP4 PUSH20 0xFFFFFFFFFFFFFFFFFFFFFFFFFFFFFFFFFFFFFFFF AND MUL OR SWAP1 SSTORE POP DUP2 PUSH20 0xFFFFFFFFFFFFFFFFFFFFFFFFFFFFFFFFFFFFFFFF AND DUP2 PUSH20 0xFFFFFFFFFFFFFFFFFFFFFFFFFFFFFFFFFFFFFFFF AND PUSH32 0x8BE0079C531659141344CD1FD0A4F28419497F9722A3DAAFE3B4186F6B6457E0 PUSH1 0x40 MLOAD PUSH1 0x40 MLOAD DUP1 SWAP2 SUB SWAP1 LOG3 POP POP JUMP JUMPDEST PUSH1 0x0 PUSH1 0x60 PUSH1 0x0 DUP6 PUSH1 0x0 DUP6 PUSH20 0xFFFFFFFFFFFFFFFFFFFFFFFFFFFFFFFFFFFFFFFF AND PUSH20 0xFFFFFFFFFFFFFFFFFFFFFFFFFFFFFFFFFFFFFFFF AND DUP2 MSTORE PUSH1 0x20 ADD SWAP1 DUP2 MSTORE PUSH1 0x20 ADD PUSH1 0x0 KECCAK256 SWAP1 POP PUSH1 0x0 DUP2 DUP1 SLOAD SWAP1 POP SUB PUSH2 0x11DF JUMPI PUSH1 0x0 SWAP3 POP POP PUSH2 0x1309 JUMP JUMPDEST PUSH1 0x0 DUP2 PUSH1 0x1 DUP4 DUP1 SLOAD SWAP1 POP PUSH2 0x11F3 SWAP2 SWAP1 PUSH2 0x2B85 JUMP JUMPDEST DUP2 SLOAD DUP2 LT PUSH2 0x1204 JUMPI PUSH2 0x1203 PUSH2 0x2BB9 JUMP JUMPDEST JUMPDEST SWAP1 PUSH1 0x0 MSTORE PUSH1 0x20 PUSH1 0x0 KECCAK256 ADD SLOAD SWAP1 POP PUSH1 0x0 DUP7 PUSH1 0x0 DUP4 DUP2 MSTORE PUSH1 0x20 ADD SWAP1 DUP2 MSTORE PUSH1 0x20 ADD PUSH1 0x0 KECCAK256 SWAP1 POP PUSH1 0x0 PUSH1 0x2 DUP2 GT ISZERO PUSH2 0x123B JUMPI PUSH2 0x123A PUSH2 0x202C JUMP JUMPDEST JUMPDEST DUP2 PUSH1 0x7 ADD PUSH1 0x0 SWAP1 SLOAD SWAP1 PUSH2 0x100 EXP SWAP1 DIV PUSH1 0xFF AND PUSH1 0x2 DUP2 GT ISZERO PUSH2 0x125F JUMPI PUSH2 0x125E PUSH2 0x202C JUMP JUMPDEST JUMPDEST SUB PUSH2 0x1301 JUMPI DUP2 DUP2 PUSH1 0x2 ADD DUP1 DUP1 SLOAD PUSH2 0x1275 SWAP1 PUSH2 0x25BD JUMP JUMPDEST DUP1 PUSH1 0x1F ADD PUSH1 0x20 DUP1 SWAP2 DIV MUL PUSH1 0x20 ADD PUSH1 0x40 MLOAD SWAP1 DUP2 ADD PUSH1 0x40 MSTORE DUP1 SWAP3 SWAP2 SWAP1 DUP2 DUP2 MSTORE PUSH1 0x20 ADD DUP3 DUP1 SLOAD PUSH2 0x12A1 SWAP1 PUSH2 0x25BD JUMP JUMPDEST DUP1 ISZERO PUSH2 0x12EE JUMPI DUP1 PUSH1 0x1F LT PUSH2 0x12C3 JUMPI PUSH2 0x100 DUP1 DUP4 SLOAD DIV MUL DUP4 MSTORE SWAP2 PUSH1 0x20 ADD SWAP2 PUSH2 0x12EE JUMP JUMPDEST DUP3 ADD SWAP2 SWAP1 PUSH1 0x0 MSTORE PUSH1 0x20 PUSH1 0x0 KECCAK256 SWAP1 JUMPDEST DUP2 SLOAD DUP2 MSTORE SWAP1 PUSH1 0x1 ADD SWAP1 PUSH1 0x20 ADD DUP1 DUP4 GT PUSH2 0x12D1 JUMPI DUP3 SWAP1 SUB PUSH1 0x1F AND DUP3 ADD SWAP2 JUMPDEST POP POP POP POP POP SWAP1 POP SWAP5 POP SWAP5 POP POP POP POP PUSH2 0x1309 JUMP JUMPDEST PUSH1 0x0 SWAP5 POP POP POP POP JUMPDEST SWAP4 POP SWAP4 SWAP2 POP POP JUMP JUMPDEST PUSH1 0x60 DUP1 PUSH1 0x60 DUP1 PUSH1 0x0 DUP10 PUSH1 0x0 DUP10 PUSH20 0xFFFFFFFFFFFFFFFFFFFFFFFFFFFFFFFFFFFFFFFF AND PUSH20 0xFFFFFFFFFFFFFFFFFFFFFFFFFFFFFFFFFFFFFFFF AND DUP2 MSTORE PUSH1 0x20 ADD SWAP1 DUP2 MSTORE PUSH1 0x20 ADD PUSH1 0x0 KECCAK256 SWAP1 POP PUSH1 0x0 DUP2 DUP1 SLOAD SWAP1 POP SWAP1 POP DUP1 DUP8 LT PUSH2 0x14A0 JUMPI PUSH1 0x0 PUSH8 0xFFFFFFFFFFFFFFFF DUP2 GT ISZERO PUSH2 0x1384 JUMPI PUSH2 0x1383 PUSH2 0x1DA7 JUMP JUMPDEST JUMPDEST PUSH1 0x40 MLOAD SWAP1 DUP1 DUP3 MSTORE DUP1 PUSH1 0x20 MUL PUSH1 0x20 ADD DUP3 ADD PUSH1 0x40 MSTORE DUP1 ISZERO PUSH2 0x13B2 JUMPI DUP2 PUSH1 0x20 ADD PUSH1 0x20 DUP3 MUL DUP1 CALLDATASIZE DUP4 CALLDATACOPY DUP1 DUP3 ADD SWAP2 POP POP SWAP1 POP JUMPDEST POP PUSH1 0x0 PUSH8 0xFFFFFFFFFFFFFFFF DUP2 GT ISZERO PUSH2 0x13CE JUMPI PUSH2 0x13CD PUSH2 0x1DA7 JUMP JUMPDEST JUMPDEST PUSH1 0x40 MLOAD SWAP1 DUP1 DUP3 MSTORE DUP1 PUSH1 0x20 MUL PUSH1 0x20 ADD DUP3 ADD PUSH1 0x40 MSTORE DUP1 ISZERO PUSH2 0x13FC JUMPI DUP2 PUSH1 0x20 ADD PUSH1 0x20 DUP3 MUL DUP1 CALLDATASIZE DUP4 CALLDATACOPY DUP1 DUP3 ADD SWAP2 POP POP SWAP1 POP JUMPDEST POP PUSH1 0x0 PUSH8 0xFFFFFFFFFFFFFFFF DUP2 GT ISZERO PUSH2 0x1418 JUMPI PUSH2 0x1417 PUSH2 0x1DA7 JUMP JUMPDEST JUMPDEST PUSH1 0x40 MLOAD SWAP1 DUP1 DUP3 MSTORE DUP1 PUSH1 0x20 MUL PUSH1 0x20 ADD DUP3 ADD PUSH1 0x40 MSTORE DUP1 ISZERO PUSH2 0x1446 JUMPI DUP2 PUSH1 0x20 ADD PUSH1 0x20 DUP3 MUL DUP1 CALLDATASIZE DUP4 CALLDATACOPY DUP1 DUP3 ADD SWAP2 POP POP SWAP1 POP JUMPDEST POP PUSH1 0x0 PUSH8 0xFFFFFFFFFFFFFFFF DUP2 GT ISZERO PUSH2 0x1462 JUMPI PUSH2 0x1461 PUSH2 0x1DA7 JUMP JUMPDEST JUMPDEST PUSH1 0x40 MLOAD SWAP1 DUP1 DUP3 MSTORE DUP1 PUSH1 0x20 MUL PUSH1 0x20 ADD DUP3 ADD PUSH1 0x40 MSTORE DUP1 ISZERO PUSH2 0x1490 JUMPI DUP2 PUSH1 0x20 ADD PUSH1 0x20 DUP3 MUL DUP1 CALLDATASIZE DUP4 CALLDATACOPY DUP1 DUP3 ADD SWAP2 POP POP SWAP1 POP JUMPDEST POP SWAP6 POP SWAP6 POP SWAP6 POP SWAP6 POP POP POP PUSH2 0x173F JUMP JUMPDEST PUSH1 0x0 DUP8 DUP3 PUSH2 0x14AE SWAP2 SWAP1 PUSH2 0x2B85 JUMP JUMPDEST SWAP1 POP PUSH1 0x0 DUP10 DUP3 LT PUSH2 0x14BF JUMPI DUP10 PUSH2 0x14C1 JUMP JUMPDEST DUP2 JUMPDEST SWAP1 POP DUP1 PUSH8 0xFFFFFFFFFFFFFFFF DUP2 GT ISZERO PUSH2 0x14DD JUMPI PUSH2 0x14DC PUSH2 0x1DA7 JUMP JUMPDEST JUMPDEST PUSH1 0x40 MLOAD SWAP1 DUP1 DUP3 MSTORE DUP1 PUSH1 0x20 MUL PUSH1 0x20 ADD DUP3 ADD PUSH1 0x40 MSTORE DUP1 ISZERO PUSH2 0x150B JUMPI DUP2 PUSH1 0x20 ADD PUSH1 0x20 DUP3 MUL DUP1 CALLDATASIZE DUP4 CALLDATACOPY DUP1 DUP3 ADD SWAP2 POP POP SWAP1 POP JUMPDEST POP SWAP8 POP DUP1 PUSH8 0xFFFFFFFFFFFFFFFF DUP2 GT ISZERO PUSH2 0x1528 JUMPI PUSH2 0x1527 PUSH2 0x1DA7 JUMP JUMPDEST JUMPDEST PUSH1 0x40 MLOAD SWAP1 DUP1 DUP3 MSTORE DUP1 PUSH1 0x20 MUL PUSH1 0x20 ADD DUP3 ADD PUSH1 0x40 MSTORE DUP1 ISZERO PUSH2 0x1556 JUMPI DUP2 PUSH1 0x20 ADD PUSH1 0x20 DUP3 MUL DUP1 CALLDATASIZE DUP4 CALLDATACOPY DUP1 DUP3 ADD SWAP2 POP POP SWAP1 POP JUMPDEST POP SWAP7 POP DUP1 PUSH8 0xFFFFFFFFFFFFFFFF DUP2 GT ISZERO PUSH2 0x1573 JUMPI PUSH2 0x1572 PUSH2 0x1DA7 JUMP JUMPDEST JUMPDEST PUSH1 0x40 MLOAD SWAP1 DUP1 DUP3 MSTORE DUP1 PUSH1 0x20 MUL PUSH1 0x20 ADD DUP3 ADD PUSH1 0x40 MSTORE DUP1 ISZERO PUSH2 0x15A1 JUMPI DUP2 PUSH1 0x20 ADD PUSH1 0x20 DUP3 MUL DUP1 CALLDATASIZE DUP4 CALLDATACOPY DUP1 DUP3 ADD SWAP2 POP POP SWAP1 POP JUMPDEST POP SWAP6 POP DUP1 PUSH8 0xFFFFFFFFFFFFFFFF DUP2 GT ISZERO PUSH2 0x15BE JUMPI PUSH2 0x15BD PUSH2 0x1DA7 JUMP JUMPDEST JUMPDEST PUSH1 0x40 MLOAD SWAP1 DUP1 DUP3 MSTORE DUP1 PUSH1 0x20 MUL PUSH1 0x20 ADD DUP3 ADD PUSH1 0x40 MSTORE DUP1 ISZERO PUSH2 0x15EC JUMPI DUP2 PUSH1 0x20 ADD PUSH1 0x20 DUP3 MUL DUP1 CALLDATASIZE DUP4 CALLDATACOPY DUP1 DUP3 ADD SWAP2 POP POP SWAP1 POP JUMPDEST POP SWAP5 POP PUSH1 0x0 JUMPDEST DUP2 DUP2 LT ISZERO PUSH2 0x1739 JUMPI PUSH1 0x0 DUP6 DUP3 DUP13 PUSH1 0x1 DUP9 PUSH2 0x160C SWAP2 SWAP1 PUSH2 0x2B85 JUMP JUMPDEST PUSH2 0x1616 SWAP2 SWAP1 PUSH2 0x2B85 JUMP JUMPDEST PUSH2 0x1620 SWAP2 SWAP1 PUSH2 0x2B85 JUMP JUMPDEST DUP2 SLOAD DUP2 LT PUSH2 0x1631 JUMPI PUSH2 0x1630 PUSH2 0x2BB9 JUMP JUMPDEST JUMPDEST SWAP1 PUSH1 0x0 MSTORE PUSH1 0x20 PUSH1 0x0 KECCAK256 ADD SLOAD SWAP1 POP PUSH1 0x0 DUP15 PUSH1 0x0 DUP4 DUP2 MSTORE PUSH1 0x20 ADD SWAP1 DUP2 MSTORE PUSH1 0x20 ADD PUSH1 0x0 KECCAK256 SWAP1 POP DUP2 DUP12 DUP5 DUP2 MLOAD DUP2 LT PUSH2 0x1668 JUMPI PUSH2 0x1667 PUSH2 0x2BB9 JUMP JUMPDEST JUMPDEST PUSH1 0x20 MUL PUSH1 0x20 ADD ADD DUP2 DUP2 MSTORE POP POP DUP1 PUSH1 0x5 ADD SLOAD DUP11 DUP5 DUP2 MLOAD DUP2 LT PUSH2 0x168C JUMPI PUSH2 0x168B PUSH2 0x2BB9 JUMP JUMPDEST JUMPDEST PUSH1 0x20 MUL PUSH1 0x20 ADD ADD DUP2 DUP2 MSTORE POP POP PUSH1 0x0 DUP2 PUSH1 0x4 ADD SLOAD GT PUSH2 0x16AE JUMPI DUP1 PUSH1 0x3 ADD SLOAD PUSH2 0x16B4 JUMP JUMPDEST DUP1 PUSH1 0x4 ADD SLOAD JUMPDEST DUP10 DUP5 DUP2 MLOAD DUP2 LT PUSH2 0x16C7 JUMPI PUSH2 0x16C6 PUSH2 0x2BB9 JUMP JUMPDEST JUMPDEST PUSH1 0x20 MUL PUSH1 0x20 ADD ADD DUP2 DUP2 MSTORE POP POP DUP1 PUSH1 0x7 ADD PUSH1 0x0 SWAP1 SLOAD SWAP1 PUSH2 0x100 EXP SWAP1 DIV PUSH1 0xFF AND DUP9 DUP5 DUP2 MLOAD DUP2 LT PUSH2 0x16F8 JUMPI PUSH2 0x16F7 PUSH2 0x2BB9 JUMP JUMPDEST JUMPDEST PUSH1 0x20 MUL PUSH1 0x20 ADD ADD SWAP1 PUSH1 0x2 DUP2 GT ISZERO PUSH2 0x1712 JUMPI PUSH2 0x1711 PUSH2 0x202C JUMP JUMPDEST JUMPDEST SWAP1 DUP2 PUSH1 0x2 DUP2 GT ISZERO PUSH2 0x1726 JUMPI PUSH2 0x1725 PUSH2 0x202C JUMP JUMPDEST JUMPDEST DUP2 MSTORE POP POP POP POP DUP1 DUP1 PUSH1 0x1 ADD SWAP2 POP POP PUSH2 0x15F2 JUMP JUMPDEST POP POP POP POP POP JUMPDEST SWAP6 POP SWAP6 POP SWAP6 POP SWAP6 SWAP2 POP POP JUMP JUMPDEST PUSH1 0x0 DUP1 PUSH1 0x0 DUP6 PUSH1 0x0 DUP6 PUSH20 0xFFFFFFFFFFFFFFFFFFFFFFFFFFFFFFFFFFFFFFFF AND PUSH20 0xFFFFFFFFFFFFFFFFFFFFFFFFFFFFFFFFFFFFFFFF AND DUP2 MSTORE PUSH1 0x20 ADD SWAP1 DUP2 MSTORE PUSH1 0x20 ADD PUSH1 0x0 KECCAK256 SWAP1 POP PUSH1 0x0 DUP2 DUP1 SLOAD SWAP1 POP GT ISZERO PUSH2 0x186A JUMPI PUSH1 0x0 DUP2 PUSH1 0x1 DUP4 DUP1 SLOAD SWAP1 POP PUSH2 0x17B1 SWAP2 SWAP1 PUSH2 0x2B85 JUMP JUMPDEST DUP2 SLOAD DUP2 LT PUSH2 0x17C2 JUMPI PUSH2 0x17C1 PUSH2 0x2BB9 JUMP JUMPDEST JUMPDEST SWAP1 PUSH1 0x0 MSTORE PUSH1 0x20 PUSH1 0x0 KECCAK256 ADD SLOAD SWAP1 POP PUSH1 0x0 DUP7 PUSH1 0x0 DUP4 DUP2 MSTORE PUSH1 0x20 ADD SWAP1 DUP2 MSTORE PUSH1 0x20 ADD PUSH1 0x0 KECCAK256 SWAP1 POP PUSH1 0x0 PUSH1 0x2 DUP2 GT ISZERO PUSH2 0x17F9 JUMPI PUSH2 0x17F8 PUSH2 0x202C JUMP JUMPDEST JUMPDEST DUP2 PUSH1 0x7 ADD PUSH1 0x0 SWAP1 SLOAD SWAP1 PUSH2 0x100 EXP SWAP1 DIV PUSH1 0xFF AND PUSH1 0x2 DUP2 GT ISZERO PUSH2 0x181D JUMPI PUSH2 0x181C PUSH2 0x202C JUMP JUMPDEST JUMPDEST SUB PUSH2 0x1867 JUMPI PUSH1 0x2 DUP2 PUSH1 0x7 ADD PUSH1 0x0 PUSH2 0x100 EXP DUP2 SLOAD DUP2 PUSH1 0xFF MUL NOT AND SWAP1 DUP4 PUSH1 0x2 DUP2 GT ISZERO PUSH2 0x184A JUMPI PUSH2 0x1849 PUSH2 0x202C JUMP JUMPDEST JUMPDEST MUL OR SWAP1 SSTORE POP TIMESTAMP DUP2 PUSH1 0x4 ADD DUP2 SWAP1 SSTORE POP PUSH1 0x1 DUP3 SWAP5 POP SWAP5 POP POP POP POP PUSH2 0x1873 JUMP JUMPDEST POP POP JUMPDEST PUSH1 0x0 DUP1 SWAP3 POP SWAP3 POP POP JUMPDEST SWAP4 POP SWAP4 SWAP2 POP POP JUMP JUMPDEST PUSH1 0x0 DUP6 PUSH1 0x0 DUP6 DUP2 MSTORE PUSH1 0x20 ADD SWAP1 DUP2 MSTORE PUSH1 0x20 ADD PUSH1 0x0 KECCAK256 SWAP1 POP DUP3 DUP2 PUSH1 0x0 ADD PUSH1 0x0 PUSH2 0x100 EXP DUP2 SLOAD DUP2 PUSH20 0xFFFFFFFFFFFFFFFFFFFFFFFFFFFFFFFFFFFFFFFF MUL NOT AND SWAP1 DUP4 PUSH20 0xFFFFFFFFFFFFFFFFFFFFFFFFFFFFFFFFFFFFFFFF AND MUL OR SWAP1 SSTORE POP DUP4 DUP2 PUSH1 0x1 ADD DUP2 SWAP1 SSTORE POP DUP2 DUP2 PUSH1 0x2 ADD SWAP1 DUP2 PUSH2 0x18EE SWAP2 SWAP1 PUSH2 0x2AB3 JUMP JUMPDEST POP TIMESTAMP DUP2 PUSH1 0x3 ADD DUP2 SWAP1 SSTORE POP PUSH1 0x0 DUP2 PUSH1 0x7 ADD PUSH1 0x0 PUSH2 0x100 EXP DUP2 SLOAD DUP2 PUSH1 0xFF MUL NOT AND SWAP1 DUP4 PUSH1 0x2 DUP2 GT ISZERO PUSH2 0x1920 JUMPI PUSH2 0x191F PUSH2 0x202C JUMP JUMPDEST JUMPDEST MUL OR SWAP1 SSTORE POP DUP5 PUSH1 0x0 DUP5 PUSH20 0xFFFFFFFFFFFFFFFFFFFFFFFFFFFFFFFFFFFFFFFF AND PUSH20 0xFFFFFFFFFFFFFFFFFFFFFFFFFFFFFFFFFFFFFFFF AND DUP2 MSTORE PUSH1 0x20 ADD SWAP1 DUP2 MSTORE PUSH1 0x20 ADD PUSH1 0x0 KECCAK256 DUP5 SWAP1 DUP1 PUSH1 0x1 DUP2 SLOAD ADD DUP1 DUP3 SSTORE DUP1 SWAP2 POP POP PUSH1 0x1 SWAP1 SUB SWAP1 PUSH1 0x0 MSTORE PUSH1 0x20 PUSH1 0x0 KECCAK256 ADD PUSH1 0x0 SWAP1 SWAP2 SWAP1 SWAP2 SWAP1 SWAP2 POP SSTORE POP POP POP POP POP POP JUMP JUMPDEST DUP2 PUSH1 0x0 DUP3 PUSH20 0xFFFFFFFFFFFFFFFFFFFFFFFFFFFFFFFFFFFFFFFF AND PUSH20 0xFFFFFFFFFFFFFFFFFFFFFFFFFFFFFFFFFFFFFFFF AND DUP2 MSTORE PUSH1 0x20 ADD SWAP1 DUP2 MSTORE PUSH1 0x20 ADD PUSH1 0x0 KECCAK256 PUSH1 0x0 SWAP1 SLOAD SWAP1 PUSH2 0x100 EXP SWAP1 DIV PUSH1 0xFF AND PUSH2 0x1A9C JUMPI DUP3 DUP2 SWAP1 DUP1 PUSH1 0x1 DUP2 SLOAD ADD DUP1 DUP3 SSTORE DUP1 SWAP2 POP POP PUSH1 0x1 SWAP1 SUB SWAP1 PUSH1 0x0 MSTORE PUSH1 0x20 PUSH1 0x0 KECCAK256 ADD PUSH1 0x0 SWAP1 SWAP2 SWAP1 SWAP2 SWAP1 SWAP2 PUSH2 0x100 EXP DUP2 SLOAD DUP2 PUSH20 0xFFFFFFFFFFFFFFFFFFFFFFFFFFFFFFFFFFFFFFFF MUL NOT AND SWAP1 DUP4 PUSH20 0xFFFFFFFFFFFFFFFFFFFFFFFFFFFFFFFFFFFFFFFF AND MUL OR SWAP1 SSTORE POP PUSH1 0x1 DUP3 PUSH1 0x0 DUP4 PUSH20 0xFFFFFFFFFFFFFFFFFFFFFFFFFFFFFFFFFFFFFFFF AND PUSH20 0xFFFFFFFFFFFFFFFFFFFFFFFFFFFFFFFFFFFFFFFF AND DUP2 MSTORE PUSH1 0x20 ADD SWAP1 DUP2 MSTORE PUSH1 0x20 ADD PUSH1 0x0 KECCAK256 PUSH1 0x0 PUSH2 0x100 EXP DUP2 SLOAD DUP2 PUSH1 0xFF MUL NOT AND SWAP1 DUP4 ISZERO ISZERO MUL OR SWAP1 SSTORE POP JUMPDEST POP POP POP JUMP JUMPDEST DUP1 CALLVALUE GT ISZERO PUSH2 0x1B62 JUMPI PUSH1 0x0 CALLER PUSH20 0xFFFFFFFFFFFFFFFFFFFFFFFFFFFFFFFFFFFFFFFF AND DUP3 CALLVALUE PUSH2 0x1ACE SWAP2 SWAP1 PUSH2 0x2B85 JUMP JUMPDEST PUSH1 0x40 MLOAD PUSH2 0x1ADA SWAP1 PUSH2 0x240C JUMP JUMPDEST PUSH1 0x0 PUSH1 0x40 MLOAD DUP1 DUP4 SUB DUP2 DUP6 DUP8 GAS CALL SWAP3 POP POP POP RETURNDATASIZE DUP1 PUSH1 0x0 DUP2 EQ PUSH2 0x1B17 JUMPI PUSH1 0x40 MLOAD SWAP2 POP PUSH1 0x1F NOT PUSH1 0x3F RETURNDATASIZE ADD AND DUP3 ADD PUSH1 0x40 MSTORE RETURNDATASIZE DUP3 MSTORE RETURNDATASIZE PUSH1 0x0 PUSH1 0x20 DUP5 ADD RETURNDATACOPY PUSH2 0x1B1C JUMP JUMPDEST PUSH1 0x60 SWAP2 POP JUMPDEST POP POP SWAP1 POP DUP1 PUSH2 0x1B60 JUMPI PUSH1 0x40 MLOAD PUSH32 0x8C379A000000000000000000000000000000000000000000000000000000000 DUP2 MSTORE PUSH1 0x4 ADD PUSH2 0x1B57 SWAP1 PUSH2 0x2C34 JUMP JUMPDEST PUSH1 0x40 MLOAD DUP1 SWAP2 SUB SWAP1 REVERT JUMPDEST POP JUMPDEST POP JUMP JUMPDEST PUSH1 0x0 CALLER SWAP1 POP SWAP1 JUMP JUMPDEST PUSH1 0x0 PUSH1 0x40 MLOAD SWAP1 POP SWAP1 JUMP JUMPDEST PUSH1 0x0 DUP1 REVERT JUMPDEST PUSH1 0x0 DUP1 REVERT JUMPDEST PUSH1 0x0 PUSH20 0xFFFFFFFFFFFFFFFFFFFFFFFFFFFFFFFFFFFFFFFF DUP3 AND SWAP1 POP SWAP2 SWAP1 POP JUMP JUMPDEST PUSH1 0x0 PUSH2 0x1BAC DUP3 PUSH2 0x1B81 JUMP JUMPDEST SWAP1 POP SWAP2 SWAP1 POP JUMP JUMPDEST PUSH2 0x1BBC DUP2 PUSH2 0x1BA1 JUMP JUMPDEST DUP2 EQ PUSH2 0x1BC7 JUMPI PUSH1 0x0 DUP1 REVERT JUMPDEST POP JUMP JUMPDEST PUSH1 0x0 DUP2 CALLDATALOAD SWAP1 POP PUSH2 0x1BD9 DUP2 PUSH2 0x1BB3 JUMP JUMPDEST SWAP3 SWAP2 POP POP JUMP JUMPDEST PUSH1 0x0 DUP2 SWAP1 POP SWAP2 SWAP1 POP JUMP JUMPDEST PUSH2 0x1BF2 DUP2 PUSH2 0x1BDF JUMP JUMPDEST DUP2 EQ PUSH2 0x1BFD JUMPI PUSH1 0x0 DUP1 REVERT JUMPDEST POP JUMP JUMPDEST PUSH1 0x0 DUP2 CALLDATALOAD SWAP1 POP PUSH2 0x1C0F DUP2 PUSH2 0x1BE9 JUMP JUMPDEST SWAP3 SWAP2 POP POP JUMP JUMPDEST PUSH1 0x0 DUP1 PUSH1 0x40 DUP4 DUP6 SUB SLT ISZERO PUSH2 0x1C2C JUMPI PUSH2 0x1C2B PUSH2 0x1B77 JUMP JUMPDEST JUMPDEST PUSH1 0x0 PUSH2 0x1C3A DUP6 DUP3 DUP7 ADD PUSH2 0x1BCA JUMP JUMPDEST SWAP3 POP POP PUSH1 0x20 PUSH2 0x1C4B DUP6 DUP3 DUP7 ADD PUSH2 0x1C00 JUMP JUMPDEST SWAP2 POP POP SWAP3 POP SWAP3 SWAP1 POP JUMP JUMPDEST PUSH2 0x1C5E DUP2 PUSH2 0x1BDF JUMP JUMPDEST DUP3 MSTORE POP POP JUMP JUMPDEST PUSH1 0x0 PUSH1 0x20 DUP3 ADD SWAP1 POP PUSH2 0x1C79 PUSH1 0x0 DUP4 ADD DUP5 PUSH2 0x1C55 JUMP JUMPDEST SWAP3 SWAP2 POP POP JUMP JUMPDEST PUSH1 0x0 PUSH1 0x20 DUP3 DUP5 SUB SLT ISZERO PUSH2 0x1C95 JUMPI PUSH2 0x1C94 PUSH2 0x1B77 JUMP JUMPDEST JUMPDEST PUSH1 0x0 PUSH2 0x1CA3 DUP5 DUP3 DUP6 ADD PUSH2 0x1BCA JUMP JUMPDEST SWAP2 POP POP SWAP3 SWAP2 POP POP JUMP JUMPDEST PUSH1 0x0 DUP2 MLOAD SWAP1 POP SWAP2 SWAP1 POP JUMP JUMPDEST PUSH1 0x0 DUP3 DUP3 MSTORE PUSH1 0x20 DUP3 ADD SWAP1 POP SWAP3 SWAP2 POP POP JUMP JUMPDEST PUSH1 0x0 DUP2 SWAP1 POP PUSH1 0x20 DUP3 ADD SWAP1 POP SWAP2 SWAP1 POP JUMP JUMPDEST PUSH2 0x1CE1 DUP2 PUSH2 0x1BDF JUMP JUMPDEST DUP3 MSTORE POP POP JUMP JUMPDEST PUSH1 0x0 PUSH2 0x1CF3 DUP4 DUP4 PUSH2 0x1CD8 JUMP JUMPDEST PUSH1 0x20 DUP4 ADD SWAP1 POP SWAP3 SWAP2 POP POP JUMP JUMPDEST PUSH1 0x0 PUSH1 0x20 DUP3 ADD SWAP1 POP SWAP2 SWAP1 POP JUMP JUMPDEST PUSH1 0x0 PUSH2 0x1D17 DUP3 PUSH2 0x1CAC JUMP JUMPDEST PUSH2 0x1D21 DUP2 DUP6 PUSH2 0x1CB7 JUMP JUMPDEST SWAP4 POP PUSH2 0x1D2C DUP4 PUSH2 0x1CC8 JUMP JUMPDEST DUP1 PUSH1 0x0 JUMPDEST DUP4 DUP2 LT ISZERO PUSH2 0x1D5D JUMPI DUP2 MLOAD PUSH2 0x1D44 DUP9 DUP3 PUSH2 0x1CE7 JUMP JUMPDEST SWAP8 POP PUSH2 0x1D4F DUP4 PUSH2 0x1CFF JUMP JUMPDEST SWAP3 POP POP PUSH1 0x1 DUP2 ADD SWAP1 POP PUSH2 0x1D30 JUMP JUMPDEST POP DUP6 SWAP4 POP POP POP POP SWAP3 SWAP2 POP POP JUMP JUMPDEST PUSH1 0x0 PUSH1 0x20 DUP3 ADD SWAP1 POP DUP2 DUP2 SUB PUSH1 0x0 DUP4 ADD MSTORE PUSH2 0x1D84 DUP2 DUP5 PUSH2 0x1D0C JUMP JUMPDEST SWAP1 POP SWAP3 SWAP2 POP POP JUMP JUMPDEST PUSH1 0x0 DUP1 REVERT JUMPDEST PUSH1 0x0 DUP1 REVERT JUMPDEST PUSH1 0x0 PUSH1 0x1F NOT PUSH1 0x1F DUP4 ADD AND SWAP1 POP SWAP2 SWAP1 POP JUMP JUMPDEST PUSH32 0x4E487B7100000000000000000000000000000000000000000000000000000000 PUSH1 0x0 MSTORE PUSH1 0x41 PUSH1 0x4 MSTORE PUSH1 0x24 PUSH1 0x0 REVERT JUMPDEST PUSH2 0x1DDF DUP3 PUSH2 0x1D96 JUMP JUMPDEST DUP2 ADD DUP2 DUP2 LT PUSH8 0xFFFFFFFFFFFFFFFF DUP3 GT OR ISZERO PUSH2 0x1DFE JUMPI PUSH2 0x1DFD PUSH2 0x1DA7 JUMP JUMPDEST JUMPDEST DUP1 PUSH1 0x40 MSTORE POP POP POP JUMP JUMPDEST PUSH1 0x0 PUSH2 0x1E11 PUSH2 0x1B6D JUMP JUMPDEST SWAP1 POP PUSH2 0x1E1D DUP3 DUP3 PUSH2 0x1DD6 JUMP JUMPDEST SWAP2 SWAP1 POP JUMP JUMPDEST PUSH1 0x0 PUSH8 0xFFFFFFFFFFFFFFFF DUP3 GT ISZERO PUSH2 0x1E3D JUMPI PUSH2 0x1E3C PUSH2 0x1DA7 JUMP JUMPDEST JUMPDEST PUSH2 0x1E46 DUP3 PUSH2 0x1D96 JUMP JUMPDEST SWAP1 POP PUSH1 0x20 DUP2 ADD SWAP1 POP SWAP2 SWAP1 POP JUMP JUMPDEST DUP3 DUP2 DUP4 CALLDATACOPY PUSH1 0x0 DUP4 DUP4 ADD MSTORE POP POP POP JUMP JUMPDEST PUSH1 0x0 PUSH2 0x1E75 PUSH2 0x1E70 DUP5 PUSH2 0x1E22 JUMP JUMPDEST PUSH2 0x1E07 JUMP JUMPDEST SWAP1 POP DUP3 DUP2 MSTORE PUSH1 0x20 DUP2 ADD DUP5 DUP5 DUP5 ADD GT ISZERO PUSH2 0x1E91 JUMPI PUSH2 0x1E90 PUSH2 0x1D91 JUMP JUMPDEST JUMPDEST PUSH2 0x1E9C DUP5 DUP3 DUP6 PUSH2 0x1E53 JUMP JUMPDEST POP SWAP4 SWAP3 POP POP POP JUMP JUMPDEST PUSH1 0x0 DUP3 PUSH1 0x1F DUP4 ADD SLT PUSH2 0x1EB9 JUMPI PUSH2 0x1EB8 PUSH2 0x1D8C JUMP JUMPDEST JUMPDEST DUP2 CALLDATALOAD PUSH2 0x1EC9 DUP5 DUP3 PUSH1 0x20 DUP7 ADD PUSH2 0x1E62 JUMP JUMPDEST SWAP2 POP POP SWAP3 SWAP2 POP POP JUMP JUMPDEST PUSH1 0x0 DUP1 PUSH1 0x0 PUSH1 0x60 DUP5 DUP7 SUB SLT ISZERO PUSH2 0x1EEB JUMPI PUSH2 0x1EEA PUSH2 0x1B77 JUMP JUMPDEST JUMPDEST PUSH1 0x0 PUSH2 0x1EF9 DUP7 DUP3 DUP8 ADD PUSH2 0x1C00 JUMP JUMPDEST SWAP4 POP POP PUSH1 0x20 PUSH2 0x1F0A DUP7 DUP3 DUP8 ADD PUSH2 0x1C00 JUMP JUMPDEST SWAP3 POP POP PUSH1 0x40 DUP5 ADD CALLDATALOAD PUSH8 0xFFFFFFFFFFFFFFFF DUP2 GT ISZERO PUSH2 0x1F2B JUMPI PUSH2 0x1F2A PUSH2 0x1B7C JUMP JUMPDEST JUMPDEST PUSH2 0x1F37 DUP7 DUP3 DUP8 ADD PUSH2 0x1EA4 JUMP JUMPDEST SWAP2 POP POP SWAP3 POP SWAP3 POP SWAP3 JUMP JUMPDEST PUSH1 0x0 DUP2 MLOAD SWAP1 POP SWAP2 SWAP1 POP JUMP JUMPDEST PUSH1 0x0 DUP3 DUP3 MSTORE PUSH1 0x20 DUP3 ADD SWAP1 POP SWAP3 SWAP2 POP POP JUMP JUMPDEST PUSH1 0x0 JUMPDEST DUP4 DUP2 LT ISZERO PUSH2 0x1F7B JUMPI DUP1 DUP3 ADD MLOAD DUP2 DUP5 ADD MSTORE PUSH1 0x20 DUP2 ADD SWAP1 POP PUSH2 0x1F60 JUMP JUMPDEST PUSH1 0x0 DUP5 DUP5 ADD MSTORE POP POP POP POP JUMP JUMPDEST PUSH1 0x0 PUSH2 0x1F92 DUP3 PUSH2 0x1F41 JUMP JUMPDEST PUSH2 0x1F9C DUP2 DUP6 PUSH2 0x1F4C JUMP JUMPDEST SWAP4 POP PUSH2 0x1FAC DUP2 DUP6 PUSH1 0x20 DUP7 ADD PUSH2 0x1F5D JUMP JUMPDEST PUSH2 0x1FB5 DUP2 PUSH2 0x1D96 JUMP JUMPDEST DUP5 ADD SWAP2 POP POP SWAP3 SWAP2 POP POP JUMP JUMPDEST PUSH1 0x0 PUSH1 0x40 DUP3 ADD SWAP1 POP PUSH2 0x1FD5 PUSH1 0x0 DUP4 ADD DUP6 PUSH2 0x1C55 JUMP JUMPDEST DUP2 DUP2 SUB PUSH1 0x20 DUP4 ADD MSTORE PUSH2 0x1FE7 DUP2 DUP5 PUSH2 0x1F87 JUMP JUMPDEST SWAP1 POP SWAP4 SWAP3 POP POP POP JUMP JUMPDEST PUSH1 0x0 PUSH1 0x20 DUP3 DUP5 SUB SLT ISZERO PUSH2 0x2006 JUMPI PUSH2 0x2005 PUSH2 0x1B77 JUMP JUMPDEST JUMPDEST PUSH1 0x0 PUSH2 0x2014 DUP5 DUP3 DUP6 ADD PUSH2 0x1C00 JUMP JUMPDEST SWAP2 POP POP SWAP3 SWAP2 POP POP JUMP JUMPDEST PUSH2 0x2026 DUP2 PUSH2 0x1BA1 JUMP JUMPDEST DUP3 MSTORE POP POP JUMP JUMPDEST PUSH32 0x4E487B7100000000000000000000000000000000000000000000000000000000 PUSH1 0x0 MSTORE PUSH1 0x21 PUSH1 0x4 MSTORE PUSH1 0x24 PUSH1 0x0 REVERT JUMPDEST PUSH1 0x3 DUP2 LT PUSH2 0x206C JUMPI PUSH2 0x206B PUSH2 0x202C JUMP JUMPDEST JUMPDEST POP JUMP JUMPDEST PUSH1 0x0 DUP2 SWAP1 POP PUSH2 0x207D DUP3 PUSH2 0x205B JUMP JUMPDEST SWAP2 SWAP1 POP JUMP JUMPDEST PUSH1 0x0 PUSH2 0x208D DUP3 PUSH2 0x206F JUMP JUMPDEST SWAP1 POP SWAP2 SWAP1 POP JUMP JUMPDEST PUSH2 0x209D DUP2 PUSH2 0x2082 JUMP JUMPDEST DUP3 MSTORE POP POP JUMP JUMPDEST PUSH1 0x0 PUSH1 0xC0 DUP3 ADD SWAP1 POP PUSH2 0x20B8 PUSH1 0x0 DUP4 ADD DUP10 PUSH2 0x201D JUMP JUMPDEST PUSH2 0x20C5 PUSH1 0x20 DUP4 ADD DUP9 PUSH2 0x1C55 JUMP JUMPDEST PUSH2 0x20D2 PUSH1 0x40 DUP4 ADD DUP8 PUSH2 0x1C55 JUMP JUMPDEST PUSH2 0x20DF PUSH1 0x60 DUP4 ADD DUP7 PUSH2 0x1C55 JUMP JUMPDEST DUP2 DUP2 SUB PUSH1 0x80 DUP4 ADD MSTORE PUSH2 0x20F1 DUP2 DUP6 PUSH2 0x1F87 JUMP JUMPDEST SWAP1 POP PUSH2 0x2100 PUSH1 0xA0 DUP4 ADD DUP5 PUSH2 0x2094 JUMP JUMPDEST SWAP8 SWAP7 POP POP POP POP POP POP POP JUMP JUMPDEST PUSH1 0x0 PUSH1 0x20 DUP3 ADD SWAP1 POP PUSH2 0x2120 PUSH1 0x0 DUP4 ADD DUP5 PUSH2 0x201D JUMP JUMPDEST SWAP3 SWAP2 POP POP JUMP JUMPDEST PUSH1 0x0 DUP1 PUSH1 0x0 PUSH1 0x60 DUP5 DUP7 SUB SLT ISZERO PUSH2 0x213F JUMPI PUSH2 0x213E PUSH2 0x1B77 JUMP JUMPDEST JUMPDEST PUSH1 0x0 PUSH2 0x214D DUP7 DUP3 DUP8 ADD PUSH2 0x1BCA JUMP JUMPDEST SWAP4 POP POP PUSH1 0x20 PUSH2 0x215E DUP7 DUP3 DUP8 ADD PUSH2 0x1C00 JUMP JUMPDEST SWAP3 POP POP PUSH1 0x40 PUSH2 0x216F DUP7 DUP3 DUP8 ADD PUSH2 0x1C00 JUMP JUMPDEST SWAP2 POP POP SWAP3 POP SWAP3 POP SWAP3 JUMP JUMPDEST PUSH1 0x0 DUP2 MLOAD SWAP1 POP SWAP2 SWAP1 POP JUMP JUMPDEST PUSH1 0x0 DUP3 DUP3 MSTORE PUSH1 0x20 DUP3 ADD SWAP1 POP SWAP3 SWAP2 POP POP JUMP JUMPDEST PUSH1 0x0 DUP2 SWAP1 POP PUSH1 0x20 DUP3 ADD SWAP1 POP SWAP2 SWAP1 POP JUMP JUMPDEST PUSH2 0x21AE DUP2 PUSH2 0x2082 JUMP JUMPDEST DUP3 MSTORE POP POP JUMP JUMPDEST PUSH1 0x0 PUSH2 0x21C0 DUP4 DUP4 PUSH2 0x21A5 JUMP JUMPDEST PUSH1 0x20 DUP4 ADD SWAP1 POP SWAP3 SWAP2 POP POP JUMP JUMPDEST PUSH1 0x0 PUSH1 0x20 DUP3 ADD SWAP1 POP SWAP2 SWAP1 POP JUMP JUMPDEST PUSH1 0x0 PUSH2 0x21E4 DUP3 PUSH2 0x2179 JUMP JUMPDEST PUSH2 0x21EE DUP2 DUP6 PUSH2 0x2184 JUMP JUMPDEST SWAP4 POP PUSH2 0x21F9 DUP4 PUSH2 0x2195 JUMP JUMPDEST DUP1 PUSH1 0x0 JUMPDEST DUP4 DUP2 LT ISZERO PUSH2 0x222A JUMPI DUP2 MLOAD PUSH2 0x2211 DUP9 DUP3 PUSH2 0x21B4 JUMP JUMPDEST SWAP8 POP PUSH2 0x221C DUP4 PUSH2 0x21CC JUMP JUMPDEST SWAP3 POP POP PUSH1 0x1 DUP2 ADD SWAP1 POP PUSH2 0x21FD JUMP JUMPDEST POP DUP6 SWAP4 POP POP POP POP SWAP3 SWAP2 POP POP JUMP JUMPDEST PUSH1 0x0 PUSH1 0x80 DUP3 ADD SWAP1 POP DUP2 DUP2 SUB PUSH1 0x0 DUP4 ADD MSTORE PUSH2 0x2251 DUP2 DUP8 PUSH2 0x1D0C JUMP JUMPDEST SWAP1 POP DUP2 DUP2 SUB PUSH1 0x20 DUP4 ADD MSTORE PUSH2 0x2265 DUP2 DUP7 PUSH2 0x1D0C JUMP JUMPDEST SWAP1 POP DUP2 DUP2 SUB PUSH1 0x40 DUP4 ADD MSTORE PUSH2 0x2279 DUP2 DUP6 PUSH2 0x1D0C JUMP JUMPDEST SWAP1 POP DUP2 DUP2 SUB PUSH1 0x60 DUP4 ADD MSTORE PUSH2 0x228D DUP2 DUP5 PUSH2 0x21D9 JUMP JUMPDEST SWAP1 POP SWAP6 SWAP5 POP POP POP POP POP JUMP JUMPDEST PUSH1 0x0 PUSH1 0x20 DUP3 DUP5 SUB SLT ISZERO PUSH2 0x22AE JUMPI PUSH2 0x22AD PUSH2 0x1B77 JUMP JUMPDEST JUMPDEST PUSH1 0x0 DUP3 ADD CALLDATALOAD PUSH8 0xFFFFFFFFFFFFFFFF DUP2 GT ISZERO PUSH2 0x22CC JUMPI PUSH2 0x22CB PUSH2 0x1B7C JUMP JUMPDEST JUMPDEST PUSH2 0x22D8 DUP5 DUP3 DUP6 ADD PUSH2 0x1EA4 JUMP JUMPDEST SWAP2 POP POP SWAP3 SWAP2 POP POP JUMP JUMPDEST PUSH1 0x0 PUSH1 0xE0 DUP3 ADD SWAP1 POP PUSH2 0x22F6 PUSH1 0x0 DUP4 ADD DUP11 PUSH2 0x201D JUMP JUMPDEST DUP2 DUP2 SUB PUSH1 0x20 DUP4 ADD MSTORE PUSH2 0x2308 DUP2 DUP10 PUSH2 0x1F87 JUMP JUMPDEST SWAP1 POP PUSH2 0x2317 PUSH1 0x40 DUP4 ADD DUP9 PUSH2 0x1C55 JUMP JUMPDEST PUSH2 0x2324 PUSH1 0x60 DUP4 ADD DUP8 PUSH2 0x1C55 JUMP JUMPDEST PUSH2 0x2331 PUSH1 0x80 DUP4 ADD DUP7 PUSH2 0x1C55 JUMP JUMPDEST DUP2 DUP2 SUB PUSH1 0xA0 DUP4 ADD MSTORE PUSH2 0x2343 DUP2 DUP6 PUSH2 0x1F87 JUMP JUMPDEST SWAP1 POP PUSH2 0x2352 PUSH1 0xC0 DUP4 ADD DUP5 PUSH2 0x2094 JUMP JUMPDEST SWAP9 SWAP8 POP POP POP POP POP POP POP POP JUMP JUMPDEST PUSH1 0x0 DUP3 DUP3 MSTORE PUSH1 0x20 DUP3 ADD SWAP1 POP SWAP3 SWAP2 POP POP JUMP JUMPDEST PUSH32 0x4E6F206665657320746F20776974686472617700000000000000000000000000 PUSH1 0x0 DUP3 ADD MSTORE POP JUMP JUMPDEST PUSH1 0x0 PUSH2 0x23A5 PUSH1 0x13 DUP4 PUSH2 0x235E JUMP JUMPDEST SWAP2 POP PUSH2 0x23B0 DUP3 PUSH2 0x236F JUMP JUMPDEST PUSH1 0x20 DUP3 ADD SWAP1 POP SWAP2 SWAP1 POP JUMP JUMPDEST PUSH1 0x0 PUSH1 0x20 DUP3 ADD SWAP1 POP DUP2 DUP2 SUB PUSH1 0x0 DUP4 ADD MSTORE PUSH2 0x23D4 DUP2 PUSH2 0x2398 JUMP JUMPDEST SWAP1 POP SWAP2 SWAP1 POP JUMP JUMPDEST PUSH1 0x0 DUP2 SWAP1 POP SWAP3 SWAP2 POP POP JUMP JUMPDEST POP JUMP JUMPDEST PUSH1 0x0 PUSH2 0x23F6 PUSH1 0x0 DUP4 PUSH2 0x23DB JUMP JUMPDEST SWAP2 POP PUSH2 0x2401 DUP3 PUSH2 0x23E6 JUMP JUMPDEST PUSH1 0x0 DUP3 ADD SWAP1 POP SWAP2 SWAP1 POP JUMP JUMPDEST PUSH1 0x0 PUSH2 0x2417 DUP3 PUSH2 0x23E9 JUMP JUMPDEST SWAP2 POP DUP2 SWAP1 POP SWAP2 SWAP1 POP JUMP JUMPDEST PUSH32 0x5769746864726177616C206661696C6564000000000000000000000000000000 PUSH1 0x0 DUP3 ADD MSTORE POP JUMP JUMPDEST PUSH1 0x0 PUSH2 0x2457 PUSH1 0x11 DUP4 PUSH2 0x235E JUMP JUMPDEST SWAP2 POP PUSH2 0x2462 DUP3 PUSH2 0x2421 JUMP JUMPDEST PUSH1 0x20 DUP3 ADD SWAP1 POP SWAP2 SWAP1 POP JUMP JUMPDEST PUSH1 0x0 PUSH1 0x20 DUP3 ADD SWAP1 POP DUP2 DUP2 SUB PUSH1 0x0 DUP4 ADD MSTORE PUSH2 0x2486 DUP2 PUSH2 0x244A JUMP JUMPDEST SWAP1 POP SWAP2 SWAP1 POP JUMP JUMPDEST PUSH32 0x4E6F7420796F75722067616D6500000000000000000000000000000000000000 PUSH1 0x0 DUP3 ADD MSTORE POP JUMP JUMPDEST PUSH1 0x0 PUSH2 0x24C3 PUSH1 0xD DUP4 PUSH2 0x235E JUMP JUMPDEST SWAP2 POP PUSH2 0x24CE DUP3 PUSH2 0x248D JUMP JUMPDEST PUSH1 0x20 DUP3 ADD SWAP1 POP SWAP2 SWAP1 POP JUMP JUMPDEST PUSH1 0x0 PUSH1 0x20 DUP3 ADD SWAP1 POP DUP2 DUP2 SUB PUSH1 0x0 DUP4 ADD MSTORE PUSH2 0x24F2 DUP2 PUSH2 0x24B6 JUMP JUMPDEST SWAP1 POP SWAP2 SWAP1 POP JUMP JUMPDEST PUSH32 0x47616D65206E6F74206163746976650000000000000000000000000000000000 PUSH1 0x0 DUP3 ADD MSTORE POP JUMP JUMPDEST PUSH1 0x0 PUSH2 0x252F PUSH1 0xF DUP4 PUSH2 0x235E JUMP JUMPDEST SWAP2 POP PUSH2 0x253A DUP3 PUSH2 0x24F9 JUMP JUMPDEST PUSH1 0x20 DUP3 ADD SWAP1 POP SWAP2 SWAP1 POP JUMP JUMPDEST PUSH1 0x0 PUSH1 0x20 DUP3 ADD SWAP1 POP DUP2 DUP2 SUB PUSH1 0x0 DUP4 ADD MSTORE PUSH2 0x255E DUP2 PUSH2 0x2522 JUMP JUMPDEST SWAP1 POP SWAP2 SWAP1 POP JUMP JUMPDEST PUSH1 0x0 PUSH1 0x40 DUP3 ADD SWAP1 POP PUSH2 0x257A PUSH1 0x0 DUP4 ADD DUP6 PUSH2 0x1C55 JUMP JUMPDEST PUSH2 0x2587 PUSH1 0x20 DUP4 ADD DUP5 PUSH2 0x1C55 JUMP JUMPDEST SWAP4 SWAP3 POP POP POP JUMP JUMPDEST PUSH32 0x4E487B7100000000000000000000000000000000000000000000000000000000 PUSH1 0x0 MSTORE PUSH1 0x22 PUSH1 0x4 MSTORE PUSH1 0x24 PUSH1 0x0 REVERT JUMPDEST PUSH1 0x0 PUSH1 0x2 DUP3 DIV SWAP1 POP PUSH1 0x1 DUP3 AND DUP1 PUSH2 0x25D5 JUMPI PUSH1 0x7F DUP3 AND SWAP2 POP JUMPDEST PUSH1 0x20 DUP3 LT DUP2 SUB PUSH2 0x25E8 JUMPI PUSH2 0x25E7 PUSH2 0x258E JUMP JUMPDEST JUMPDEST POP SWAP2 SWAP1 POP JUMP JUMPDEST PUSH32 0x496E76616C696420746F6B656E20616464726573730000000000000000000000 PUSH1 0x0 DUP3 ADD MSTORE POP JUMP JUMPDEST PUSH1 0x0 PUSH2 0x2624 PUSH1 0x15 DUP4 PUSH2 0x235E JUMP JUMPDEST SWAP2 POP PUSH2 0x262F DUP3 PUSH2 0x25EE JUMP JUMPDEST PUSH1 0x20 DUP3 ADD SWAP1 POP SWAP2 SWAP1 POP JUMP JUMPDEST PUSH1 0x0 PUSH1 0x20 DUP3 ADD SWAP1 POP DUP2 DUP2 SUB PUSH1 0x0 DUP4 ADD MSTORE PUSH2 0x2653 DUP2 PUSH2 0x2617 JUMP JUMPDEST SWAP1 POP SWAP2 SWAP1 POP JUMP JUMPDEST PUSH1 0x0 DUP2 MLOAD SWAP1 POP PUSH2 0x2669 DUP2 PUSH2 0x1BE9 JUMP JUMPDEST SWAP3 SWAP2 POP POP JUMP JUMPDEST PUSH1 0x0 PUSH1 0x20 DUP3 DUP5 SUB SLT ISZERO PUSH2 0x2685 JUMPI PUSH2 0x2684 PUSH2 0x1B77 JUMP JUMPDEST JUMPDEST PUSH1 0x0 PUSH2 0x2693 DUP5 DUP3 DUP6 ADD PUSH2 0x265A JUMP JUMPDEST SWAP2 POP POP SWAP3 SWAP2 POP POP JUMP JUMPDEST PUSH32 0x4E6F20746F6B656E7320746F2077697468647261770000000000000000000000 PUSH1 0x0 DUP3 ADD MSTORE POP JUMP JUMPDEST PUSH1 0x0 PUSH2 0x26D2 PUSH1 0x15 DUP4 PUSH2 0x235E JUMP JUMPDEST SWAP2 POP PUSH2 0x26DD DUP3 PUSH2 0x269C JUMP JUMPDEST PUSH1 0x20 DUP3 ADD SWAP1 POP SWAP2 SWAP1 POP JUMP JUMPDEST PUSH1 0x0 PUSH1 0x20 DUP3 ADD SWAP1 POP DUP2 DUP2 SUB PUSH1 0x0 DUP4 ADD MSTORE PUSH2 0x2701 DUP2 PUSH2 0x26C5 JUMP JUMPDEST SWAP1 POP SWAP2 SWAP1 POP JUMP JUMPDEST PUSH1 0x0 PUSH1 0x40 DUP3 ADD SWAP1 POP PUSH2 0x271D PUSH1 0x0 DUP4 ADD DUP6 PUSH2 0x201D JUMP JUMPDEST PUSH2 0x272A PUSH1 0x20 DUP4 ADD DUP5 PUSH2 0x1C55 JUMP JUMPDEST SWAP4 SWAP3 POP POP POP JUMP JUMPDEST PUSH1 0x0 DUP2 ISZERO ISZERO SWAP1 POP SWAP2 SWAP1 POP JUMP JUMPDEST PUSH2 0x2746 DUP2 PUSH2 0x2731 JUMP JUMPDEST DUP2 EQ PUSH2 0x2751 JUMPI PUSH1 0x0 DUP1 REVERT JUMPDEST POP JUMP JUMPDEST PUSH1 0x0 DUP2 MLOAD SWAP1 POP PUSH2 0x2763 DUP2 PUSH2 0x273D JUMP JUMPDEST SWAP3 SWAP2 POP POP JUMP JUMPDEST PUSH1 0x0 PUSH1 0x20 DUP3 DUP5 SUB SLT ISZERO PUSH2 0x277F JUMPI PUSH2 0x277E PUSH2 0x1B77 JUMP JUMPDEST JUMPDEST PUSH1 0x0 PUSH2 0x278D DUP5 DUP3 DUP6 ADD PUSH2 0x2754 JUMP JUMPDEST SWAP2 POP POP SWAP3 SWAP2 POP POP JUMP JUMPDEST PUSH32 0x546F6B656E207472616E73666572206661696C65640000000000000000000000 PUSH1 0x0 DUP3 ADD MSTORE POP JUMP JUMPDEST PUSH1 0x0 PUSH2 0x27CC PUSH1 0x15 DUP4 PUSH2 0x235E JUMP JUMPDEST SWAP2 POP PUSH2 0x27D7 DUP3 PUSH2 0x2796 JUMP JUMPDEST PUSH1 0x20 DUP3 ADD SWAP1 POP SWAP2 SWAP1 POP JUMP JUMPDEST PUSH1 0x0 PUSH1 0x20 DUP3 ADD SWAP1 POP DUP2 DUP2 SUB PUSH1 0x0 DUP4 ADD MSTORE PUSH2 0x27FB DUP2 PUSH2 0x27BF JUMP JUMPDEST SWAP1 POP SWAP2 SWAP1 POP JUMP JUMPDEST PUSH32 0x496E73756666696369656E742067616D65206665650000000000000000000000 PUSH1 0x0 DUP3 ADD MSTORE POP JUMP JUMPDEST PUSH1 0x0 PUSH2 0x2838 PUSH1 0x15 DUP4 PUSH2 0x235E JUMP JUMPDEST SWAP2 POP PUSH2 0x2843 DUP3 PUSH2 0x2802 JUMP JUMPDEST PUSH1 0x20 DUP3 ADD SWAP1 POP SWAP2 SWAP1 POP JUMP JUMPDEST PUSH1 0x0 PUSH1 0x20 DUP3 ADD SWAP1 POP DUP2 DUP2 SUB PUSH1 0x0 DUP4 ADD MSTORE PUSH2 0x2867 DUP2 PUSH2 0x282B JUMP JUMPDEST SWAP1 POP SWAP2 SWAP1 POP JUMP JUMPDEST PUSH32 0x4E487B7100000000000000000000000000000000000000000000000000000000 PUSH1 0x0 MSTORE PUSH1 0x11 PUSH1 0x4 MSTORE PUSH1 0x24 PUSH1 0x0 REVERT JUMPDEST PUSH1 0x0 PUSH2 0x28A8 DUP3 PUSH2 0x1BDF JUMP JUMPDEST SWAP2 POP PUSH32 0xFFFFFFFFFFFFFFFFFFFFFFFFFFFFFFFFFFFFFFFFFFFFFFFFFFFFFFFFFFFFFFFF DUP3 SUB PUSH2 0x28DA JUMPI PUSH2 0x28D9 PUSH2 0x286E JUMP JUMPDEST JUMPDEST PUSH1 0x1 DUP3 ADD SWAP1 POP SWAP2 SWAP1 POP JUMP JUMPDEST PUSH1 0x0 PUSH1 0x20 DUP3 ADD SWAP1 POP DUP2 DUP2 SUB PUSH1 0x0 DUP4 ADD MSTORE PUSH2 0x28FF DUP2 DUP5 PUSH2 0x1F87 JUMP JUMPDEST SWAP1 POP SWAP3 SWAP2 POP POP JUMP JUMPDEST PUSH1 0x0 DUP2 SWAP1 POP DUP2 PUSH1 0x0 MSTORE PUSH1 0x20 PUSH1 0x0 KECCAK256 SWAP1 POP SWAP2 SWAP1 POP JUMP JUMPDEST PUSH1 0x0 PUSH1 0x20 PUSH1 0x1F DUP4 ADD DIV SWAP1 POP SWAP2 SWAP1 POP JUMP JUMPDEST PUSH1 0x0 DUP3 DUP3 SHL SWAP1 POP SWAP3 SWAP2 POP POP JUMP JUMPDEST PUSH1 0x0 PUSH1 0x8 DUP4 MUL PUSH2 0x2969 PUSH32 0xFFFFFFFFFFFFFFFFFFFFFFFFFFFFFFFFFFFFFFFFFFFFFFFFFFFFFFFFFFFFFFFF DUP3 PUSH2 0x292C JUMP JUMPDEST PUSH2 0x2973 DUP7 DUP4 PUSH2 0x292C JUMP JUMPDEST SWAP6 POP DUP1 NOT DUP5 AND SWAP4 POP DUP1 DUP7 AND DUP5 OR SWAP3 POP POP POP SWAP4 SWAP3 POP POP POP JUMP JUMPDEST PUSH1 0x0 DUP2 SWAP1 POP SWAP2 SWAP1 POP JUMP JUMPDEST PUSH1 0x0 PUSH2 0x29B0 PUSH2 0x29AB PUSH2 0x29A6 DUP5 PUSH2 0x1BDF JUMP JUMPDEST PUSH2 0x298B JUMP JUMPDEST PUSH2 0x1BDF JUMP JUMPDEST SWAP1 POP SWAP2 SWAP1 POP JUMP JUMPDEST PUSH1 0x0 DUP2 SWAP1 POP SWAP2 SWAP1 POP JUMP JUMPDEST PUSH2 0x29CA DUP4 PUSH2 0x2995 JUMP JUMPDEST PUSH2 0x29DE PUSH2 0x29D6 DUP3 PUSH2 0x29B7 JUMP JUMPDEST DUP5 DUP5 SLOAD PUSH2 0x2939 JUMP JUMPDEST DUP3 SSTORE POP POP POP POP JUMP JUMPDEST PUSH1 0x0 SWAP1 JUMP JUMPDEST PUSH2 0x29F3 PUSH2 0x29E6 JUMP JUMPDEST PUSH2 0x29FE DUP2 DUP5 DUP5 PUSH2 0x29C1 JUMP JUMPDEST POP POP POP JUMP JUMPDEST JUMPDEST DUP2 DUP2 LT ISZERO PUSH2 0x2A22 JUMPI PUSH2 0x2A17 PUSH1 0x0 DUP3 PUSH2 0x29EB JUMP JUMPDEST PUSH1 0x1 DUP2 ADD SWAP1 POP PUSH2 0x2A04 JUMP JUMPDEST POP POP JUMP JUMPDEST PUSH1 0x1F DUP3 GT ISZERO PUSH2 0x2A67 JUMPI PUSH2 0x2A38 DUP2 PUSH2 0x2907 JUMP JUMPDEST PUSH2 0x2A41 DUP5 PUSH2 0x291C JUMP JUMPDEST DUP2 ADD PUSH1 0x20 DUP6 LT ISZERO PUSH2 0x2A50 JUMPI DUP2 SWAP1 POP JUMPDEST PUSH2 0x2A64 PUSH2 0x2A5C DUP6 PUSH2 0x291C JUMP JUMPDEST DUP4 ADD DUP3 PUSH2 0x2A03 JUMP JUMPDEST POP POP JUMPDEST POP POP POP JUMP JUMPDEST PUSH1 0x0 DUP3 DUP3 SHR SWAP1 POP SWAP3 SWAP2 POP POP JUMP JUMPDEST PUSH1 0x0 PUSH2 0x2A8A PUSH1 0x0 NOT DUP5 PUSH1 0x8 MUL PUSH2 0x2A6C JUMP JUMPDEST NOT DUP1 DUP4 AND SWAP2 POP POP SWAP3 SWAP2 POP POP JUMP JUMPDEST PUSH1 0x0 PUSH2 0x2AA3 DUP4 DUP4 PUSH2 0x2A79 JUMP JUMPDEST SWAP2 POP DUP3 PUSH1 0x2 MUL DUP3 OR SWAP1 POP SWAP3 SWAP2 POP POP JUMP JUMPDEST PUSH2 0x2ABC DUP3 PUSH2 0x1F41 JUMP JUMPDEST PUSH8 0xFFFFFFFFFFFFFFFF DUP2 GT ISZERO PUSH2 0x2AD5 JUMPI PUSH2 0x2AD4 PUSH2 0x1DA7 JUMP JUMPDEST JUMPDEST PUSH2 0x2ADF DUP3 SLOAD PUSH2 0x25BD JUMP JUMPDEST PUSH2 0x2AEA DUP3 DUP3 DUP6 PUSH2 0x2A26 JUMP JUMPDEST PUSH1 0x0 PUSH1 0x20 SWAP1 POP PUSH1 0x1F DUP4 GT PUSH1 0x1 DUP2 EQ PUSH2 0x2B1D JUMPI PUSH1 0x0 DUP5 ISZERO PUSH2 0x2B0B JUMPI DUP3 DUP8 ADD MLOAD SWAP1 POP JUMPDEST PUSH2 0x2B15 DUP6 DUP3 PUSH2 0x2A97 JUMP JUMPDEST DUP7 SSTORE POP PUSH2 0x2B7D JUMP JUMPDEST PUSH1 0x1F NOT DUP5 AND PUSH2 0x2B2B DUP7 PUSH2 0x2907 JUMP JUMPDEST PUSH1 0x0 JUMPDEST DUP3 DUP2 LT ISZERO PUSH2 0x2B53 JUMPI DUP5 DUP10 ADD MLOAD DUP3 SSTORE PUSH1 0x1 DUP3 ADD SWAP2 POP PUSH1 0x20 DUP6 ADD SWAP5 POP PUSH1 0x20 DUP2 ADD SWAP1 POP PUSH2 0x2B2E JUMP JUMPDEST DUP7 DUP4 LT ISZERO PUSH2 0x2B70 JUMPI DUP5 DUP10 ADD MLOAD PUSH2 0x2B6C PUSH1 0x1F DUP10 AND DUP3 PUSH2 0x2A79 JUMP JUMPDEST DUP4 SSTORE POP JUMPDEST PUSH1 0x1 PUSH1 0x2 DUP9 MUL ADD DUP9 SSTORE POP POP POP JUMPDEST POP POP POP POP POP POP JUMP JUMPDEST PUSH1 0x0 PUSH2 0x2B90 DUP3 PUSH2 0x1BDF JUMP JUMPDEST SWAP2 POP PUSH2 0x2B9B DUP4 PUSH2 0x1BDF JUMP JUMPDEST SWAP3 POP DUP3 DUP3 SUB SWAP1 POP DUP2 DUP2 GT ISZERO PUSH2 0x2BB3 JUMPI PUSH2 0x2BB2 PUSH2 0x286E JUMP JUMPDEST JUMPDEST SWAP3 SWAP2 POP POP JUMP JUMPDEST PUSH32 0x4E487B7100000000000000000000000000000000000000000000000000000000 PUSH1 0x0 MSTORE PUSH1 0x32 PUSH1 0x4 MSTORE PUSH1 0x24 PUSH1 0x0 REVERT JUMPDEST PUSH32 0x526566756E64206661696C656400000000000000000000000000000000000000 PUSH1 0x0 DUP3 ADD MSTORE POP JUMP JUMPDEST PUSH1 0x0 PUSH2 0x2C1E PUSH1 0xD DUP4 PUSH2 0x235E JUMP JUMPDEST SWAP2 POP PUSH2 0x2C29 DUP3 PUSH2 0x2BE8 JUMP JUMPDEST PUSH1 0x20 DUP3 ADD SWAP1 POP SWAP2 SWAP1 POP JUMP JUMPDEST PUSH1 0x0 PUSH1 0x20 DUP3 ADD SWAP1 POP DUP2 DUP2 SUB PUSH1 0x0 DUP4 ADD MSTORE PUSH2 0x2C4D DUP2 PUSH2 0x2C11 JUMP JUMPDEST SWAP1 POP SWAP2 SWAP1 POP JUMP INVALID LOG2 PUSH5 0x6970667358 0x22 SLT KECCAK256 CODECOPY ADD 0xEA 0xD5 SWAP8 0xA8 DUP10 CREATE PUSH16 0x45381A8AF3B0DB7DD496563828B420D4 0xC4 LOG4 0xFB 0x4D SWAP9 MCOPY PUSH21 0x64736F6C634300081C003300000000000000000000 "
        },
        "methodIdentifiers": {
          "GRID_SIZE()": "7fc4eda8",
          "MAX_ATTEMPTS()": "30e4349c",
          "gameFee()": "ea777eec",
          "gameIdCounter()": "1bb412d6",
          "getActiveGame(address)": "7bf77345",
          "getGameSession(uint256)": "8ab06fea",
          "getGameSessionWithGrid(uint256)": "eab9308f",
          "getPlayerGames(address)": "129daf84",
          "getPlayerHistory(address,uint256,uint256)": "d46588bf",
          "owner()": "8da5cb5b",
          "playerGames(address,uint256)": "0a5694c2",
          "renounceOwnership()": "715018a6",
          "startGame(bytes)": "dc2ac129",
          "submitGame(uint256,uint256,bytes)": "628aa9a7",
          "transferOwnership(address)": "f2fde38b",
          "updateGameFee(uint256)": "b70a6dec",
          "withdrawFees()": "476343ee",
          "withdrawLostTokens(address)": "a3546be4"
        }
      }
    }
  }
}