{
  "contracts/Puzzle.sol": {
    "Puzzle": {
      "abi": [
        {
          "inputs": [],
          "stateMutability": "nonpayable",
          "type": "constructor"
        },
        {
          "inputs": [
            {
              "internalType": "address",
              "name": "owner",
              "type": "address"
            }
          ],
          "name": "OwnableInvalidOwner",
          "type": "error"
        },
        {
          "inputs": [
            {
              "internalType": "address",
              "name": "account",
              "type": "address"
            }
          ],
          "name": "OwnableUnauthorizedAccount",
          "type": "error"
        },
        {
          "inputs": [],
          "name": "ReentrancyGuardReentrantCall",
          "type": "error"
        },
        {
          "anonymous": false,
          "inputs": [
            {
              "indexed": true,
              "internalType": "address",
              "name": "owner",
              "type": "address"
            },
            {
              "indexed": false,
              "internalType": "uint256",
              "name": "amount",
              "type": "uint256"
            }
          ],
          "name": "FeesWithdrawn",
          "type": "event"
        },
        {
          "anonymous": false,
          "inputs": [
            {
              "indexed": true,
              "internalType": "address",
              "name": "player",
              "type": "address"
            },
            {
              "indexed": true,
              "internalType": "uint256",
              "name": "gameId",
              "type": "uint256"
            }
          ],
          "name": "GameAbandoned",
          "type": "event"
        },
        {
          "anonymous": false,
          "inputs": [
            {
              "indexed": true,
              "internalType": "address",
              "name": "player",
              "type": "address"
            },
            {
              "indexed": true,
              "internalType": "uint256",
              "name": "gameId",
              "type": "uint256"
            },
            {
              "indexed": false,
              "internalType": "uint256",
              "name": "finalScore",
              "type": "uint256"
            },
            {
              "indexed": false,
              "internalType": "uint256",
              "name": "moveCount",
              "type": "uint256"
            }
          ],
          "name": "GameCompleted",
          "type": "event"
        },
        {
          "anonymous": false,
          "inputs": [
            {
              "indexed": false,
              "internalType": "uint256",
              "name": "oldFee",
              "type": "uint256"
            },
            {
              "indexed": false,
              "internalType": "uint256",
              "name": "newFee",
              "type": "uint256"
            }
          ],
          "name": "GameFeeUpdated",
          "type": "event"
        },
        {
          "anonymous": false,
          "inputs": [
            {
              "indexed": true,
              "internalType": "address",
              "name": "player",
              "type": "address"
            },
            {
              "indexed": true,
              "internalType": "uint256",
              "name": "gameId",
              "type": "uint256"
            },
            {
              "indexed": false,
              "internalType": "bytes",
              "name": "gameData",
              "type": "bytes"
            }
          ],
          "name": "GameStarted",
          "type": "event"
        },
        {
          "anonymous": false,
          "inputs": [
            {
              "indexed": true,
              "internalType": "address",
              "name": "previousOwner",
              "type": "address"
            },
            {
              "indexed": true,
              "internalType": "address",
              "name": "newOwner",
              "type": "address"
            }
          ],
          "name": "OwnershipTransferred",
          "type": "event"
        },
        {
          "inputs": [],
          "name": "GRID_SIZE",
          "outputs": [
            {
              "internalType": "uint256",
              "name": "",
              "type": "uint256"
            }
          ],
          "stateMutability": "view",
          "type": "function"
        },
        {
          "inputs": [],
          "name": "MAX_BAD_PLACEMENTS",
          "outputs": [
            {
              "internalType": "uint256",
              "name": "",
              "type": "uint256"
            }
          ],
          "stateMutability": "view",
          "type": "function"
        },
        {
          "inputs": [],
          "name": "MAX_HINTS",
          "outputs": [
            {
              "internalType": "uint256",
              "name": "",
              "type": "uint256"
            }
          ],
          "stateMutability": "view",
          "type": "function"
        },
        {
          "inputs": [],
          "name": "gameFee",
          "outputs": [
            {
              "internalType": "uint256",
              "name": "",
              "type": "uint256"
            }
          ],
          "stateMutability": "view",
          "type": "function"
        },
        {
          "inputs": [],
          "name": "gameIdCounter",
          "outputs": [
            {
              "internalType": "uint256",
              "name": "",
              "type": "uint256"
            }
          ],
          "stateMutability": "view",
          "type": "function"
        },
        {
          "inputs": [
            {
              "internalType": "address",
              "name": "_player",
              "type": "address"
            }
          ],
          "name": "getActiveGame",
          "outputs": [
            {
              "internalType": "uint256",
              "name": "gameId",
              "type": "uint256"
            },
            {
              "internalType": "bytes",
              "name": "gameData",
              "type": "bytes"
            }
          ],
          "stateMutability": "view",
          "type": "function"
        },
        {
          "inputs": [
            {
              "internalType": "uint256",
              "name": "_gameId",
              "type": "uint256"
            }
          ],
          "name": "getGameSession",
          "outputs": [
            {
              "internalType": "address",
              "name": "player",
              "type": "address"
            },
            {
              "internalType": "uint256",
              "name": "startTime",
              "type": "uint256"
            },
            {
              "internalType": "uint256",
              "name": "endTime",
              "type": "uint256"
            },
            {
              "internalType": "uint256",
              "name": "finalScore",
              "type": "uint256"
            },
            {
              "internalType": "bytes",
              "name": "moves",
              "type": "bytes"
            },
            {
              "internalType": "enum IMiniGamesOnInk.GameState",
              "name": "state",
              "type": "uint8"
            }
          ],
          "stateMutability": "view",
          "type": "function"
        },
        {
          "inputs": [
            {
              "internalType": "uint256",
              "name": "_gameId",
              "type": "uint256"
            }
          ],
          "name": "getGameSessionWithPuzzle",
          "outputs": [
            {
              "internalType": "address",
              "name": "player",
              "type": "address"
            },
            {
              "internalType": "bytes",
              "name": "initialPuzzle",
              "type": "bytes"
            },
            {
              "internalType": "uint256",
              "name": "startTime",
              "type": "uint256"
            },
            {
              "internalType": "uint256",
              "name": "endTime",
              "type": "uint256"
            },
            {
              "internalType": "uint256",
              "name": "finalScore",
              "type": "uint256"
            },
            {
              "internalType": "bytes",
              "name": "moves",
              "type": "bytes"
            },
            {
              "internalType": "enum IMiniGamesOnInk.GameState",
              "name": "state",
              "type": "uint8"
            }
          ],
          "stateMutability": "view",
          "type": "function"
        },
        {
          "inputs": [
            {
              "internalType": "address",
              "name": "_player",
              "type": "address"
            }
          ],
          "name": "getPlayerGames",
          "outputs": [
            {
              "internalType": "uint256[]",
              "name": "",
              "type": "uint256[]"
            }
          ],
          "stateMutability": "view",
          "type": "function"
        },
        {
          "inputs": [
            {
              "internalType": "address",
              "name": "_player",
              "type": "address"
            },
            {
              "internalType": "uint256",
              "name": "_limit",
              "type": "uint256"
            },
            {
              "internalType": "uint256",
              "name": "_offset",
              "type": "uint256"
            }
          ],
          "name": "getPlayerHistory",
          "outputs": [
            {
              "internalType": "uint256[]",
              "name": "gameIds",
              "type": "uint256[]"
            },
            {
              "internalType": "uint256[]",
              "name": "scores",
              "type": "uint256[]"
            },
            {
              "internalType": "uint256[]",
              "name": "timestamps",
              "type": "uint256[]"
            },
            {
              "internalType": "enum IMiniGamesOnInk.GameState[]",
              "name": "states",
              "type": "uint8[]"
            }
          ],
          "stateMutability": "view",
          "type": "function"
        },
        {
          "inputs": [],
          "name": "owner",
          "outputs": [
            {
              "internalType": "address",
              "name": "",
              "type": "address"
            }
          ],
          "stateMutability": "view",
          "type": "function"
        },
        {
          "inputs": [
            {
              "internalType": "address",
              "name": "",
              "type": "address"
            },
            {
              "internalType": "uint256",
              "name": "",
              "type": "uint256"
            }
          ],
          "name": "playerGames",
          "outputs": [
            {
              "internalType": "uint256",
              "name": "",
              "type": "uint256"
            }
          ],
          "stateMutability": "view",
          "type": "function"
        },
        {
          "inputs": [],
          "name": "renounceOwnership",
          "outputs": [],
          "stateMutability": "nonpayable",
          "type": "function"
        },
        {
          "inputs": [
            {
              "internalType": "bytes",
              "name": "gameData",
              "type": "bytes"
            }
          ],
          "name": "startGame",
          "outputs": [
            {
              "internalType": "uint256",
              "name": "",
              "type": "uint256"
            }
          ],
          "stateMutability": "payable",
          "type": "function"
        },
        {
          "inputs": [
            {
              "internalType": "uint256",
              "name": "_gameId",
              "type": "uint256"
            },
            {
              "internalType": "uint256",
              "name": "_finalScore",
              "type": "uint256"
            },
            {
              "internalType": "bytes",
              "name": "_moves",
              "type": "bytes"
            }
          ],
          "name": "submitGame",
          "outputs": [],
          "stateMutability": "nonpayable",
          "type": "function"
        },
        {
          "inputs": [
            {
              "internalType": "address",
              "name": "newOwner",
              "type": "address"
            }
          ],
          "name": "transferOwnership",
          "outputs": [],
          "stateMutability": "nonpayable",
          "type": "function"
        },
        {
          "inputs": [
            {
              "internalType": "uint256",
              "name": "_newFee",
              "type": "uint256"
            }
          ],
          "name": "updateGameFee",
          "outputs": [],
          "stateMutability": "nonpayable",
          "type": "function"
        },
        {
          "inputs": [],
          "name": "withdrawFees",
          "outputs": [],
          "stateMutability": "nonpayable",
          "type": "function"
        },
        {
          "inputs": [
            {
              "internalType": "address",
              "name": "_lostToken",
              "type": "address"
            }
          ],
          "name": "withdrawLostTokens",
          "outputs": [],
          "stateMutability": "nonpayable",
          "type": "function"
        }
      ],
      "evm": {
        "bytecode": {
          "linkReferences": {},
          "object": "6080604052655af3107a400060025534801561001a57600080fd5b5033600073ffffffffffffffffffffffffffffffffffffffff168173ffffffffffffffffffffffffffffffffffffffff160361008e5760006040517f1e4fbdf700000000000000000000000000000000000000000000000000000000815260040161008591906101af565b60405180910390fd5b61009d816100aa60201b60201c565b50600180819055506101ca565b60008060009054906101000a900473ffffffffffffffffffffffffffffffffffffffff169050816000806101000a81548173ffffffffffffffffffffffffffffffffffffffff021916908373ffffffffffffffffffffffffffffffffffffffff1602179055508173ffffffffffffffffffffffffffffffffffffffff168173ffffffffffffffffffffffffffffffffffffffff167f8be0079c531659141344cd1fd0a4f28419497f9722a3daafe3b4186f6b6457e060405160405180910390a35050565b600073ffffffffffffffffffffffffffffffffffffffff82169050919050565b60006101998261016e565b9050919050565b6101a98161018e565b82525050565b60006020820190506101c460008301846101a0565b92915050565b612cc5806101d96000396000f3fe6080604052600436106101145760003560e01c80637fc4eda8116100a0578063b70a6dec11610064578063b70a6dec146103ad578063d46588bf146103d6578063dc2ac12914610416578063ea777eec14610446578063f2fde38b1461047157610114565b80637fc4eda8146102c15780638ab06fea146102ec5780638afc47541461032e5780638da5cb5b14610359578063a3546be41461038457610114565b8063476343ee116100e7578063476343ee146101e95780634edcfed614610200578063628aa9a714610243578063715018a61461026c5780637bf773451461028357610114565b80630a5694c214610119578063129daf841461015657806317092c94146101935780631bb412d6146101be575b600080fd5b34801561012557600080fd5b50610140600480360381019061013b9190611c50565b61049a565b60405161014d9190611c9f565b60405180910390f35b34801561016257600080fd5b5061017d60048036038101906101789190611cba565b6104cb565b60405161018a9190611da5565b60405180910390f35b34801561019f57600080fd5b506101a8610562565b6040516101b59190611c9f565b60405180910390f35b3480156101ca57600080fd5b506101d3610567565b6040516101e09190611c9f565b60405180910390f35b3480156101f557600080fd5b506101fe61056d565b005b34801561020c57600080fd5b5061022760048036038101906102229190611dc7565b6106c9565b60405161023a9796959493929190611f0a565b60405180910390f35b34801561024f57600080fd5b5061026a600480360381019061026591906120bc565b61086c565b005b34801561027857600080fd5b50610281610a00565b005b34801561028f57600080fd5b506102aa60048036038101906102a59190611cba565b610a14565b6040516102b892919061212b565b60405180910390f35b3480156102cd57600080fd5b506102d6610a2e565b6040516102e39190611c9f565b60405180910390f35b3480156102f857600080fd5b50610313600480360381019061030e9190611dc7565b610a33565b6040516103259695949392919061215b565b60405180910390f35b34801561033a57600080fd5b50610343610b3f565b6040516103509190611c9f565b60405180910390f35b34801561036557600080fd5b5061036e610b44565b60405161037b91906121c3565b60405180910390f35b34801561039057600080fd5b506103ab60048036038101906103a69190611cba565b610b6d565b005b3480156103b957600080fd5b506103d460048036038101906103cf9190611dc7565b610d73565b005b3480156103e257600080fd5b506103fd60048036038101906103f891906121de565b610dc6565b60405161040d94939291906122ef565b60405180910390f35b610430600480360381019061042b9190612350565b610dec565b60405161043d9190611c9f565b60405180910390f35b34801561045257600080fd5b5061045b610f42565b6040516104689190611c9f565b60405180910390f35b34801561047d57600080fd5b5061049860048036038101906104939190611cba565b610f48565b005b600360205281600052604060002081815481106104b657600080fd5b90600052602060002001600091509150505481565b6060600360008373ffffffffffffffffffffffffffffffffffffffff1673ffffffffffffffffffffffffffffffffffffffff16815260200190815260200160002080548060200260200160405190810160405280929190818152602001828054801561055657602002820191906000526020600020905b815481526020019060010190808311610542575b50505050509050919050565b600381565b60055481565b610575610fce565b6000479050600081116105bd576040517f08c379a00000000000000000000000000000000000000000000000000000000081526004016105b4906123f6565b60405180910390fd5b60006105c7610b44565b73ffffffffffffffffffffffffffffffffffffffff16826040516105ea90612447565b60006040518083038185875af1925050503d8060008114610627576040519150601f19603f3d011682016040523d82523d6000602084013e61062c565b606091505b5050905080610670576040517f08c379a0000000000000000000000000000000000000000000000000000000008152600401610667906124a8565b60405180910390fd5b610678610b44565b73ffffffffffffffffffffffffffffffffffffffff167fc0819c13be868895eb93e40eaceb96de976442fa1d404e5c55f14bb65a8c489a836040516106bd9190611c9f565b60405180910390a25050565b6000606060008060006060600080600460008a815260200190815260200160002090508060000160009054906101000a900473ffffffffffffffffffffffffffffffffffffffff1681600201826003015483600401548460050154856006018660070160009054906101000a900460ff16858054610746906124f7565b80601f0160208091040260200160405190810160405280929190818152602001828054610772906124f7565b80156107bf5780601f10610794576101008083540402835291602001916107bf565b820191906000526020600020905b8154815290600101906020018083116107a257829003601f168201915b505050505095508180546107d2906124f7565b80601f01602080910402602001604051908101604052809291908181526020018280546107fe906124f7565b801561084b5780601f106108205761010080835404028352916020019161084b565b820191906000526020600020905b81548152906001019060200180831161082e57829003601f168201915b50505050509150975097509750975097509750975050919395979092949650565b610874611055565b60006004600085815260200190815260200160002090503373ffffffffffffffffffffffffffffffffffffffff168160000160009054906101000a900473ffffffffffffffffffffffffffffffffffffffff1673ffffffffffffffffffffffffffffffffffffffff161461091d576040517f08c379a000000000000000000000000000000000000000000000000000000000815260040161091490612574565b60405180910390fd5b6000600281111561093157610930611e93565b5b8160070160009054906101000a900460ff16600281111561095557610954611e93565b5b14610995576040517f08c379a000000000000000000000000000000000000000000000000000000000815260040161098c906125e0565b60405180910390fd5b6109a081848461109b565b833373ffffffffffffffffffffffffffffffffffffffff167f02bc913790ab631ec32c90d78f72b9b8ef68289c2dcd586f7da9c36b244a2ed48585516040516109ea929190612600565b60405180910390a3506109fb6110f1565b505050565b610a08610fce565b610a1260006110fa565b565b60006060610a2560036004856111be565b91509150915091565b601981565b60008060008060606000806004600089815260200190815260200160002090508060000160009054906101000a900473ffffffffffffffffffffffffffffffffffffffff16816003015482600401548360050154846006018560070160009054906101000a900460ff16818054610aa9906124f7565b80601f0160208091040260200160405190810160405280929190818152602001828054610ad5906124f7565b8015610b225780601f10610af757610100808354040283529160200191610b22565b820191906000526020600020905b815481529060010190602001808311610b0557829003601f168201915b505050505091509650965096509650965096505091939550919395565b600581565b60008060009054906101000a900473ffffffffffffffffffffffffffffffffffffffff16905090565b610b75610fce565b600073ffffffffffffffffffffffffffffffffffffffff168173ffffffffffffffffffffffffffffffffffffffff1603610be4576040517f08c379a0000000000000000000000000000000000000000000000000000000008152600401610bdb90612675565b60405180910390fd5b600081905060008173ffffffffffffffffffffffffffffffffffffffff166370a08231306040518263ffffffff1660e01b8152600401610c2491906121c3565b602060405180830381865afa158015610c41573d6000803e3d6000fd5b505050506040513d601f19601f82011682018060405250810190610c6591906126aa565b905060008111610caa576040517f08c379a0000000000000000000000000000000000000000000000000000000008152600401610ca190612723565b60405180910390fd5b8173ffffffffffffffffffffffffffffffffffffffff1663a9059cbb610cce610b44565b836040518363ffffffff1660e01b8152600401610cec929190612743565b6020604051808303816000875af1158015610d0b573d6000803e3d6000fd5b505050506040513d601f19601f82011682018060405250810190610d2f91906127a4565b610d6e576040517f08c379a0000000000000000000000000000000000000000000000000000000008152600401610d659061281d565b60405180910390fd5b505050565b610d7b610fce565b60006002549050816002819055507f75aef5483b24548953e5e86df155417ee9e1b8a174ad54f9c1a2211ab03822c28183604051610dba929190612600565b60405180910390a15050565b606080606080610ddb6003600489898961134c565b935093509350935093509350935093565b6000610df6611055565b600254341015610e3b576040517f08c379a0000000000000000000000000000000000000000000000000000000008152600401610e3290612889565b60405180910390fd5b600080610e4b6003600433611786565b915091508115610e9a57803373ffffffffffffffffffffffffffffffffffffffff167fc8fea8853b9a09335acd8a7a289338cd416b10c98090b62aa8361950b866303d60405160405180910390a35b60056000815480929190610ead906128d8565b919050555060006005549050610ec8600460038333896118b6565b610ed560066007336119cd565b803373ffffffffffffffffffffffffffffffffffffffff167fb93756cd05fbb5bda0c87e5d77406d7b7e3649fe1327f6783b4e28bb5789d96987604051610f1c9190612920565b60405180910390a3610f2f600254611adc565b809350505050610f3d6110f1565b919050565b60025481565b610f50610fce565b600073ffffffffffffffffffffffffffffffffffffffff168173ffffffffffffffffffffffffffffffffffffffff1603610fc25760006040517f1e4fbdf7000000000000000000000000000000000000000000000000000000008152600401610fb991906121c3565b60405180910390fd5b610fcb816110fa565b50565b610fd6611ba0565b73ffffffffffffffffffffffffffffffffffffffff16610ff4610b44565b73ffffffffffffffffffffffffffffffffffffffff161461105357611017611ba0565b6040517f118cdaa700000000000000000000000000000000000000000000000000000000815260040161104a91906121c3565b60405180910390fd5b565b600260015403611091576040517f3ee5aeb500000000000000000000000000000000000000000000000000000000815260040160405180910390fd5b6002600181905550565b818360050181905550808360060190816110b59190612aee565b5042836004018190555060018360070160006101000a81548160ff021916908360028111156110e7576110e6611e93565b5b0217905550505050565b60018081905550565b60008060009054906101000a900473ffffffffffffffffffffffffffffffffffffffff169050816000806101000a81548173ffffffffffffffffffffffffffffffffffffffff021916908373ffffffffffffffffffffffffffffffffffffffff1602179055508173ffffffffffffffffffffffffffffffffffffffff168173ffffffffffffffffffffffffffffffffffffffff167f8be0079c531659141344cd1fd0a4f28419497f9722a3daafe3b4186f6b6457e060405160405180910390a35050565b6000606060008560008573ffffffffffffffffffffffffffffffffffffffff1673ffffffffffffffffffffffffffffffffffffffff1681526020019081526020016000209050600081805490500361121a576000925050611344565b6000816001838054905061122e9190612bc0565b8154811061123f5761123e612bf4565b5b90600052602060002001549050600086600083815260200190815260200160002090506000600281111561127657611275611e93565b5b8160070160009054906101000a900460ff16600281111561129a57611299611e93565b5b0361133c5781816002018080546112b0906124f7565b80601f01602080910402602001604051908101604052809291908181526020018280546112dc906124f7565b80156113295780601f106112fe57610100808354040283529160200191611329565b820191906000526020600020905b81548152906001019060200180831161130c57829003601f168201915b5050505050905094509450505050611344565b600094505050505b935093915050565b60608060608060008960008973ffffffffffffffffffffffffffffffffffffffff1673ffffffffffffffffffffffffffffffffffffffff16815260200190815260200160002090506000818054905090508087106114db57600067ffffffffffffffff8111156113bf576113be611f91565b5b6040519080825280602002602001820160405280156113ed5781602001602082028036833780820191505090505b50600067ffffffffffffffff81111561140957611408611f91565b5b6040519080825280602002602001820160405280156114375781602001602082028036833780820191505090505b50600067ffffffffffffffff81111561145357611452611f91565b5b6040519080825280602002602001820160405280156114815781602001602082028036833780820191505090505b50600067ffffffffffffffff81111561149d5761149c611f91565b5b6040519080825280602002602001820160405280156114cb5781602001602082028036833780820191505090505b509550955095509550505061177a565b600087826114e99190612bc0565b905060008982106114fa57896114fc565b815b90508067ffffffffffffffff81111561151857611517611f91565b5b6040519080825280602002602001820160405280156115465781602001602082028036833780820191505090505b5097508067ffffffffffffffff81111561156357611562611f91565b5b6040519080825280602002602001820160405280156115915781602001602082028036833780820191505090505b5096508067ffffffffffffffff8111156115ae576115ad611f91565b5b6040519080825280602002602001820160405280156115dc5781602001602082028036833780820191505090505b5095508067ffffffffffffffff8111156115f9576115f8611f91565b5b6040519080825280602002602001820160405280156116275781602001602082028036833780820191505090505b50945060005b8181101561177457600085828c6001886116479190612bc0565b6116519190612bc0565b61165b9190612bc0565b8154811061166c5761166b612bf4565b5b9060005260206000200154905060008e60008381526020019081526020016000209050818b84815181106116a3576116a2612bf4565b5b60200260200101818152505080600501548a84815181106116c7576116c6612bf4565b5b60200260200101818152505060008160040154116116e95780600301546116ef565b80600401545b89848151811061170257611701612bf4565b5b6020026020010181815250508060070160009054906101000a900460ff1688848151811061173357611732612bf4565b5b6020026020010190600281111561174d5761174c611e93565b5b9081600281111561176157611760611e93565b5b815250505050808060010191505061162d565b50505050505b95509550955095915050565b60008060008560008573ffffffffffffffffffffffffffffffffffffffff1673ffffffffffffffffffffffffffffffffffffffff16815260200190815260200160002090506000818054905011156118a557600081600183805490506117ec9190612bc0565b815481106117fd576117fc612bf4565b5b90600052602060002001549050600086600083815260200190815260200160002090506000600281111561183457611833611e93565b5b8160070160009054906101000a900460ff16600281111561185857611857611e93565b5b036118a25760028160070160006101000a81548160ff0219169083600281111561188557611884611e93565b5b0217905550428160040181905550600182945094505050506118ae565b50505b60008092509250505b935093915050565b60008560008581526020019081526020016000209050828160000160006101000a81548173ffffffffffffffffffffffffffffffffffffffff021916908373ffffffffffffffffffffffffffffffffffffffff160217905550838160010181905550818160020190816119299190612aee565b5042816003018190555060008160070160006101000a81548160ff0219169083600281111561195b5761195a611e93565b5b02179055508460008473ffffffffffffffffffffffffffffffffffffffff1673ffffffffffffffffffffffffffffffffffffffff168152602001908152602001600020849080600181540180825580915050600190039060005260206000200160009091909190915055505050505050565b8160008273ffffffffffffffffffffffffffffffffffffffff1673ffffffffffffffffffffffffffffffffffffffff16815260200190815260200160002060009054906101000a900460ff16611ad75782819080600181540180825580915050600190039060005260206000200160009091909190916101000a81548173ffffffffffffffffffffffffffffffffffffffff021916908373ffffffffffffffffffffffffffffffffffffffff16021790555060018260008373ffffffffffffffffffffffffffffffffffffffff1673ffffffffffffffffffffffffffffffffffffffff16815260200190815260200160002060006101000a81548160ff0219169083151502179055505b505050565b80341115611b9d5760003373ffffffffffffffffffffffffffffffffffffffff168234611b099190612bc0565b604051611b1590612447565b60006040518083038185875af1925050503d8060008114611b52576040519150601f19603f3d011682016040523d82523d6000602084013e611b57565b606091505b5050905080611b9b576040517f08c379a0000000000000000000000000000000000000000000000000000000008152600401611b9290612c6f565b60405180910390fd5b505b50565b600033905090565b6000604051905090565b600080fd5b600080fd5b600073ffffffffffffffffffffffffffffffffffffffff82169050919050565b6000611be782611bbc565b9050919050565b611bf781611bdc565b8114611c0257600080fd5b50565b600081359050611c1481611bee565b92915050565b6000819050919050565b611c2d81611c1a565b8114611c3857600080fd5b50565b600081359050611c4a81611c24565b92915050565b60008060408385031215611c6757611c66611bb2565b5b6000611c7585828601611c05565b9250506020611c8685828601611c3b565b9150509250929050565b611c9981611c1a565b82525050565b6000602082019050611cb46000830184611c90565b92915050565b600060208284031215611cd057611ccf611bb2565b5b6000611cde84828501611c05565b91505092915050565b600081519050919050565b600082825260208201905092915050565b6000819050602082019050919050565b611d1c81611c1a565b82525050565b6000611d2e8383611d13565b60208301905092915050565b6000602082019050919050565b6000611d5282611ce7565b611d5c8185611cf2565b9350611d6783611d03565b8060005b83811015611d98578151611d7f8882611d22565b9750611d8a83611d3a565b925050600181019050611d6b565b5085935050505092915050565b60006020820190508181036000830152611dbf8184611d47565b905092915050565b600060208284031215611ddd57611ddc611bb2565b5b6000611deb84828501611c3b565b91505092915050565b611dfd81611bdc565b82525050565b600081519050919050565b600082825260208201905092915050565b60005b83811015611e3d578082015181840152602081019050611e22565b60008484015250505050565b6000601f19601f8301169050919050565b6000611e6582611e03565b611e6f8185611e0e565b9350611e7f818560208601611e1f565b611e8881611e49565b840191505092915050565b7f4e487b7100000000000000000000000000000000000000000000000000000000600052602160045260246000fd5b60038110611ed357611ed2611e93565b5b50565b6000819050611ee482611ec2565b919050565b6000611ef482611ed6565b9050919050565b611f0481611ee9565b82525050565b600060e082019050611f1f600083018a611df4565b8181036020830152611f318189611e5a565b9050611f406040830188611c90565b611f4d6060830187611c90565b611f5a6080830186611c90565b81810360a0830152611f6c8185611e5a565b9050611f7b60c0830184611efb565b98975050505050505050565b600080fd5b600080fd5b7f4e487b7100000000000000000000000000000000000000000000000000000000600052604160045260246000fd5b611fc982611e49565b810181811067ffffffffffffffff82111715611fe857611fe7611f91565b5b80604052505050565b6000611ffb611ba8565b90506120078282611fc0565b919050565b600067ffffffffffffffff82111561202757612026611f91565b5b61203082611e49565b9050602081019050919050565b82818337600083830152505050565b600061205f61205a8461200c565b611ff1565b90508281526020810184848401111561207b5761207a611f8c565b5b61208684828561203d565b509392505050565b600082601f8301126120a3576120a2611f87565b5b81356120b384826020860161204c565b91505092915050565b6000806000606084860312156120d5576120d4611bb2565b5b60006120e386828701611c3b565b93505060206120f486828701611c3b565b925050604084013567ffffffffffffffff81111561211557612114611bb7565b5b6121218682870161208e565b9150509250925092565b60006040820190506121406000830185611c90565b81810360208301526121528184611e5a565b90509392505050565b600060c0820190506121706000830189611df4565b61217d6020830188611c90565b61218a6040830187611c90565b6121976060830186611c90565b81810360808301526121a98185611e5a565b90506121b860a0830184611efb565b979650505050505050565b60006020820190506121d86000830184611df4565b92915050565b6000806000606084860312156121f7576121f6611bb2565b5b600061220586828701611c05565b935050602061221686828701611c3b565b925050604061222786828701611c3b565b9150509250925092565b600081519050919050565b600082825260208201905092915050565b6000819050602082019050919050565b61226681611ee9565b82525050565b6000612278838361225d565b60208301905092915050565b6000602082019050919050565b600061229c82612231565b6122a6818561223c565b93506122b18361224d565b8060005b838110156122e25781516122c9888261226c565b97506122d483612284565b9250506001810190506122b5565b5085935050505092915050565b600060808201905081810360008301526123098187611d47565b9050818103602083015261231d8186611d47565b905081810360408301526123318185611d47565b905081810360608301526123458184612291565b905095945050505050565b60006020828403121561236657612365611bb2565b5b600082013567ffffffffffffffff81111561238457612383611bb7565b5b6123908482850161208e565b91505092915050565b600082825260208201905092915050565b7f4e6f206665657320746f20776974686472617700000000000000000000000000600082015250565b60006123e0601383612399565b91506123eb826123aa565b602082019050919050565b6000602082019050818103600083015261240f816123d3565b9050919050565b600081905092915050565b50565b6000612431600083612416565b915061243c82612421565b600082019050919050565b600061245282612424565b9150819050919050565b7f5769746864726177616c206661696c6564000000000000000000000000000000600082015250565b6000612492601183612399565b915061249d8261245c565b602082019050919050565b600060208201905081810360008301526124c181612485565b9050919050565b7f4e487b7100000000000000000000000000000000000000000000000000000000600052602260045260246000fd5b6000600282049050600182168061250f57607f821691505b602082108103612522576125216124c8565b5b50919050565b7f4e6f7420796f75722067616d6500000000000000000000000000000000000000600082015250565b600061255e600d83612399565b915061256982612528565b602082019050919050565b6000602082019050818103600083015261258d81612551565b9050919050565b7f47616d65206e6f74206163746976650000000000000000000000000000000000600082015250565b60006125ca600f83612399565b91506125d582612594565b602082019050919050565b600060208201905081810360008301526125f9816125bd565b9050919050565b60006040820190506126156000830185611c90565b6126226020830184611c90565b9392505050565b7f496e76616c696420746f6b656e20616464726573730000000000000000000000600082015250565b600061265f601583612399565b915061266a82612629565b602082019050919050565b6000602082019050818103600083015261268e81612652565b9050919050565b6000815190506126a481611c24565b92915050565b6000602082840312156126c0576126bf611bb2565b5b60006126ce84828501612695565b91505092915050565b7f4e6f20746f6b656e7320746f2077697468647261770000000000000000000000600082015250565b600061270d601583612399565b9150612718826126d7565b602082019050919050565b6000602082019050818103600083015261273c81612700565b9050919050565b60006040820190506127586000830185611df4565b6127656020830184611c90565b9392505050565b60008115159050919050565b6127818161276c565b811461278c57600080fd5b50565b60008151905061279e81612778565b92915050565b6000602082840312156127ba576127b9611bb2565b5b60006127c88482850161278f565b91505092915050565b7f546f6b656e207472616e73666572206661696c65640000000000000000000000600082015250565b6000612807601583612399565b9150612812826127d1565b602082019050919050565b60006020820190508181036000830152612836816127fa565b9050919050565b7f496e73756666696369656e742067616d65206665650000000000000000000000600082015250565b6000612873601583612399565b915061287e8261283d565b602082019050919050565b600060208201905081810360008301526128a281612866565b9050919050565b7f4e487b7100000000000000000000000000000000000000000000000000000000600052601160045260246000fd5b60006128e382611c1a565b91507fffffffffffffffffffffffffffffffffffffffffffffffffffffffffffffffff8203612915576129146128a9565b5b600182019050919050565b6000602082019050818103600083015261293a8184611e5a565b905092915050565b60008190508160005260206000209050919050565b60006020601f8301049050919050565b600082821b905092915050565b6000600883026129a47fffffffffffffffffffffffffffffffffffffffffffffffffffffffffffffffff82612967565b6129ae8683612967565b95508019841693508086168417925050509392505050565b6000819050919050565b60006129eb6129e66129e184611c1a565b6129c6565b611c1a565b9050919050565b6000819050919050565b612a05836129d0565b612a19612a11826129f2565b848454612974565b825550505050565b600090565b612a2e612a21565b612a398184846129fc565b505050565b5b81811015612a5d57612a52600082612a26565b600181019050612a3f565b5050565b601f821115612aa257612a7381612942565b612a7c84612957565b81016020851015612a8b578190505b612a9f612a9785612957565b830182612a3e565b50505b505050565b600082821c905092915050565b6000612ac560001984600802612aa7565b1980831691505092915050565b6000612ade8383612ab4565b9150826002028217905092915050565b612af782611e03565b67ffffffffffffffff811115612b1057612b0f611f91565b5b612b1a82546124f7565b612b25828285612a61565b600060209050601f831160018114612b585760008415612b46578287015190505b612b508582612ad2565b865550612bb8565b601f198416612b6686612942565b60005b82811015612b8e57848901518255600182019150602085019450602081019050612b69565b86831015612bab5784890151612ba7601f891682612ab4565b8355505b6001600288020188555050505b505050505050565b6000612bcb82611c1a565b9150612bd683611c1a565b9250828203905081811115612bee57612bed6128a9565b5b92915050565b7f4e487b7100000000000000000000000000000000000000000000000000000000600052603260045260246000fd5b7f526566756e64206661696c656400000000000000000000000000000000000000600082015250565b6000612c59600d83612399565b9150612c6482612c23565b602082019050919050565b60006020820190508181036000830152612c8881612c4c565b905091905056fea2646970667358221220fd6c19142921c99c82ba2e65f8800378a64c5387404f7d3bfbbe378984be045964736f6c634300081c0033",
          "opcodes": "PUSH1 0x80 PUSH1 0x40 MSTORE PUSH6 0x5AF3107A4000 PUSH1 0x2 SSTORE CALLVALUE DUP1 ISZERO PUSH2 0x1A JUMPI PUSH1 0x0 DUP1 REVERT JUMPDEST POP CALLER PUSH1 0x0 PUSH20 0xFFFFFFFFFFFFFFFFFFFFFFFFFFFFFFFFFFFFFFFF AND DUP2 PUSH20 0xFFFFFFFFFFFFFFFFFFFFFFFFFFFFFFFFFFFFFFFF AND SUB PUSH2 0x8E JUMPI PUSH1 0x0 PUSH1 0x40 MLOAD PUSH32 0x1E4FBDF700000000000000000000000000000000000000000000000000000000 DUP2 MSTORE PUSH1 0x4 ADD PUSH2 0x85 SWAP2 SWAP1 PUSH2 0x1AF JUMP JUMPDEST PUSH1 0x40 MLOAD DUP1 SWAP2 SUB SWAP1 REVERT JUMPDEST PUSH2 0x9D DUP2 PUSH2 0xAA PUSH1 0x20 SHL PUSH1 0x20 SHR JUMP JUMPDEST POP PUSH1 0x1 DUP1 DUP2 SWAP1 SSTORE POP PUSH2 0x1CA JUMP JUMPDEST PUSH1 0x0 DUP1 PUSH1 0x0 SWAP1 SLOAD SWAP1 PUSH2 0x100 EXP SWAP1 DIV PUSH20 0xFFFFFFFFFFFFFFFFFFFFFFFFFFFFFFFFFFFFFFFF AND SWAP1 POP DUP2 PUSH1 0x0 DUP1 PUSH2 0x100 EXP DUP2 SLOAD DUP2 PUSH20 0xFFFFFFFFFFFFFFFFFFFFFFFFFFFFFFFFFFFFFFFF MUL NOT AND SWAP1 DUP4 PUSH20 0xFFFFFFFFFFFFFFFFFFFFFFFFFFFFFFFFFFFFFFFF AND MUL OR SWAP1 SSTORE POP DUP2 PUSH20 0xFFFFFFFFFFFFFFFFFFFFFFFFFFFFFFFFFFFFFFFF AND DUP2 PUSH20 0xFFFFFFFFFFFFFFFFFFFFFFFFFFFFFFFFFFFFFFFF AND PUSH32 0x8BE0079C531659141344CD1FD0A4F28419497F9722A3DAAFE3B4186F6B6457E0 PUSH1 0x40 MLOAD PUSH1 0x40 MLOAD DUP1 SWAP2 SUB SWAP1 LOG3 POP POP JUMP JUMPDEST PUSH1 0x0 PUSH20 0xFFFFFFFFFFFFFFFFFFFFFFFFFFFFFFFFFFFFFFFF DUP3 AND SWAP1 POP SWAP2 SWAP1 POP JUMP JUMPDEST PUSH1 0x0 PUSH2 0x199 DUP3 PUSH2 0x16E JUMP JUMPDEST SWAP1 POP SWAP2 SWAP1 POP JUMP JUMPDEST PUSH2 0x1A9 DUP2 PUSH2 0x18E JUMP JUMPDEST DUP3 MSTORE POP POP JUMP JUMPDEST PUSH1 0x0 PUSH1 0x20 DUP3 ADD SWAP1 POP PUSH2 0x1C4 PUSH1 0x0 DUP4 ADD DUP5 PUSH2 0x1A0 JUMP JUMPDEST SWAP3 SWAP2 POP POP JUMP JUMPDEST PUSH2 0x2CC5 DUP1 PUSH2 0x1D9 PUSH1 0x0 CODECOPY PUSH1 0x0 RETURN INVALID PUSH1 0x80 PUSH1 0x40 MSTORE PUSH1 0x4 CALLDATASIZE LT PUSH2 0x114 JUMPI PUSH1 0x0 CALLDATALOAD PUSH1 0xE0 SHR DUP1 PUSH4 0x7FC4EDA8 GT PUSH2 0xA0 JUMPI DUP1 PUSH4 0xB70A6DEC GT PUSH2 0x64 JUMPI DUP1 PUSH4 0xB70A6DEC EQ PUSH2 0x3AD JUMPI DUP1 PUSH4 0xD46588BF EQ PUSH2 0x3D6 JUMPI DUP1 PUSH4 0xDC2AC129 EQ PUSH2 0x416 JUMPI DUP1 PUSH4 0xEA777EEC EQ PUSH2 0x446 JUMPI DUP1 PUSH4 0xF2FDE38B EQ PUSH2 0x471 JUMPI PUSH2 0x114 JUMP JUMPDEST DUP1 PUSH4 0x7FC4EDA8 EQ PUSH2 0x2C1 JUMPI DUP1 PUSH4 0x8AB06FEA EQ PUSH2 0x2EC JUMPI DUP1 PUSH4 0x8AFC4754 EQ PUSH2 0x32E JUMPI DUP1 PUSH4 0x8DA5CB5B EQ PUSH2 0x359 JUMPI DUP1 PUSH4 0xA3546BE4 EQ PUSH2 0x384 JUMPI PUSH2 0x114 JUMP JUMPDEST DUP1 PUSH4 0x476343EE GT PUSH2 0xE7 JUMPI DUP1 PUSH4 0x476343EE EQ PUSH2 0x1E9 JUMPI DUP1 PUSH4 0x4EDCFED6 EQ PUSH2 0x200 JUMPI DUP1 PUSH4 0x628AA9A7 EQ PUSH2 0x243 JUMPI DUP1 PUSH4 0x715018A6 EQ PUSH2 0x26C JUMPI DUP1 PUSH4 0x7BF77345 EQ PUSH2 0x283 JUMPI PUSH2 0x114 JUMP JUMPDEST DUP1 PUSH4 0xA5694C2 EQ PUSH2 0x119 JUMPI DUP1 PUSH4 0x129DAF84 EQ PUSH2 0x156 JUMPI DUP1 PUSH4 0x17092C94 EQ PUSH2 0x193 JUMPI DUP1 PUSH4 0x1BB412D6 EQ PUSH2 0x1BE JUMPI JUMPDEST PUSH1 0x0 DUP1 REVERT JUMPDEST CALLVALUE DUP1 ISZERO PUSH2 0x125 JUMPI PUSH1 0x0 DUP1 REVERT JUMPDEST POP PUSH2 0x140 PUSH1 0x4 DUP1 CALLDATASIZE SUB DUP2 ADD SWAP1 PUSH2 0x13B SWAP2 SWAP1 PUSH2 0x1C50 JUMP JUMPDEST PUSH2 0x49A JUMP JUMPDEST PUSH1 0x40 MLOAD PUSH2 0x14D SWAP2 SWAP1 PUSH2 0x1C9F JUMP JUMPDEST PUSH1 0x40 MLOAD DUP1 SWAP2 SUB SWAP1 RETURN JUMPDEST CALLVALUE DUP1 ISZERO PUSH2 0x162 JUMPI PUSH1 0x0 DUP1 REVERT JUMPDEST POP PUSH2 0x17D PUSH1 0x4 DUP1 CALLDATASIZE SUB DUP2 ADD SWAP1 PUSH2 0x178 SWAP2 SWAP1 PUSH2 0x1CBA JUMP JUMPDEST PUSH2 0x4CB JUMP JUMPDEST PUSH1 0x40 MLOAD PUSH2 0x18A SWAP2 SWAP1 PUSH2 0x1DA5 JUMP JUMPDEST PUSH1 0x40 MLOAD DUP1 SWAP2 SUB SWAP1 RETURN JUMPDEST CALLVALUE DUP1 ISZERO PUSH2 0x19F JUMPI PUSH1 0x0 DUP1 REVERT JUMPDEST POP PUSH2 0x1A8 PUSH2 0x562 JUMP JUMPDEST PUSH1 0x40 MLOAD PUSH2 0x1B5 SWAP2 SWAP1 PUSH2 0x1C9F JUMP JUMPDEST PUSH1 0x40 MLOAD DUP1 SWAP2 SUB SWAP1 RETURN JUMPDEST CALLVALUE DUP1 ISZERO PUSH2 0x1CA JUMPI PUSH1 0x0 DUP1 REVERT JUMPDEST POP PUSH2 0x1D3 PUSH2 0x567 JUMP JUMPDEST PUSH1 0x40 MLOAD PUSH2 0x1E0 SWAP2 SWAP1 PUSH2 0x1C9F JUMP JUMPDEST PUSH1 0x40 MLOAD DUP1 SWAP2 SUB SWAP1 RETURN JUMPDEST CALLVALUE DUP1 ISZERO PUSH2 0x1F5 JUMPI PUSH1 0x0 DUP1 REVERT JUMPDEST POP PUSH2 0x1FE PUSH2 0x56D JUMP JUMPDEST STOP JUMPDEST CALLVALUE DUP1 ISZERO PUSH2 0x20C JUMPI PUSH1 0x0 DUP1 REVERT JUMPDEST POP PUSH2 0x227 PUSH1 0x4 DUP1 CALLDATASIZE SUB DUP2 ADD SWAP1 PUSH2 0x222 SWAP2 SWAP1 PUSH2 0x1DC7 JUMP JUMPDEST PUSH2 0x6C9 JUMP JUMPDEST PUSH1 0x40 MLOAD PUSH2 0x23A SWAP8 SWAP7 SWAP6 SWAP5 SWAP4 SWAP3 SWAP2 SWAP1 PUSH2 0x1F0A JUMP JUMPDEST PUSH1 0x40 MLOAD DUP1 SWAP2 SUB SWAP1 RETURN JUMPDEST CALLVALUE DUP1 ISZERO PUSH2 0x24F JUMPI PUSH1 0x0 DUP1 REVERT JUMPDEST POP PUSH2 0x26A PUSH1 0x4 DUP1 CALLDATASIZE SUB DUP2 ADD SWAP1 PUSH2 0x265 SWAP2 SWAP1 PUSH2 0x20BC JUMP JUMPDEST PUSH2 0x86C JUMP JUMPDEST STOP JUMPDEST CALLVALUE DUP1 ISZERO PUSH2 0x278 JUMPI PUSH1 0x0 DUP1 REVERT JUMPDEST POP PUSH2 0x281 PUSH2 0xA00 JUMP JUMPDEST STOP JUMPDEST CALLVALUE DUP1 ISZERO PUSH2 0x28F JUMPI PUSH1 0x0 DUP1 REVERT JUMPDEST POP PUSH2 0x2AA PUSH1 0x4 DUP1 CALLDATASIZE SUB DUP2 ADD SWAP1 PUSH2 0x2A5 SWAP2 SWAP1 PUSH2 0x1CBA JUMP JUMPDEST PUSH2 0xA14 JUMP JUMPDEST PUSH1 0x40 MLOAD PUSH2 0x2B8 SWAP3 SWAP2 SWAP1 PUSH2 0x212B JUMP JUMPDEST PUSH1 0x40 MLOAD DUP1 SWAP2 SUB SWAP1 RETURN JUMPDEST CALLVALUE DUP1 ISZERO PUSH2 0x2CD JUMPI PUSH1 0x0 DUP1 REVERT JUMPDEST POP PUSH2 0x2D6 PUSH2 0xA2E JUMP JUMPDEST PUSH1 0x40 MLOAD PUSH2 0x2E3 SWAP2 SWAP1 PUSH2 0x1C9F JUMP JUMPDEST PUSH1 0x40 MLOAD DUP1 SWAP2 SUB SWAP1 RETURN JUMPDEST CALLVALUE DUP1 ISZERO PUSH2 0x2F8 JUMPI PUSH1 0x0 DUP1 REVERT JUMPDEST POP PUSH2 0x313 PUSH1 0x4 DUP1 CALLDATASIZE SUB DUP2 ADD SWAP1 PUSH2 0x30E SWAP2 SWAP1 PUSH2 0x1DC7 JUMP JUMPDEST PUSH2 0xA33 JUMP JUMPDEST PUSH1 0x40 MLOAD PUSH2 0x325 SWAP7 SWAP6 SWAP5 SWAP4 SWAP3 SWAP2 SWAP1 PUSH2 0x215B JUMP JUMPDEST PUSH1 0x40 MLOAD DUP1 SWAP2 SUB SWAP1 RETURN JUMPDEST CALLVALUE DUP1 ISZERO PUSH2 0x33A JUMPI PUSH1 0x0 DUP1 REVERT JUMPDEST POP PUSH2 0x343 PUSH2 0xB3F JUMP JUMPDEST PUSH1 0x40 MLOAD PUSH2 0x350 SWAP2 SWAP1 PUSH2 0x1C9F JUMP JUMPDEST PUSH1 0x40 MLOAD DUP1 SWAP2 SUB SWAP1 RETURN JUMPDEST CALLVALUE DUP1 ISZERO PUSH2 0x365 JUMPI PUSH1 0x0 DUP1 REVERT JUMPDEST POP PUSH2 0x36E PUSH2 0xB44 JUMP JUMPDEST PUSH1 0x40 MLOAD PUSH2 0x37B SWAP2 SWAP1 PUSH2 0x21C3 JUMP JUMPDEST PUSH1 0x40 MLOAD DUP1 SWAP2 SUB SWAP1 RETURN JUMPDEST CALLVALUE DUP1 ISZERO PUSH2 0x390 JUMPI PUSH1 0x0 DUP1 REVERT JUMPDEST POP PUSH2 0x3AB PUSH1 0x4 DUP1 CALLDATASIZE SUB DUP2 ADD SWAP1 PUSH2 0x3A6 SWAP2 SWAP1 PUSH2 0x1CBA JUMP JUMPDEST PUSH2 0xB6D JUMP JUMPDEST STOP JUMPDEST CALLVALUE DUP1 ISZERO PUSH2 0x3B9 JUMPI PUSH1 0x0 DUP1 REVERT JUMPDEST POP PUSH2 0x3D4 PUSH1 0x4 DUP1 CALLDATASIZE SUB DUP2 ADD SWAP1 PUSH2 0x3CF SWAP2 SWAP1 PUSH2 0x1DC7 JUMP JUMPDEST PUSH2 0xD73 JUMP JUMPDEST STOP JUMPDEST CALLVALUE DUP1 ISZERO PUSH2 0x3E2 JUMPI PUSH1 0x0 DUP1 REVERT JUMPDEST POP PUSH2 0x3FD PUSH1 0x4 DUP1 CALLDATASIZE SUB DUP2 ADD SWAP1 PUSH2 0x3F8 SWAP2 SWAP1 PUSH2 0x21DE JUMP JUMPDEST PUSH2 0xDC6 JUMP JUMPDEST PUSH1 0x40 MLOAD PUSH2 0x40D SWAP5 SWAP4 SWAP3 SWAP2 SWAP1 PUSH2 0x22EF JUMP JUMPDEST PUSH1 0x40 MLOAD DUP1 SWAP2 SUB SWAP1 RETURN JUMPDEST PUSH2 0x430 PUSH1 0x4 DUP1 CALLDATASIZE SUB DUP2 ADD SWAP1 PUSH2 0x42B SWAP2 SWAP1 PUSH2 0x2350 JUMP JUMPDEST PUSH2 0xDEC JUMP JUMPDEST PUSH1 0x40 MLOAD PUSH2 0x43D SWAP2 SWAP1 PUSH2 0x1C9F JUMP JUMPDEST PUSH1 0x40 MLOAD DUP1 SWAP2 SUB SWAP1 RETURN JUMPDEST CALLVALUE DUP1 ISZERO PUSH2 0x452 JUMPI PUSH1 0x0 DUP1 REVERT JUMPDEST POP PUSH2 0x45B PUSH2 0xF42 JUMP JUMPDEST PUSH1 0x40 MLOAD PUSH2 0x468 SWAP2 SWAP1 PUSH2 0x1C9F JUMP JUMPDEST PUSH1 0x40 MLOAD DUP1 SWAP2 SUB SWAP1 RETURN JUMPDEST CALLVALUE DUP1 ISZERO PUSH2 0x47D JUMPI PUSH1 0x0 DUP1 REVERT JUMPDEST POP PUSH2 0x498 PUSH1 0x4 DUP1 CALLDATASIZE SUB DUP2 ADD SWAP1 PUSH2 0x493 SWAP2 SWAP1 PUSH2 0x1CBA JUMP JUMPDEST PUSH2 0xF48 JUMP JUMPDEST STOP JUMPDEST PUSH1 0x3 PUSH1 0x20 MSTORE DUP2 PUSH1 0x0 MSTORE PUSH1 0x40 PUSH1 0x0 KECCAK256 DUP2 DUP2 SLOAD DUP2 LT PUSH2 0x4B6 JUMPI PUSH1 0x0 DUP1 REVERT JUMPDEST SWAP1 PUSH1 0x0 MSTORE PUSH1 0x20 PUSH1 0x0 KECCAK256 ADD PUSH1 0x0 SWAP2 POP SWAP2 POP POP SLOAD DUP2 JUMP JUMPDEST PUSH1 0x60 PUSH1 0x3 PUSH1 0x0 DUP4 PUSH20 0xFFFFFFFFFFFFFFFFFFFFFFFFFFFFFFFFFFFFFFFF AND PUSH20 0xFFFFFFFFFFFFFFFFFFFFFFFFFFFFFFFFFFFFFFFF AND DUP2 MSTORE PUSH1 0x20 ADD SWAP1 DUP2 MSTORE PUSH1 0x20 ADD PUSH1 0x0 KECCAK256 DUP1 SLOAD DUP1 PUSH1 0x20 MUL PUSH1 0x20 ADD PUSH1 0x40 MLOAD SWAP1 DUP2 ADD PUSH1 0x40 MSTORE DUP1 SWAP3 SWAP2 SWAP1 DUP2 DUP2 MSTORE PUSH1 0x20 ADD DUP3 DUP1 SLOAD DUP1 ISZERO PUSH2 0x556 JUMPI PUSH1 0x20 MUL DUP3 ADD SWAP2 SWAP1 PUSH1 0x0 MSTORE PUSH1 0x20 PUSH1 0x0 KECCAK256 SWAP1 JUMPDEST DUP2 SLOAD DUP2 MSTORE PUSH1 0x20 ADD SWAP1 PUSH1 0x1 ADD SWAP1 DUP1 DUP4 GT PUSH2 0x542 JUMPI JUMPDEST POP POP POP POP POP SWAP1 POP SWAP2 SWAP1 POP JUMP JUMPDEST PUSH1 0x3 DUP2 JUMP JUMPDEST PUSH1 0x5 SLOAD DUP2 JUMP JUMPDEST PUSH2 0x575 PUSH2 0xFCE JUMP JUMPDEST PUSH1 0x0 SELFBALANCE SWAP1 POP PUSH1 0x0 DUP2 GT PUSH2 0x5BD JUMPI PUSH1 0x40 MLOAD PUSH32 0x8C379A000000000000000000000000000000000000000000000000000000000 DUP2 MSTORE PUSH1 0x4 ADD PUSH2 0x5B4 SWAP1 PUSH2 0x23F6 JUMP JUMPDEST PUSH1 0x40 MLOAD DUP1 SWAP2 SUB SWAP1 REVERT JUMPDEST PUSH1 0x0 PUSH2 0x5C7 PUSH2 0xB44 JUMP JUMPDEST PUSH20 0xFFFFFFFFFFFFFFFFFFFFFFFFFFFFFFFFFFFFFFFF AND DUP3 PUSH1 0x40 MLOAD PUSH2 0x5EA SWAP1 PUSH2 0x2447 JUMP JUMPDEST PUSH1 0x0 PUSH1 0x40 MLOAD DUP1 DUP4 SUB DUP2 DUP6 DUP8 GAS CALL SWAP3 POP POP POP RETURNDATASIZE DUP1 PUSH1 0x0 DUP2 EQ PUSH2 0x627 JUMPI PUSH1 0x40 MLOAD SWAP2 POP PUSH1 0x1F NOT PUSH1 0x3F RETURNDATASIZE ADD AND DUP3 ADD PUSH1 0x40 MSTORE RETURNDATASIZE DUP3 MSTORE RETURNDATASIZE PUSH1 0x0 PUSH1 0x20 DUP5 ADD RETURNDATACOPY PUSH2 0x62C JUMP JUMPDEST PUSH1 0x60 SWAP2 POP JUMPDEST POP POP SWAP1 POP DUP1 PUSH2 0x670 JUMPI PUSH1 0x40 MLOAD PUSH32 0x8C379A000000000000000000000000000000000000000000000000000000000 DUP2 MSTORE PUSH1 0x4 ADD PUSH2 0x667 SWAP1 PUSH2 0x24A8 JUMP JUMPDEST PUSH1 0x40 MLOAD DUP1 SWAP2 SUB SWAP1 REVERT JUMPDEST PUSH2 0x678 PUSH2 0xB44 JUMP JUMPDEST PUSH20 0xFFFFFFFFFFFFFFFFFFFFFFFFFFFFFFFFFFFFFFFF AND PUSH32 0xC0819C13BE868895EB93E40EACEB96DE976442FA1D404E5C55F14BB65A8C489A DUP4 PUSH1 0x40 MLOAD PUSH2 0x6BD SWAP2 SWAP1 PUSH2 0x1C9F JUMP JUMPDEST PUSH1 0x40 MLOAD DUP1 SWAP2 SUB SWAP1 LOG2 POP POP JUMP JUMPDEST PUSH1 0x0 PUSH1 0x60 PUSH1 0x0 DUP1 PUSH1 0x0 PUSH1 0x60 PUSH1 0x0 DUP1 PUSH1 0x4 PUSH1 0x0 DUP11 DUP2 MSTORE PUSH1 0x20 ADD SWAP1 DUP2 MSTORE PUSH1 0x20 ADD PUSH1 0x0 KECCAK256 SWAP1 POP DUP1 PUSH1 0x0 ADD PUSH1 0x0 SWAP1 SLOAD SWAP1 PUSH2 0x100 EXP SWAP1 DIV PUSH20 0xFFFFFFFFFFFFFFFFFFFFFFFFFFFFFFFFFFFFFFFF AND DUP2 PUSH1 0x2 ADD DUP3 PUSH1 0x3 ADD SLOAD DUP4 PUSH1 0x4 ADD SLOAD DUP5 PUSH1 0x5 ADD SLOAD DUP6 PUSH1 0x6 ADD DUP7 PUSH1 0x7 ADD PUSH1 0x0 SWAP1 SLOAD SWAP1 PUSH2 0x100 EXP SWAP1 DIV PUSH1 0xFF AND DUP6 DUP1 SLOAD PUSH2 0x746 SWAP1 PUSH2 0x24F7 JUMP JUMPDEST DUP1 PUSH1 0x1F ADD PUSH1 0x20 DUP1 SWAP2 DIV MUL PUSH1 0x20 ADD PUSH1 0x40 MLOAD SWAP1 DUP2 ADD PUSH1 0x40 MSTORE DUP1 SWAP3 SWAP2 SWAP1 DUP2 DUP2 MSTORE PUSH1 0x20 ADD DUP3 DUP1 SLOAD PUSH2 0x772 SWAP1 PUSH2 0x24F7 JUMP JUMPDEST DUP1 ISZERO PUSH2 0x7BF JUMPI DUP1 PUSH1 0x1F LT PUSH2 0x794 JUMPI PUSH2 0x100 DUP1 DUP4 SLOAD DIV MUL DUP4 MSTORE SWAP2 PUSH1 0x20 ADD SWAP2 PUSH2 0x7BF JUMP JUMPDEST DUP3 ADD SWAP2 SWAP1 PUSH1 0x0 MSTORE PUSH1 0x20 PUSH1 0x0 KECCAK256 SWAP1 JUMPDEST DUP2 SLOAD DUP2 MSTORE SWAP1 PUSH1 0x1 ADD SWAP1 PUSH1 0x20 ADD DUP1 DUP4 GT PUSH2 0x7A2 JUMPI DUP3 SWAP1 SUB PUSH1 0x1F AND DUP3 ADD SWAP2 JUMPDEST POP POP POP POP POP SWAP6 POP DUP2 DUP1 SLOAD PUSH2 0x7D2 SWAP1 PUSH2 0x24F7 JUMP JUMPDEST DUP1 PUSH1 0x1F ADD PUSH1 0x20 DUP1 SWAP2 DIV MUL PUSH1 0x20 ADD PUSH1 0x40 MLOAD SWAP1 DUP2 ADD PUSH1 0x40 MSTORE DUP1 SWAP3 SWAP2 SWAP1 DUP2 DUP2 MSTORE PUSH1 0x20 ADD DUP3 DUP1 SLOAD PUSH2 0x7FE SWAP1 PUSH2 0x24F7 JUMP JUMPDEST DUP1 ISZERO PUSH2 0x84B JUMPI DUP1 PUSH1 0x1F LT PUSH2 0x820 JUMPI PUSH2 0x100 DUP1 DUP4 SLOAD DIV MUL DUP4 MSTORE SWAP2 PUSH1 0x20 ADD SWAP2 PUSH2 0x84B JUMP JUMPDEST DUP3 ADD SWAP2 SWAP1 PUSH1 0x0 MSTORE PUSH1 0x20 PUSH1 0x0 KECCAK256 SWAP1 JUMPDEST DUP2 SLOAD DUP2 MSTORE SWAP1 PUSH1 0x1 ADD SWAP1 PUSH1 0x20 ADD DUP1 DUP4 GT PUSH2 0x82E JUMPI DUP3 SWAP1 SUB PUSH1 0x1F AND DUP3 ADD SWAP2 JUMPDEST POP POP POP POP POP SWAP2 POP SWAP8 POP SWAP8 POP SWAP8 POP SWAP8 POP SWAP8 POP SWAP8 POP SWAP8 POP POP SWAP2 SWAP4 SWAP6 SWAP8 SWAP1 SWAP3 SWAP5 SWAP7 POP JUMP JUMPDEST PUSH2 0x874 PUSH2 0x1055 JUMP JUMPDEST PUSH1 0x0 PUSH1 0x4 PUSH1 0x0 DUP6 DUP2 MSTORE PUSH1 0x20 ADD SWAP1 DUP2 MSTORE PUSH1 0x20 ADD PUSH1 0x0 KECCAK256 SWAP1 POP CALLER PUSH20 0xFFFFFFFFFFFFFFFFFFFFFFFFFFFFFFFFFFFFFFFF AND DUP2 PUSH1 0x0 ADD PUSH1 0x0 SWAP1 SLOAD SWAP1 PUSH2 0x100 EXP SWAP1 DIV PUSH20 0xFFFFFFFFFFFFFFFFFFFFFFFFFFFFFFFFFFFFFFFF AND PUSH20 0xFFFFFFFFFFFFFFFFFFFFFFFFFFFFFFFFFFFFFFFF AND EQ PUSH2 0x91D JUMPI PUSH1 0x40 MLOAD PUSH32 0x8C379A000000000000000000000000000000000000000000000000000000000 DUP2 MSTORE PUSH1 0x4 ADD PUSH2 0x914 SWAP1 PUSH2 0x2574 JUMP JUMPDEST PUSH1 0x40 MLOAD DUP1 SWAP2 SUB SWAP1 REVERT JUMPDEST PUSH1 0x0 PUSH1 0x2 DUP2 GT ISZERO PUSH2 0x931 JUMPI PUSH2 0x930 PUSH2 0x1E93 JUMP JUMPDEST JUMPDEST DUP2 PUSH1 0x7 ADD PUSH1 0x0 SWAP1 SLOAD SWAP1 PUSH2 0x100 EXP SWAP1 DIV PUSH1 0xFF AND PUSH1 0x2 DUP2 GT ISZERO PUSH2 0x955 JUMPI PUSH2 0x954 PUSH2 0x1E93 JUMP JUMPDEST JUMPDEST EQ PUSH2 0x995 JUMPI PUSH1 0x40 MLOAD PUSH32 0x8C379A000000000000000000000000000000000000000000000000000000000 DUP2 MSTORE PUSH1 0x4 ADD PUSH2 0x98C SWAP1 PUSH2 0x25E0 JUMP JUMPDEST PUSH1 0x40 MLOAD DUP1 SWAP2 SUB SWAP1 REVERT JUMPDEST PUSH2 0x9A0 DUP2 DUP5 DUP5 PUSH2 0x109B JUMP JUMPDEST DUP4 CALLER PUSH20 0xFFFFFFFFFFFFFFFFFFFFFFFFFFFFFFFFFFFFFFFF AND PUSH32 0x2BC913790AB631EC32C90D78F72B9B8EF68289C2DCD586F7DA9C36B244A2ED4 DUP6 DUP6 MLOAD PUSH1 0x40 MLOAD PUSH2 0x9EA SWAP3 SWAP2 SWAP1 PUSH2 0x2600 JUMP JUMPDEST PUSH1 0x40 MLOAD DUP1 SWAP2 SUB SWAP1 LOG3 POP PUSH2 0x9FB PUSH2 0x10F1 JUMP JUMPDEST POP POP POP JUMP JUMPDEST PUSH2 0xA08 PUSH2 0xFCE JUMP JUMPDEST PUSH2 0xA12 PUSH1 0x0 PUSH2 0x10FA JUMP JUMPDEST JUMP JUMPDEST PUSH1 0x0 PUSH1 0x60 PUSH2 0xA25 PUSH1 0x3 PUSH1 0x4 DUP6 PUSH2 0x11BE JUMP JUMPDEST SWAP2 POP SWAP2 POP SWAP2 POP SWAP2 JUMP JUMPDEST PUSH1 0x19 DUP2 JUMP JUMPDEST PUSH1 0x0 DUP1 PUSH1 0x0 DUP1 PUSH1 0x60 PUSH1 0x0 DUP1 PUSH1 0x4 PUSH1 0x0 DUP10 DUP2 MSTORE PUSH1 0x20 ADD SWAP1 DUP2 MSTORE PUSH1 0x20 ADD PUSH1 0x0 KECCAK256 SWAP1 POP DUP1 PUSH1 0x0 ADD PUSH1 0x0 SWAP1 SLOAD SWAP1 PUSH2 0x100 EXP SWAP1 DIV PUSH20 0xFFFFFFFFFFFFFFFFFFFFFFFFFFFFFFFFFFFFFFFF AND DUP2 PUSH1 0x3 ADD SLOAD DUP3 PUSH1 0x4 ADD SLOAD DUP4 PUSH1 0x5 ADD SLOAD DUP5 PUSH1 0x6 ADD DUP6 PUSH1 0x7 ADD PUSH1 0x0 SWAP1 SLOAD SWAP1 PUSH2 0x100 EXP SWAP1 DIV PUSH1 0xFF AND DUP2 DUP1 SLOAD PUSH2 0xAA9 SWAP1 PUSH2 0x24F7 JUMP JUMPDEST DUP1 PUSH1 0x1F ADD PUSH1 0x20 DUP1 SWAP2 DIV MUL PUSH1 0x20 ADD PUSH1 0x40 MLOAD SWAP1 DUP2 ADD PUSH1 0x40 MSTORE DUP1 SWAP3 SWAP2 SWAP1 DUP2 DUP2 MSTORE PUSH1 0x20 ADD DUP3 DUP1 SLOAD PUSH2 0xAD5 SWAP1 PUSH2 0x24F7 JUMP JUMPDEST DUP1 ISZERO PUSH2 0xB22 JUMPI DUP1 PUSH1 0x1F LT PUSH2 0xAF7 JUMPI PUSH2 0x100 DUP1 DUP4 SLOAD DIV MUL DUP4 MSTORE SWAP2 PUSH1 0x20 ADD SWAP2 PUSH2 0xB22 JUMP JUMPDEST DUP3 ADD SWAP2 SWAP1 PUSH1 0x0 MSTORE PUSH1 0x20 PUSH1 0x0 KECCAK256 SWAP1 JUMPDEST DUP2 SLOAD DUP2 MSTORE SWAP1 PUSH1 0x1 ADD SWAP1 PUSH1 0x20 ADD DUP1 DUP4 GT PUSH2 0xB05 JUMPI DUP3 SWAP1 SUB PUSH1 0x1F AND DUP3 ADD SWAP2 JUMPDEST POP POP POP POP POP SWAP2 POP SWAP7 POP SWAP7 POP SWAP7 POP SWAP7 POP SWAP7 POP SWAP7 POP POP SWAP2 SWAP4 SWAP6 POP SWAP2 SWAP4 SWAP6 JUMP JUMPDEST PUSH1 0x5 DUP2 JUMP JUMPDEST PUSH1 0x0 DUP1 PUSH1 0x0 SWAP1 SLOAD SWAP1 PUSH2 0x100 EXP SWAP1 DIV PUSH20 0xFFFFFFFFFFFFFFFFFFFFFFFFFFFFFFFFFFFFFFFF AND SWAP1 POP SWAP1 JUMP JUMPDEST PUSH2 0xB75 PUSH2 0xFCE JUMP JUMPDEST PUSH1 0x0 PUSH20 0xFFFFFFFFFFFFFFFFFFFFFFFFFFFFFFFFFFFFFFFF AND DUP2 PUSH20 0xFFFFFFFFFFFFFFFFFFFFFFFFFFFFFFFFFFFFFFFF AND SUB PUSH2 0xBE4 JUMPI PUSH1 0x40 MLOAD PUSH32 0x8C379A000000000000000000000000000000000000000000000000000000000 DUP2 MSTORE PUSH1 0x4 ADD PUSH2 0xBDB SWAP1 PUSH2 0x2675 JUMP JUMPDEST PUSH1 0x40 MLOAD DUP1 SWAP2 SUB SWAP1 REVERT JUMPDEST PUSH1 0x0 DUP2 SWAP1 POP PUSH1 0x0 DUP2 PUSH20 0xFFFFFFFFFFFFFFFFFFFFFFFFFFFFFFFFFFFFFFFF AND PUSH4 0x70A08231 ADDRESS PUSH1 0x40 MLOAD DUP3 PUSH4 0xFFFFFFFF AND PUSH1 0xE0 SHL DUP2 MSTORE PUSH1 0x4 ADD PUSH2 0xC24 SWAP2 SWAP1 PUSH2 0x21C3 JUMP JUMPDEST PUSH1 0x20 PUSH1 0x40 MLOAD DUP1 DUP4 SUB DUP2 DUP7 GAS STATICCALL ISZERO DUP1 ISZERO PUSH2 0xC41 JUMPI RETURNDATASIZE PUSH1 0x0 DUP1 RETURNDATACOPY RETURNDATASIZE PUSH1 0x0 REVERT JUMPDEST POP POP POP POP PUSH1 0x40 MLOAD RETURNDATASIZE PUSH1 0x1F NOT PUSH1 0x1F DUP3 ADD AND DUP3 ADD DUP1 PUSH1 0x40 MSTORE POP DUP2 ADD SWAP1 PUSH2 0xC65 SWAP2 SWAP1 PUSH2 0x26AA JUMP JUMPDEST SWAP1 POP PUSH1 0x0 DUP2 GT PUSH2 0xCAA JUMPI PUSH1 0x40 MLOAD PUSH32 0x8C379A000000000000000000000000000000000000000000000000000000000 DUP2 MSTORE PUSH1 0x4 ADD PUSH2 0xCA1 SWAP1 PUSH2 0x2723 JUMP JUMPDEST PUSH1 0x40 MLOAD DUP1 SWAP2 SUB SWAP1 REVERT JUMPDEST DUP2 PUSH20 0xFFFFFFFFFFFFFFFFFFFFFFFFFFFFFFFFFFFFFFFF AND PUSH4 0xA9059CBB PUSH2 0xCCE PUSH2 0xB44 JUMP JUMPDEST DUP4 PUSH1 0x40 MLOAD DUP4 PUSH4 0xFFFFFFFF AND PUSH1 0xE0 SHL DUP2 MSTORE PUSH1 0x4 ADD PUSH2 0xCEC SWAP3 SWAP2 SWAP1 PUSH2 0x2743 JUMP JUMPDEST PUSH1 0x20 PUSH1 0x40 MLOAD DUP1 DUP4 SUB DUP2 PUSH1 0x0 DUP8 GAS CALL ISZERO DUP1 ISZERO PUSH2 0xD0B JUMPI RETURNDATASIZE PUSH1 0x0 DUP1 RETURNDATACOPY RETURNDATASIZE PUSH1 0x0 REVERT JUMPDEST POP POP POP POP PUSH1 0x40 MLOAD RETURNDATASIZE PUSH1 0x1F NOT PUSH1 0x1F DUP3 ADD AND DUP3 ADD DUP1 PUSH1 0x40 MSTORE POP DUP2 ADD SWAP1 PUSH2 0xD2F SWAP2 SWAP1 PUSH2 0x27A4 JUMP JUMPDEST PUSH2 0xD6E JUMPI PUSH1 0x40 MLOAD PUSH32 0x8C379A000000000000000000000000000000000000000000000000000000000 DUP2 MSTORE PUSH1 0x4 ADD PUSH2 0xD65 SWAP1 PUSH2 0x281D JUMP JUMPDEST PUSH1 0x40 MLOAD DUP1 SWAP2 SUB SWAP1 REVERT JUMPDEST POP POP POP JUMP JUMPDEST PUSH2 0xD7B PUSH2 0xFCE JUMP JUMPDEST PUSH1 0x0 PUSH1 0x2 SLOAD SWAP1 POP DUP2 PUSH1 0x2 DUP2 SWAP1 SSTORE POP PUSH32 0x75AEF5483B24548953E5E86DF155417EE9E1B8A174AD54F9C1A2211AB03822C2 DUP2 DUP4 PUSH1 0x40 MLOAD PUSH2 0xDBA SWAP3 SWAP2 SWAP1 PUSH2 0x2600 JUMP JUMPDEST PUSH1 0x40 MLOAD DUP1 SWAP2 SUB SWAP1 LOG1 POP POP JUMP JUMPDEST PUSH1 0x60 DUP1 PUSH1 0x60 DUP1 PUSH2 0xDDB PUSH1 0x3 PUSH1 0x4 DUP10 DUP10 DUP10 PUSH2 0x134C JUMP JUMPDEST SWAP4 POP SWAP4 POP SWAP4 POP SWAP4 POP SWAP4 POP SWAP4 POP SWAP4 POP SWAP4 JUMP JUMPDEST PUSH1 0x0 PUSH2 0xDF6 PUSH2 0x1055 JUMP JUMPDEST PUSH1 0x2 SLOAD CALLVALUE LT ISZERO PUSH2 0xE3B JUMPI PUSH1 0x40 MLOAD PUSH32 0x8C379A000000000000000000000000000000000000000000000000000000000 DUP2 MSTORE PUSH1 0x4 ADD PUSH2 0xE32 SWAP1 PUSH2 0x2889 JUMP JUMPDEST PUSH1 0x40 MLOAD DUP1 SWAP2 SUB SWAP1 REVERT JUMPDEST PUSH1 0x0 DUP1 PUSH2 0xE4B PUSH1 0x3 PUSH1 0x4 CALLER PUSH2 0x1786 JUMP JUMPDEST SWAP2 POP SWAP2 POP DUP2 ISZERO PUSH2 0xE9A JUMPI DUP1 CALLER PUSH20 0xFFFFFFFFFFFFFFFFFFFFFFFFFFFFFFFFFFFFFFFF AND PUSH32 0xC8FEA8853B9A09335ACD8A7A289338CD416B10C98090B62AA8361950B866303D PUSH1 0x40 MLOAD PUSH1 0x40 MLOAD DUP1 SWAP2 SUB SWAP1 LOG3 JUMPDEST PUSH1 0x5 PUSH1 0x0 DUP2 SLOAD DUP1 SWAP3 SWAP2 SWAP1 PUSH2 0xEAD SWAP1 PUSH2 0x28D8 JUMP JUMPDEST SWAP2 SWAP1 POP SSTORE POP PUSH1 0x0 PUSH1 0x5 SLOAD SWAP1 POP PUSH2 0xEC8 PUSH1 0x4 PUSH1 0x3 DUP4 CALLER DUP10 PUSH2 0x18B6 JUMP JUMPDEST PUSH2 0xED5 PUSH1 0x6 PUSH1 0x7 CALLER PUSH2 0x19CD JUMP JUMPDEST DUP1 CALLER PUSH20 0xFFFFFFFFFFFFFFFFFFFFFFFFFFFFFFFFFFFFFFFF AND PUSH32 0xB93756CD05FBB5BDA0C87E5D77406D7B7E3649FE1327F6783B4E28BB5789D969 DUP8 PUSH1 0x40 MLOAD PUSH2 0xF1C SWAP2 SWAP1 PUSH2 0x2920 JUMP JUMPDEST PUSH1 0x40 MLOAD DUP1 SWAP2 SUB SWAP1 LOG3 PUSH2 0xF2F PUSH1 0x2 SLOAD PUSH2 0x1ADC JUMP JUMPDEST DUP1 SWAP4 POP POP POP POP PUSH2 0xF3D PUSH2 0x10F1 JUMP JUMPDEST SWAP2 SWAP1 POP JUMP JUMPDEST PUSH1 0x2 SLOAD DUP2 JUMP JUMPDEST PUSH2 0xF50 PUSH2 0xFCE JUMP JUMPDEST PUSH1 0x0 PUSH20 0xFFFFFFFFFFFFFFFFFFFFFFFFFFFFFFFFFFFFFFFF AND DUP2 PUSH20 0xFFFFFFFFFFFFFFFFFFFFFFFFFFFFFFFFFFFFFFFF AND SUB PUSH2 0xFC2 JUMPI PUSH1 0x0 PUSH1 0x40 MLOAD PUSH32 0x1E4FBDF700000000000000000000000000000000000000000000000000000000 DUP2 MSTORE PUSH1 0x4 ADD PUSH2 0xFB9 SWAP2 SWAP1 PUSH2 0x21C3 JUMP JUMPDEST PUSH1 0x40 MLOAD DUP1 SWAP2 SUB SWAP1 REVERT JUMPDEST PUSH2 0xFCB DUP2 PUSH2 0x10FA JUMP JUMPDEST POP JUMP JUMPDEST PUSH2 0xFD6 PUSH2 0x1BA0 JUMP JUMPDEST PUSH20 0xFFFFFFFFFFFFFFFFFFFFFFFFFFFFFFFFFFFFFFFF AND PUSH2 0xFF4 PUSH2 0xB44 JUMP JUMPDEST PUSH20 0xFFFFFFFFFFFFFFFFFFFFFFFFFFFFFFFFFFFFFFFF AND EQ PUSH2 0x1053 JUMPI PUSH2 0x1017 PUSH2 0x1BA0 JUMP JUMPDEST PUSH1 0x40 MLOAD PUSH32 0x118CDAA700000000000000000000000000000000000000000000000000000000 DUP2 MSTORE PUSH1 0x4 ADD PUSH2 0x104A SWAP2 SWAP1 PUSH2 0x21C3 JUMP JUMPDEST PUSH1 0x40 MLOAD DUP1 SWAP2 SUB SWAP1 REVERT JUMPDEST JUMP JUMPDEST PUSH1 0x2 PUSH1 0x1 SLOAD SUB PUSH2 0x1091 JUMPI PUSH1 0x40 MLOAD PUSH32 0x3EE5AEB500000000000000000000000000000000000000000000000000000000 DUP2 MSTORE PUSH1 0x4 ADD PUSH1 0x40 MLOAD DUP1 SWAP2 SUB SWAP1 REVERT JUMPDEST PUSH1 0x2 PUSH1 0x1 DUP2 SWAP1 SSTORE POP JUMP JUMPDEST DUP2 DUP4 PUSH1 0x5 ADD DUP2 SWAP1 SSTORE POP DUP1 DUP4 PUSH1 0x6 ADD SWAP1 DUP2 PUSH2 0x10B5 SWAP2 SWAP1 PUSH2 0x2AEE JUMP JUMPDEST POP TIMESTAMP DUP4 PUSH1 0x4 ADD DUP2 SWAP1 SSTORE POP PUSH1 0x1 DUP4 PUSH1 0x7 ADD PUSH1 0x0 PUSH2 0x100 EXP DUP2 SLOAD DUP2 PUSH1 0xFF MUL NOT AND SWAP1 DUP4 PUSH1 0x2 DUP2 GT ISZERO PUSH2 0x10E7 JUMPI PUSH2 0x10E6 PUSH2 0x1E93 JUMP JUMPDEST JUMPDEST MUL OR SWAP1 SSTORE POP POP POP POP JUMP JUMPDEST PUSH1 0x1 DUP1 DUP2 SWAP1 SSTORE POP JUMP JUMPDEST PUSH1 0x0 DUP1 PUSH1 0x0 SWAP1 SLOAD SWAP1 PUSH2 0x100 EXP SWAP1 DIV PUSH20 0xFFFFFFFFFFFFFFFFFFFFFFFFFFFFFFFFFFFFFFFF AND SWAP1 POP DUP2 PUSH1 0x0 DUP1 PUSH2 0x100 EXP DUP2 SLOAD DUP2 PUSH20 0xFFFFFFFFFFFFFFFFFFFFFFFFFFFFFFFFFFFFFFFF MUL NOT AND SWAP1 DUP4 PUSH20 0xFFFFFFFFFFFFFFFFFFFFFFFFFFFFFFFFFFFFFFFF AND MUL OR SWAP1 SSTORE POP DUP2 PUSH20 0xFFFFFFFFFFFFFFFFFFFFFFFFFFFFFFFFFFFFFFFF AND DUP2 PUSH20 0xFFFFFFFFFFFFFFFFFFFFFFFFFFFFFFFFFFFFFFFF AND PUSH32 0x8BE0079C531659141344CD1FD0A4F28419497F9722A3DAAFE3B4186F6B6457E0 PUSH1 0x40 MLOAD PUSH1 0x40 MLOAD DUP1 SWAP2 SUB SWAP1 LOG3 POP POP JUMP JUMPDEST PUSH1 0x0 PUSH1 0x60 PUSH1 0x0 DUP6 PUSH1 0x0 DUP6 PUSH20 0xFFFFFFFFFFFFFFFFFFFFFFFFFFFFFFFFFFFFFFFF AND PUSH20 0xFFFFFFFFFFFFFFFFFFFFFFFFFFFFFFFFFFFFFFFF AND DUP2 MSTORE PUSH1 0x20 ADD SWAP1 DUP2 MSTORE PUSH1 0x20 ADD PUSH1 0x0 KECCAK256 SWAP1 POP PUSH1 0x0 DUP2 DUP1 SLOAD SWAP1 POP SUB PUSH2 0x121A JUMPI PUSH1 0x0 SWAP3 POP POP PUSH2 0x1344 JUMP JUMPDEST PUSH1 0x0 DUP2 PUSH1 0x1 DUP4 DUP1 SLOAD SWAP1 POP PUSH2 0x122E SWAP2 SWAP1 PUSH2 0x2BC0 JUMP JUMPDEST DUP2 SLOAD DUP2 LT PUSH2 0x123F JUMPI PUSH2 0x123E PUSH2 0x2BF4 JUMP JUMPDEST JUMPDEST SWAP1 PUSH1 0x0 MSTORE PUSH1 0x20 PUSH1 0x0 KECCAK256 ADD SLOAD SWAP1 POP PUSH1 0x0 DUP7 PUSH1 0x0 DUP4 DUP2 MSTORE PUSH1 0x20 ADD SWAP1 DUP2 MSTORE PUSH1 0x20 ADD PUSH1 0x0 KECCAK256 SWAP1 POP PUSH1 0x0 PUSH1 0x2 DUP2 GT ISZERO PUSH2 0x1276 JUMPI PUSH2 0x1275 PUSH2 0x1E93 JUMP JUMPDEST JUMPDEST DUP2 PUSH1 0x7 ADD PUSH1 0x0 SWAP1 SLOAD SWAP1 PUSH2 0x100 EXP SWAP1 DIV PUSH1 0xFF AND PUSH1 0x2 DUP2 GT ISZERO PUSH2 0x129A JUMPI PUSH2 0x1299 PUSH2 0x1E93 JUMP JUMPDEST JUMPDEST SUB PUSH2 0x133C JUMPI DUP2 DUP2 PUSH1 0x2 ADD DUP1 DUP1 SLOAD PUSH2 0x12B0 SWAP1 PUSH2 0x24F7 JUMP JUMPDEST DUP1 PUSH1 0x1F ADD PUSH1 0x20 DUP1 SWAP2 DIV MUL PUSH1 0x20 ADD PUSH1 0x40 MLOAD SWAP1 DUP2 ADD PUSH1 0x40 MSTORE DUP1 SWAP3 SWAP2 SWAP1 DUP2 DUP2 MSTORE PUSH1 0x20 ADD DUP3 DUP1 SLOAD PUSH2 0x12DC SWAP1 PUSH2 0x24F7 JUMP JUMPDEST DUP1 ISZERO PUSH2 0x1329 JUMPI DUP1 PUSH1 0x1F LT PUSH2 0x12FE JUMPI PUSH2 0x100 DUP1 DUP4 SLOAD DIV MUL DUP4 MSTORE SWAP2 PUSH1 0x20 ADD SWAP2 PUSH2 0x1329 JUMP JUMPDEST DUP3 ADD SWAP2 SWAP1 PUSH1 0x0 MSTORE PUSH1 0x20 PUSH1 0x0 KECCAK256 SWAP1 JUMPDEST DUP2 SLOAD DUP2 MSTORE SWAP1 PUSH1 0x1 ADD SWAP1 PUSH1 0x20 ADD DUP1 DUP4 GT PUSH2 0x130C JUMPI DUP3 SWAP1 SUB PUSH1 0x1F AND DUP3 ADD SWAP2 JUMPDEST POP POP POP POP POP SWAP1 POP SWAP5 POP SWAP5 POP POP POP POP PUSH2 0x1344 JUMP JUMPDEST PUSH1 0x0 SWAP5 POP POP POP POP JUMPDEST SWAP4 POP SWAP4 SWAP2 POP POP JUMP JUMPDEST PUSH1 0x60 DUP1 PUSH1 0x60 DUP1 PUSH1 0x0 DUP10 PUSH1 0x0 DUP10 PUSH20 0xFFFFFFFFFFFFFFFFFFFFFFFFFFFFFFFFFFFFFFFF AND PUSH20 0xFFFFFFFFFFFFFFFFFFFFFFFFFFFFFFFFFFFFFFFF AND DUP2 MSTORE PUSH1 0x20 ADD SWAP1 DUP2 MSTORE PUSH1 0x20 ADD PUSH1 0x0 KECCAK256 SWAP1 POP PUSH1 0x0 DUP2 DUP1 SLOAD SWAP1 POP SWAP1 POP DUP1 DUP8 LT PUSH2 0x14DB JUMPI PUSH1 0x0 PUSH8 0xFFFFFFFFFFFFFFFF DUP2 GT ISZERO PUSH2 0x13BF JUMPI PUSH2 0x13BE PUSH2 0x1F91 JUMP JUMPDEST JUMPDEST PUSH1 0x40 MLOAD SWAP1 DUP1 DUP3 MSTORE DUP1 PUSH1 0x20 MUL PUSH1 0x20 ADD DUP3 ADD PUSH1 0x40 MSTORE DUP1 ISZERO PUSH2 0x13ED JUMPI DUP2 PUSH1 0x20 ADD PUSH1 0x20 DUP3 MUL DUP1 CALLDATASIZE DUP4 CALLDATACOPY DUP1 DUP3 ADD SWAP2 POP POP SWAP1 POP JUMPDEST POP PUSH1 0x0 PUSH8 0xFFFFFFFFFFFFFFFF DUP2 GT ISZERO PUSH2 0x1409 JUMPI PUSH2 0x1408 PUSH2 0x1F91 JUMP JUMPDEST JUMPDEST PUSH1 0x40 MLOAD SWAP1 DUP1 DUP3 MSTORE DUP1 PUSH1 0x20 MUL PUSH1 0x20 ADD DUP3 ADD PUSH1 0x40 MSTORE DUP1 ISZERO PUSH2 0x1437 JUMPI DUP2 PUSH1 0x20 ADD PUSH1 0x20 DUP3 MUL DUP1 CALLDATASIZE DUP4 CALLDATACOPY DUP1 DUP3 ADD SWAP2 POP POP SWAP1 POP JUMPDEST POP PUSH1 0x0 PUSH8 0xFFFFFFFFFFFFFFFF DUP2 GT ISZERO PUSH2 0x1453 JUMPI PUSH2 0x1452 PUSH2 0x1F91 JUMP JUMPDEST JUMPDEST PUSH1 0x40 MLOAD SWAP1 DUP1 DUP3 MSTORE DUP1 PUSH1 0x20 MUL PUSH1 0x20 ADD DUP3 ADD PUSH1 0x40 MSTORE DUP1 ISZERO PUSH2 0x1481 JUMPI DUP2 PUSH1 0x20 ADD PUSH1 0x20 DUP3 MUL DUP1 CALLDATASIZE DUP4 CALLDATACOPY DUP1 DUP3 ADD SWAP2 POP POP SWAP1 POP JUMPDEST POP PUSH1 0x0 PUSH8 0xFFFFFFFFFFFFFFFF DUP2 GT ISZERO PUSH2 0x149D JUMPI PUSH2 0x149C PUSH2 0x1F91 JUMP JUMPDEST JUMPDEST PUSH1 0x40 MLOAD SWAP1 DUP1 DUP3 MSTORE DUP1 PUSH1 0x20 MUL PUSH1 0x20 ADD DUP3 ADD PUSH1 0x40 MSTORE DUP1 ISZERO PUSH2 0x14CB JUMPI DUP2 PUSH1 0x20 ADD PUSH1 0x20 DUP3 MUL DUP1 CALLDATASIZE DUP4 CALLDATACOPY DUP1 DUP3 ADD SWAP2 POP POP SWAP1 POP JUMPDEST POP SWAP6 POP SWAP6 POP SWAP6 POP SWAP6 POP POP POP PUSH2 0x177A JUMP JUMPDEST PUSH1 0x0 DUP8 DUP3 PUSH2 0x14E9 SWAP2 SWAP1 PUSH2 0x2BC0 JUMP JUMPDEST SWAP1 POP PUSH1 0x0 DUP10 DUP3 LT PUSH2 0x14FA JUMPI DUP10 PUSH2 0x14FC JUMP JUMPDEST DUP2 JUMPDEST SWAP1 POP DUP1 PUSH8 0xFFFFFFFFFFFFFFFF DUP2 GT ISZERO PUSH2 0x1518 JUMPI PUSH2 0x1517 PUSH2 0x1F91 JUMP JUMPDEST JUMPDEST PUSH1 0x40 MLOAD SWAP1 DUP1 DUP3 MSTORE DUP1 PUSH1 0x20 MUL PUSH1 0x20 ADD DUP3 ADD PUSH1 0x40 MSTORE DUP1 ISZERO PUSH2 0x1546 JUMPI DUP2 PUSH1 0x20 ADD PUSH1 0x20 DUP3 MUL DUP1 CALLDATASIZE DUP4 CALLDATACOPY DUP1 DUP3 ADD SWAP2 POP POP SWAP1 POP JUMPDEST POP SWAP8 POP DUP1 PUSH8 0xFFFFFFFFFFFFFFFF DUP2 GT ISZERO PUSH2 0x1563 JUMPI PUSH2 0x1562 PUSH2 0x1F91 JUMP JUMPDEST JUMPDEST PUSH1 0x40 MLOAD SWAP1 DUP1 DUP3 MSTORE DUP1 PUSH1 0x20 MUL PUSH1 0x20 ADD DUP3 ADD PUSH1 0x40 MSTORE DUP1 ISZERO PUSH2 0x1591 JUMPI DUP2 PUSH1 0x20 ADD PUSH1 0x20 DUP3 MUL DUP1 CALLDATASIZE DUP4 CALLDATACOPY DUP1 DUP3 ADD SWAP2 POP POP SWAP1 POP JUMPDEST POP SWAP7 POP DUP1 PUSH8 0xFFFFFFFFFFFFFFFF DUP2 GT ISZERO PUSH2 0x15AE JUMPI PUSH2 0x15AD PUSH2 0x1F91 JUMP JUMPDEST JUMPDEST PUSH1 0x40 MLOAD SWAP1 DUP1 DUP3 MSTORE DUP1 PUSH1 0x20 MUL PUSH1 0x20 ADD DUP3 ADD PUSH1 0x40 MSTORE DUP1 ISZERO PUSH2 0x15DC JUMPI DUP2 PUSH1 0x20 ADD PUSH1 0x20 DUP3 MUL DUP1 CALLDATASIZE DUP4 CALLDATACOPY DUP1 DUP3 ADD SWAP2 POP POP SWAP1 POP JUMPDEST POP SWAP6 POP DUP1 PUSH8 0xFFFFFFFFFFFFFFFF DUP2 GT ISZERO PUSH2 0x15F9 JUMPI PUSH2 0x15F8 PUSH2 0x1F91 JUMP JUMPDEST JUMPDEST PUSH1 0x40 MLOAD SWAP1 DUP1 DUP3 MSTORE DUP1 PUSH1 0x20 MUL PUSH1 0x20 ADD DUP3 ADD PUSH1 0x40 MSTORE DUP1 ISZERO PUSH2 0x1627 JUMPI DUP2 PUSH1 0x20 ADD PUSH1 0x20 DUP3 MUL DUP1 CALLDATASIZE DUP4 CALLDATACOPY DUP1 DUP3 ADD SWAP2 POP POP SWAP1 POP JUMPDEST POP SWAP5 POP PUSH1 0x0 JUMPDEST DUP2 DUP2 LT ISZERO PUSH2 0x1774 JUMPI PUSH1 0x0 DUP6 DUP3 DUP13 PUSH1 0x1 DUP9 PUSH2 0x1647 SWAP2 SWAP1 PUSH2 0x2BC0 JUMP JUMPDEST PUSH2 0x1651 SWAP2 SWAP1 PUSH2 0x2BC0 JUMP JUMPDEST PUSH2 0x165B SWAP2 SWAP1 PUSH2 0x2BC0 JUMP JUMPDEST DUP2 SLOAD DUP2 LT PUSH2 0x166C JUMPI PUSH2 0x166B PUSH2 0x2BF4 JUMP JUMPDEST JUMPDEST SWAP1 PUSH1 0x0 MSTORE PUSH1 0x20 PUSH1 0x0 KECCAK256 ADD SLOAD SWAP1 POP PUSH1 0x0 DUP15 PUSH1 0x0 DUP4 DUP2 MSTORE PUSH1 0x20 ADD SWAP1 DUP2 MSTORE PUSH1 0x20 ADD PUSH1 0x0 KECCAK256 SWAP1 POP DUP2 DUP12 DUP5 DUP2 MLOAD DUP2 LT PUSH2 0x16A3 JUMPI PUSH2 0x16A2 PUSH2 0x2BF4 JUMP JUMPDEST JUMPDEST PUSH1 0x20 MUL PUSH1 0x20 ADD ADD DUP2 DUP2 MSTORE POP POP DUP1 PUSH1 0x5 ADD SLOAD DUP11 DUP5 DUP2 MLOAD DUP2 LT PUSH2 0x16C7 JUMPI PUSH2 0x16C6 PUSH2 0x2BF4 JUMP JUMPDEST JUMPDEST PUSH1 0x20 MUL PUSH1 0x20 ADD ADD DUP2 DUP2 MSTORE POP POP PUSH1 0x0 DUP2 PUSH1 0x4 ADD SLOAD GT PUSH2 0x16E9 JUMPI DUP1 PUSH1 0x3 ADD SLOAD PUSH2 0x16EF JUMP JUMPDEST DUP1 PUSH1 0x4 ADD SLOAD JUMPDEST DUP10 DUP5 DUP2 MLOAD DUP2 LT PUSH2 0x1702 JUMPI PUSH2 0x1701 PUSH2 0x2BF4 JUMP JUMPDEST JUMPDEST PUSH1 0x20 MUL PUSH1 0x20 ADD ADD DUP2 DUP2 MSTORE POP POP DUP1 PUSH1 0x7 ADD PUSH1 0x0 SWAP1 SLOAD SWAP1 PUSH2 0x100 EXP SWAP1 DIV PUSH1 0xFF AND DUP9 DUP5 DUP2 MLOAD DUP2 LT PUSH2 0x1733 JUMPI PUSH2 0x1732 PUSH2 0x2BF4 JUMP JUMPDEST JUMPDEST PUSH1 0x20 MUL PUSH1 0x20 ADD ADD SWAP1 PUSH1 0x2 DUP2 GT ISZERO PUSH2 0x174D JUMPI PUSH2 0x174C PUSH2 0x1E93 JUMP JUMPDEST JUMPDEST SWAP1 DUP2 PUSH1 0x2 DUP2 GT ISZERO PUSH2 0x1761 JUMPI PUSH2 0x1760 PUSH2 0x1E93 JUMP JUMPDEST JUMPDEST DUP2 MSTORE POP POP POP POP DUP1 DUP1 PUSH1 0x1 ADD SWAP2 POP POP PUSH2 0x162D JUMP JUMPDEST POP POP POP POP POP JUMPDEST SWAP6 POP SWAP6 POP SWAP6 POP SWAP6 SWAP2 POP POP JUMP JUMPDEST PUSH1 0x0 DUP1 PUSH1 0x0 DUP6 PUSH1 0x0 DUP6 PUSH20 0xFFFFFFFFFFFFFFFFFFFFFFFFFFFFFFFFFFFFFFFF AND PUSH20 0xFFFFFFFFFFFFFFFFFFFFFFFFFFFFFFFFFFFFFFFF AND DUP2 MSTORE PUSH1 0x20 ADD SWAP1 DUP2 MSTORE PUSH1 0x20 ADD PUSH1 0x0 KECCAK256 SWAP1 POP PUSH1 0x0 DUP2 DUP1 SLOAD SWAP1 POP GT ISZERO PUSH2 0x18A5 JUMPI PUSH1 0x0 DUP2 PUSH1 0x1 DUP4 DUP1 SLOAD SWAP1 POP PUSH2 0x17EC SWAP2 SWAP1 PUSH2 0x2BC0 JUMP JUMPDEST DUP2 SLOAD DUP2 LT PUSH2 0x17FD JUMPI PUSH2 0x17FC PUSH2 0x2BF4 JUMP JUMPDEST JUMPDEST SWAP1 PUSH1 0x0 MSTORE PUSH1 0x20 PUSH1 0x0 KECCAK256 ADD SLOAD SWAP1 POP PUSH1 0x0 DUP7 PUSH1 0x0 DUP4 DUP2 MSTORE PUSH1 0x20 ADD SWAP1 DUP2 MSTORE PUSH1 0x20 ADD PUSH1 0x0 KECCAK256 SWAP1 POP PUSH1 0x0 PUSH1 0x2 DUP2 GT ISZERO PUSH2 0x1834 JUMPI PUSH2 0x1833 PUSH2 0x1E93 JUMP JUMPDEST JUMPDEST DUP2 PUSH1 0x7 ADD PUSH1 0x0 SWAP1 SLOAD SWAP1 PUSH2 0x100 EXP SWAP1 DIV PUSH1 0xFF AND PUSH1 0x2 DUP2 GT ISZERO PUSH2 0x1858 JUMPI PUSH2 0x1857 PUSH2 0x1E93 JUMP JUMPDEST JUMPDEST SUB PUSH2 0x18A2 JUMPI PUSH1 0x2 DUP2 PUSH1 0x7 ADD PUSH1 0x0 PUSH2 0x100 EXP DUP2 SLOAD DUP2 PUSH1 0xFF MUL NOT AND SWAP1 DUP4 PUSH1 0x2 DUP2 GT ISZERO PUSH2 0x1885 JUMPI PUSH2 0x1884 PUSH2 0x1E93 JUMP JUMPDEST JUMPDEST MUL OR SWAP1 SSTORE POP TIMESTAMP DUP2 PUSH1 0x4 ADD DUP2 SWAP1 SSTORE POP PUSH1 0x1 DUP3 SWAP5 POP SWAP5 POP POP POP POP PUSH2 0x18AE JUMP JUMPDEST POP POP JUMPDEST PUSH1 0x0 DUP1 SWAP3 POP SWAP3 POP POP JUMPDEST SWAP4 POP SWAP4 SWAP2 POP POP JUMP JUMPDEST PUSH1 0x0 DUP6 PUSH1 0x0 DUP6 DUP2 MSTORE PUSH1 0x20 ADD SWAP1 DUP2 MSTORE PUSH1 0x20 ADD PUSH1 0x0 KECCAK256 SWAP1 POP DUP3 DUP2 PUSH1 0x0 ADD PUSH1 0x0 PUSH2 0x100 EXP DUP2 SLOAD DUP2 PUSH20 0xFFFFFFFFFFFFFFFFFFFFFFFFFFFFFFFFFFFFFFFF MUL NOT AND SWAP1 DUP4 PUSH20 0xFFFFFFFFFFFFFFFFFFFFFFFFFFFFFFFFFFFFFFFF AND MUL OR SWAP1 SSTORE POP DUP4 DUP2 PUSH1 0x1 ADD DUP2 SWAP1 SSTORE POP DUP2 DUP2 PUSH1 0x2 ADD SWAP1 DUP2 PUSH2 0x1929 SWAP2 SWAP1 PUSH2 0x2AEE JUMP JUMPDEST POP TIMESTAMP DUP2 PUSH1 0x3 ADD DUP2 SWAP1 SSTORE POP PUSH1 0x0 DUP2 PUSH1 0x7 ADD PUSH1 0x0 PUSH2 0x100 EXP DUP2 SLOAD DUP2 PUSH1 0xFF MUL NOT AND SWAP1 DUP4 PUSH1 0x2 DUP2 GT ISZERO PUSH2 0x195B JUMPI PUSH2 0x195A PUSH2 0x1E93 JUMP JUMPDEST JUMPDEST MUL OR SWAP1 SSTORE POP DUP5 PUSH1 0x0 DUP5 PUSH20 0xFFFFFFFFFFFFFFFFFFFFFFFFFFFFFFFFFFFFFFFF AND PUSH20 0xFFFFFFFFFFFFFFFFFFFFFFFFFFFFFFFFFFFFFFFF AND DUP2 MSTORE PUSH1 0x20 ADD SWAP1 DUP2 MSTORE PUSH1 0x20 ADD PUSH1 0x0 KECCAK256 DUP5 SWAP1 DUP1 PUSH1 0x1 DUP2 SLOAD ADD DUP1 DUP3 SSTORE DUP1 SWAP2 POP POP PUSH1 0x1 SWAP1 SUB SWAP1 PUSH1 0x0 MSTORE PUSH1 0x20 PUSH1 0x0 KECCAK256 ADD PUSH1 0x0 SWAP1 SWAP2 SWAP1 SWAP2 SWAP1 SWAP2 POP SSTORE POP POP POP POP POP POP JUMP JUMPDEST DUP2 PUSH1 0x0 DUP3 PUSH20 0xFFFFFFFFFFFFFFFFFFFFFFFFFFFFFFFFFFFFFFFF AND PUSH20 0xFFFFFFFFFFFFFFFFFFFFFFFFFFFFFFFFFFFFFFFF AND DUP2 MSTORE PUSH1 0x20 ADD SWAP1 DUP2 MSTORE PUSH1 0x20 ADD PUSH1 0x0 KECCAK256 PUSH1 0x0 SWAP1 SLOAD SWAP1 PUSH2 0x100 EXP SWAP1 DIV PUSH1 0xFF AND PUSH2 0x1AD7 JUMPI DUP3 DUP2 SWAP1 DUP1 PUSH1 0x1 DUP2 SLOAD ADD DUP1 DUP3 SSTORE DUP1 SWAP2 POP POP PUSH1 0x1 SWAP1 SUB SWAP1 PUSH1 0x0 MSTORE PUSH1 0x20 PUSH1 0x0 KECCAK256 ADD PUSH1 0x0 SWAP1 SWAP2 SWAP1 SWAP2 SWAP1 SWAP2 PUSH2 0x100 EXP DUP2 SLOAD DUP2 PUSH20 0xFFFFFFFFFFFFFFFFFFFFFFFFFFFFFFFFFFFFFFFF MUL NOT AND SWAP1 DUP4 PUSH20 0xFFFFFFFFFFFFFFFFFFFFFFFFFFFFFFFFFFFFFFFF AND MUL OR SWAP1 SSTORE POP PUSH1 0x1 DUP3 PUSH1 0x0 DUP4 PUSH20 0xFFFFFFFFFFFFFFFFFFFFFFFFFFFFFFFFFFFFFFFF AND PUSH20 0xFFFFFFFFFFFFFFFFFFFFFFFFFFFFFFFFFFFFFFFF AND DUP2 MSTORE PUSH1 0x20 ADD SWAP1 DUP2 MSTORE PUSH1 0x20 ADD PUSH1 0x0 KECCAK256 PUSH1 0x0 PUSH2 0x100 EXP DUP2 SLOAD DUP2 PUSH1 0xFF MUL NOT AND SWAP1 DUP4 ISZERO ISZERO MUL OR SWAP1 SSTORE POP JUMPDEST POP POP POP JUMP JUMPDEST DUP1 CALLVALUE GT ISZERO PUSH2 0x1B9D JUMPI PUSH1 0x0 CALLER PUSH20 0xFFFFFFFFFFFFFFFFFFFFFFFFFFFFFFFFFFFFFFFF AND DUP3 CALLVALUE PUSH2 0x1B09 SWAP2 SWAP1 PUSH2 0x2BC0 JUMP JUMPDEST PUSH1 0x40 MLOAD PUSH2 0x1B15 SWAP1 PUSH2 0x2447 JUMP JUMPDEST PUSH1 0x0 PUSH1 0x40 MLOAD DUP1 DUP4 SUB DUP2 DUP6 DUP8 GAS CALL SWAP3 POP POP POP RETURNDATASIZE DUP1 PUSH1 0x0 DUP2 EQ PUSH2 0x1B52 JUMPI PUSH1 0x40 MLOAD SWAP2 POP PUSH1 0x1F NOT PUSH1 0x3F RETURNDATASIZE ADD AND DUP3 ADD PUSH1 0x40 MSTORE RETURNDATASIZE DUP3 MSTORE RETURNDATASIZE PUSH1 0x0 PUSH1 0x20 DUP5 ADD RETURNDATACOPY PUSH2 0x1B57 JUMP JUMPDEST PUSH1 0x60 SWAP2 POP JUMPDEST POP POP SWAP1 POP DUP1 PUSH2 0x1B9B JUMPI PUSH1 0x40 MLOAD PUSH32 0x8C379A000000000000000000000000000000000000000000000000000000000 DUP2 MSTORE PUSH1 0x4 ADD PUSH2 0x1B92 SWAP1 PUSH2 0x2C6F JUMP JUMPDEST PUSH1 0x40 MLOAD DUP1 SWAP2 SUB SWAP1 REVERT JUMPDEST POP JUMPDEST POP JUMP JUMPDEST PUSH1 0x0 CALLER SWAP1 POP SWAP1 JUMP JUMPDEST PUSH1 0x0 PUSH1 0x40 MLOAD SWAP1 POP SWAP1 JUMP JUMPDEST PUSH1 0x0 DUP1 REVERT JUMPDEST PUSH1 0x0 DUP1 REVERT JUMPDEST PUSH1 0x0 PUSH20 0xFFFFFFFFFFFFFFFFFFFFFFFFFFFFFFFFFFFFFFFF DUP3 AND SWAP1 POP SWAP2 SWAP1 POP JUMP JUMPDEST PUSH1 0x0 PUSH2 0x1BE7 DUP3 PUSH2 0x1BBC JUMP JUMPDEST SWAP1 POP SWAP2 SWAP1 POP JUMP JUMPDEST PUSH2 0x1BF7 DUP2 PUSH2 0x1BDC JUMP JUMPDEST DUP2 EQ PUSH2 0x1C02 JUMPI PUSH1 0x0 DUP1 REVERT JUMPDEST POP JUMP JUMPDEST PUSH1 0x0 DUP2 CALLDATALOAD SWAP1 POP PUSH2 0x1C14 DUP2 PUSH2 0x1BEE JUMP JUMPDEST SWAP3 SWAP2 POP POP JUMP JUMPDEST PUSH1 0x0 DUP2 SWAP1 POP SWAP2 SWAP1 POP JUMP JUMPDEST PUSH2 0x1C2D DUP2 PUSH2 0x1C1A JUMP JUMPDEST DUP2 EQ PUSH2 0x1C38 JUMPI PUSH1 0x0 DUP1 REVERT JUMPDEST POP JUMP JUMPDEST PUSH1 0x0 DUP2 CALLDATALOAD SWAP1 POP PUSH2 0x1C4A DUP2 PUSH2 0x1C24 JUMP JUMPDEST SWAP3 SWAP2 POP POP JUMP JUMPDEST PUSH1 0x0 DUP1 PUSH1 0x40 DUP4 DUP6 SUB SLT ISZERO PUSH2 0x1C67 JUMPI PUSH2 0x1C66 PUSH2 0x1BB2 JUMP JUMPDEST JUMPDEST PUSH1 0x0 PUSH2 0x1C75 DUP6 DUP3 DUP7 ADD PUSH2 0x1C05 JUMP JUMPDEST SWAP3 POP POP PUSH1 0x20 PUSH2 0x1C86 DUP6 DUP3 DUP7 ADD PUSH2 0x1C3B JUMP JUMPDEST SWAP2 POP POP SWAP3 POP SWAP3 SWAP1 POP JUMP JUMPDEST PUSH2 0x1C99 DUP2 PUSH2 0x1C1A JUMP JUMPDEST DUP3 MSTORE POP POP JUMP JUMPDEST PUSH1 0x0 PUSH1 0x20 DUP3 ADD SWAP1 POP PUSH2 0x1CB4 PUSH1 0x0 DUP4 ADD DUP5 PUSH2 0x1C90 JUMP JUMPDEST SWAP3 SWAP2 POP POP JUMP JUMPDEST PUSH1 0x0 PUSH1 0x20 DUP3 DUP5 SUB SLT ISZERO PUSH2 0x1CD0 JUMPI PUSH2 0x1CCF PUSH2 0x1BB2 JUMP JUMPDEST JUMPDEST PUSH1 0x0 PUSH2 0x1CDE DUP5 DUP3 DUP6 ADD PUSH2 0x1C05 JUMP JUMPDEST SWAP2 POP POP SWAP3 SWAP2 POP POP JUMP JUMPDEST PUSH1 0x0 DUP2 MLOAD SWAP1 POP SWAP2 SWAP1 POP JUMP JUMPDEST PUSH1 0x0 DUP3 DUP3 MSTORE PUSH1 0x20 DUP3 ADD SWAP1 POP SWAP3 SWAP2 POP POP JUMP JUMPDEST PUSH1 0x0 DUP2 SWAP1 POP PUSH1 0x20 DUP3 ADD SWAP1 POP SWAP2 SWAP1 POP JUMP JUMPDEST PUSH2 0x1D1C DUP2 PUSH2 0x1C1A JUMP JUMPDEST DUP3 MSTORE POP POP JUMP JUMPDEST PUSH1 0x0 PUSH2 0x1D2E DUP4 DUP4 PUSH2 0x1D13 JUMP JUMPDEST PUSH1 0x20 DUP4 ADD SWAP1 POP SWAP3 SWAP2 POP POP JUMP JUMPDEST PUSH1 0x0 PUSH1 0x20 DUP3 ADD SWAP1 POP SWAP2 SWAP1 POP JUMP JUMPDEST PUSH1 0x0 PUSH2 0x1D52 DUP3 PUSH2 0x1CE7 JUMP JUMPDEST PUSH2 0x1D5C DUP2 DUP6 PUSH2 0x1CF2 JUMP JUMPDEST SWAP4 POP PUSH2 0x1D67 DUP4 PUSH2 0x1D03 JUMP JUMPDEST DUP1 PUSH1 0x0 JUMPDEST DUP4 DUP2 LT ISZERO PUSH2 0x1D98 JUMPI DUP2 MLOAD PUSH2 0x1D7F DUP9 DUP3 PUSH2 0x1D22 JUMP JUMPDEST SWAP8 POP PUSH2 0x1D8A DUP4 PUSH2 0x1D3A JUMP JUMPDEST SWAP3 POP POP PUSH1 0x1 DUP2 ADD SWAP1 POP PUSH2 0x1D6B JUMP JUMPDEST POP DUP6 SWAP4 POP POP POP POP SWAP3 SWAP2 POP POP JUMP JUMPDEST PUSH1 0x0 PUSH1 0x20 DUP3 ADD SWAP1 POP DUP2 DUP2 SUB PUSH1 0x0 DUP4 ADD MSTORE PUSH2 0x1DBF DUP2 DUP5 PUSH2 0x1D47 JUMP JUMPDEST SWAP1 POP SWAP3 SWAP2 POP POP JUMP JUMPDEST PUSH1 0x0 PUSH1 0x20 DUP3 DUP5 SUB SLT ISZERO PUSH2 0x1DDD JUMPI PUSH2 0x1DDC PUSH2 0x1BB2 JUMP JUMPDEST JUMPDEST PUSH1 0x0 PUSH2 0x1DEB DUP5 DUP3 DUP6 ADD PUSH2 0x1C3B JUMP JUMPDEST SWAP2 POP POP SWAP3 SWAP2 POP POP JUMP JUMPDEST PUSH2 0x1DFD DUP2 PUSH2 0x1BDC JUMP JUMPDEST DUP3 MSTORE POP POP JUMP JUMPDEST PUSH1 0x0 DUP2 MLOAD SWAP1 POP SWAP2 SWAP1 POP JUMP JUMPDEST PUSH1 0x0 DUP3 DUP3 MSTORE PUSH1 0x20 DUP3 ADD SWAP1 POP SWAP3 SWAP2 POP POP JUMP JUMPDEST PUSH1 0x0 JUMPDEST DUP4 DUP2 LT ISZERO PUSH2 0x1E3D JUMPI DUP1 DUP3 ADD MLOAD DUP2 DUP5 ADD MSTORE PUSH1 0x20 DUP2 ADD SWAP1 POP PUSH2 0x1E22 JUMP JUMPDEST PUSH1 0x0 DUP5 DUP5 ADD MSTORE POP POP POP POP JUMP JUMPDEST PUSH1 0x0 PUSH1 0x1F NOT PUSH1 0x1F DUP4 ADD AND SWAP1 POP SWAP2 SWAP1 POP JUMP JUMPDEST PUSH1 0x0 PUSH2 0x1E65 DUP3 PUSH2 0x1E03 JUMP JUMPDEST PUSH2 0x1E6F DUP2 DUP6 PUSH2 0x1E0E JUMP JUMPDEST SWAP4 POP PUSH2 0x1E7F DUP2 DUP6 PUSH1 0x20 DUP7 ADD PUSH2 0x1E1F JUMP JUMPDEST PUSH2 0x1E88 DUP2 PUSH2 0x1E49 JUMP JUMPDEST DUP5 ADD SWAP2 POP POP SWAP3 SWAP2 POP POP JUMP JUMPDEST PUSH32 0x4E487B7100000000000000000000000000000000000000000000000000000000 PUSH1 0x0 MSTORE PUSH1 0x21 PUSH1 0x4 MSTORE PUSH1 0x24 PUSH1 0x0 REVERT JUMPDEST PUSH1 0x3 DUP2 LT PUSH2 0x1ED3 JUMPI PUSH2 0x1ED2 PUSH2 0x1E93 JUMP JUMPDEST JUMPDEST POP JUMP JUMPDEST PUSH1 0x0 DUP2 SWAP1 POP PUSH2 0x1EE4 DUP3 PUSH2 0x1EC2 JUMP JUMPDEST SWAP2 SWAP1 POP JUMP JUMPDEST PUSH1 0x0 PUSH2 0x1EF4 DUP3 PUSH2 0x1ED6 JUMP JUMPDEST SWAP1 POP SWAP2 SWAP1 POP JUMP JUMPDEST PUSH2 0x1F04 DUP2 PUSH2 0x1EE9 JUMP JUMPDEST DUP3 MSTORE POP POP JUMP JUMPDEST PUSH1 0x0 PUSH1 0xE0 DUP3 ADD SWAP1 POP PUSH2 0x1F1F PUSH1 0x0 DUP4 ADD DUP11 PUSH2 0x1DF4 JUMP JUMPDEST DUP2 DUP2 SUB PUSH1 0x20 DUP4 ADD MSTORE PUSH2 0x1F31 DUP2 DUP10 PUSH2 0x1E5A JUMP JUMPDEST SWAP1 POP PUSH2 0x1F40 PUSH1 0x40 DUP4 ADD DUP9 PUSH2 0x1C90 JUMP JUMPDEST PUSH2 0x1F4D PUSH1 0x60 DUP4 ADD DUP8 PUSH2 0x1C90 JUMP JUMPDEST PUSH2 0x1F5A PUSH1 0x80 DUP4 ADD DUP7 PUSH2 0x1C90 JUMP JUMPDEST DUP2 DUP2 SUB PUSH1 0xA0 DUP4 ADD MSTORE PUSH2 0x1F6C DUP2 DUP6 PUSH2 0x1E5A JUMP JUMPDEST SWAP1 POP PUSH2 0x1F7B PUSH1 0xC0 DUP4 ADD DUP5 PUSH2 0x1EFB JUMP JUMPDEST SWAP9 SWAP8 POP POP POP POP POP POP POP POP JUMP JUMPDEST PUSH1 0x0 DUP1 REVERT JUMPDEST PUSH1 0x0 DUP1 REVERT JUMPDEST PUSH32 0x4E487B7100000000000000000000000000000000000000000000000000000000 PUSH1 0x0 MSTORE PUSH1 0x41 PUSH1 0x4 MSTORE PUSH1 0x24 PUSH1 0x0 REVERT JUMPDEST PUSH2 0x1FC9 DUP3 PUSH2 0x1E49 JUMP JUMPDEST DUP2 ADD DUP2 DUP2 LT PUSH8 0xFFFFFFFFFFFFFFFF DUP3 GT OR ISZERO PUSH2 0x1FE8 JUMPI PUSH2 0x1FE7 PUSH2 0x1F91 JUMP JUMPDEST JUMPDEST DUP1 PUSH1 0x40 MSTORE POP POP POP JUMP JUMPDEST PUSH1 0x0 PUSH2 0x1FFB PUSH2 0x1BA8 JUMP JUMPDEST SWAP1 POP PUSH2 0x2007 DUP3 DUP3 PUSH2 0x1FC0 JUMP JUMPDEST SWAP2 SWAP1 POP JUMP JUMPDEST PUSH1 0x0 PUSH8 0xFFFFFFFFFFFFFFFF DUP3 GT ISZERO PUSH2 0x2027 JUMPI PUSH2 0x2026 PUSH2 0x1F91 JUMP JUMPDEST JUMPDEST PUSH2 0x2030 DUP3 PUSH2 0x1E49 JUMP JUMPDEST SWAP1 POP PUSH1 0x20 DUP2 ADD SWAP1 POP SWAP2 SWAP1 POP JUMP JUMPDEST DUP3 DUP2 DUP4 CALLDATACOPY PUSH1 0x0 DUP4 DUP4 ADD MSTORE POP POP POP JUMP JUMPDEST PUSH1 0x0 PUSH2 0x205F PUSH2 0x205A DUP5 PUSH2 0x200C JUMP JUMPDEST PUSH2 0x1FF1 JUMP JUMPDEST SWAP1 POP DUP3 DUP2 MSTORE PUSH1 0x20 DUP2 ADD DUP5 DUP5 DUP5 ADD GT ISZERO PUSH2 0x207B JUMPI PUSH2 0x207A PUSH2 0x1F8C JUMP JUMPDEST JUMPDEST PUSH2 0x2086 DUP5 DUP3 DUP6 PUSH2 0x203D JUMP JUMPDEST POP SWAP4 SWAP3 POP POP POP JUMP JUMPDEST PUSH1 0x0 DUP3 PUSH1 0x1F DUP4 ADD SLT PUSH2 0x20A3 JUMPI PUSH2 0x20A2 PUSH2 0x1F87 JUMP JUMPDEST JUMPDEST DUP2 CALLDATALOAD PUSH2 0x20B3 DUP5 DUP3 PUSH1 0x20 DUP7 ADD PUSH2 0x204C JUMP JUMPDEST SWAP2 POP POP SWAP3 SWAP2 POP POP JUMP JUMPDEST PUSH1 0x0 DUP1 PUSH1 0x0 PUSH1 0x60 DUP5 DUP7 SUB SLT ISZERO PUSH2 0x20D5 JUMPI PUSH2 0x20D4 PUSH2 0x1BB2 JUMP JUMPDEST JUMPDEST PUSH1 0x0 PUSH2 0x20E3 DUP7 DUP3 DUP8 ADD PUSH2 0x1C3B JUMP JUMPDEST SWAP4 POP POP PUSH1 0x20 PUSH2 0x20F4 DUP7 DUP3 DUP8 ADD PUSH2 0x1C3B JUMP JUMPDEST SWAP3 POP POP PUSH1 0x40 DUP5 ADD CALLDATALOAD PUSH8 0xFFFFFFFFFFFFFFFF DUP2 GT ISZERO PUSH2 0x2115 JUMPI PUSH2 0x2114 PUSH2 0x1BB7 JUMP JUMPDEST JUMPDEST PUSH2 0x2121 DUP7 DUP3 DUP8 ADD PUSH2 0x208E JUMP JUMPDEST SWAP2 POP POP SWAP3 POP SWAP3 POP SWAP3 JUMP JUMPDEST PUSH1 0x0 PUSH1 0x40 DUP3 ADD SWAP1 POP PUSH2 0x2140 PUSH1 0x0 DUP4 ADD DUP6 PUSH2 0x1C90 JUMP JUMPDEST DUP2 DUP2 SUB PUSH1 0x20 DUP4 ADD MSTORE PUSH2 0x2152 DUP2 DUP5 PUSH2 0x1E5A JUMP JUMPDEST SWAP1 POP SWAP4 SWAP3 POP POP POP JUMP JUMPDEST PUSH1 0x0 PUSH1 0xC0 DUP3 ADD SWAP1 POP PUSH2 0x2170 PUSH1 0x0 DUP4 ADD DUP10 PUSH2 0x1DF4 JUMP JUMPDEST PUSH2 0x217D PUSH1 0x20 DUP4 ADD DUP9 PUSH2 0x1C90 JUMP JUMPDEST PUSH2 0x218A PUSH1 0x40 DUP4 ADD DUP8 PUSH2 0x1C90 JUMP JUMPDEST PUSH2 0x2197 PUSH1 0x60 DUP4 ADD DUP7 PUSH2 0x1C90 JUMP JUMPDEST DUP2 DUP2 SUB PUSH1 0x80 DUP4 ADD MSTORE PUSH2 0x21A9 DUP2 DUP6 PUSH2 0x1E5A JUMP JUMPDEST SWAP1 POP PUSH2 0x21B8 PUSH1 0xA0 DUP4 ADD DUP5 PUSH2 0x1EFB JUMP JUMPDEST SWAP8 SWAP7 POP POP POP POP POP POP POP JUMP JUMPDEST PUSH1 0x0 PUSH1 0x20 DUP3 ADD SWAP1 POP PUSH2 0x21D8 PUSH1 0x0 DUP4 ADD DUP5 PUSH2 0x1DF4 JUMP JUMPDEST SWAP3 SWAP2 POP POP JUMP JUMPDEST PUSH1 0x0 DUP1 PUSH1 0x0 PUSH1 0x60 DUP5 DUP7 SUB SLT ISZERO PUSH2 0x21F7 JUMPI PUSH2 0x21F6 PUSH2 0x1BB2 JUMP JUMPDEST JUMPDEST PUSH1 0x0 PUSH2 0x2205 DUP7 DUP3 DUP8 ADD PUSH2 0x1C05 JUMP JUMPDEST SWAP4 POP POP PUSH1 0x20 PUSH2 0x2216 DUP7 DUP3 DUP8 ADD PUSH2 0x1C3B JUMP JUMPDEST SWAP3 POP POP PUSH1 0x40 PUSH2 0x2227 DUP7 DUP3 DUP8 ADD PUSH2 0x1C3B JUMP JUMPDEST SWAP2 POP POP SWAP3 POP SWAP3 POP SWAP3 JUMP JUMPDEST PUSH1 0x0 DUP2 MLOAD SWAP1 POP SWAP2 SWAP1 POP JUMP JUMPDEST PUSH1 0x0 DUP3 DUP3 MSTORE PUSH1 0x20 DUP3 ADD SWAP1 POP SWAP3 SWAP2 POP POP JUMP JUMPDEST PUSH1 0x0 DUP2 SWAP1 POP PUSH1 0x20 DUP3 ADD SWAP1 POP SWAP2 SWAP1 POP JUMP JUMPDEST PUSH2 0x2266 DUP2 PUSH2 0x1EE9 JUMP JUMPDEST DUP3 MSTORE POP POP JUMP JUMPDEST PUSH1 0x0 PUSH2 0x2278 DUP4 DUP4 PUSH2 0x225D JUMP JUMPDEST PUSH1 0x20 DUP4 ADD SWAP1 POP SWAP3 SWAP2 POP POP JUMP JUMPDEST PUSH1 0x0 PUSH1 0x20 DUP3 ADD SWAP1 POP SWAP2 SWAP1 POP JUMP JUMPDEST PUSH1 0x0 PUSH2 0x229C DUP3 PUSH2 0x2231 JUMP JUMPDEST PUSH2 0x22A6 DUP2 DUP6 PUSH2 0x223C JUMP JUMPDEST SWAP4 POP PUSH2 0x22B1 DUP4 PUSH2 0x224D JUMP JUMPDEST DUP1 PUSH1 0x0 JUMPDEST DUP4 DUP2 LT ISZERO PUSH2 0x22E2 JUMPI DUP2 MLOAD PUSH2 0x22C9 DUP9 DUP3 PUSH2 0x226C JUMP JUMPDEST SWAP8 POP PUSH2 0x22D4 DUP4 PUSH2 0x2284 JUMP JUMPDEST SWAP3 POP POP PUSH1 0x1 DUP2 ADD SWAP1 POP PUSH2 0x22B5 JUMP JUMPDEST POP DUP6 SWAP4 POP POP POP POP SWAP3 SWAP2 POP POP JUMP JUMPDEST PUSH1 0x0 PUSH1 0x80 DUP3 ADD SWAP1 POP DUP2 DUP2 SUB PUSH1 0x0 DUP4 ADD MSTORE PUSH2 0x2309 DUP2 DUP8 PUSH2 0x1D47 JUMP JUMPDEST SWAP1 POP DUP2 DUP2 SUB PUSH1 0x20 DUP4 ADD MSTORE PUSH2 0x231D DUP2 DUP7 PUSH2 0x1D47 JUMP JUMPDEST SWAP1 POP DUP2 DUP2 SUB PUSH1 0x40 DUP4 ADD MSTORE PUSH2 0x2331 DUP2 DUP6 PUSH2 0x1D47 JUMP JUMPDEST SWAP1 POP DUP2 DUP2 SUB PUSH1 0x60 DUP4 ADD MSTORE PUSH2 0x2345 DUP2 DUP5 PUSH2 0x2291 JUMP JUMPDEST SWAP1 POP SWAP6 SWAP5 POP POP POP POP POP JUMP JUMPDEST PUSH1 0x0 PUSH1 0x20 DUP3 DUP5 SUB SLT ISZERO PUSH2 0x2366 JUMPI PUSH2 0x2365 PUSH2 0x1BB2 JUMP JUMPDEST JUMPDEST PUSH1 0x0 DUP3 ADD CALLDATALOAD PUSH8 0xFFFFFFFFFFFFFFFF DUP2 GT ISZERO PUSH2 0x2384 JUMPI PUSH2 0x2383 PUSH2 0x1BB7 JUMP JUMPDEST JUMPDEST PUSH2 0x2390 DUP5 DUP3 DUP6 ADD PUSH2 0x208E JUMP JUMPDEST SWAP2 POP POP SWAP3 SWAP2 POP POP JUMP JUMPDEST PUSH1 0x0 DUP3 DUP3 MSTORE PUSH1 0x20 DUP3 ADD SWAP1 POP SWAP3 SWAP2 POP POP JUMP JUMPDEST PUSH32 0x4E6F206665657320746F20776974686472617700000000000000000000000000 PUSH1 0x0 DUP3 ADD MSTORE POP JUMP JUMPDEST PUSH1 0x0 PUSH2 0x23E0 PUSH1 0x13 DUP4 PUSH2 0x2399 JUMP JUMPDEST SWAP2 POP PUSH2 0x23EB DUP3 PUSH2 0x23AA JUMP JUMPDEST PUSH1 0x20 DUP3 ADD SWAP1 POP SWAP2 SWAP1 POP JUMP JUMPDEST PUSH1 0x0 PUSH1 0x20 DUP3 ADD SWAP1 POP DUP2 DUP2 SUB PUSH1 0x0 DUP4 ADD MSTORE PUSH2 0x240F DUP2 PUSH2 0x23D3 JUMP JUMPDEST SWAP1 POP SWAP2 SWAP1 POP JUMP JUMPDEST PUSH1 0x0 DUP2 SWAP1 POP SWAP3 SWAP2 POP POP JUMP JUMPDEST POP JUMP JUMPDEST PUSH1 0x0 PUSH2 0x2431 PUSH1 0x0 DUP4 PUSH2 0x2416 JUMP JUMPDEST SWAP2 POP PUSH2 0x243C DUP3 PUSH2 0x2421 JUMP JUMPDEST PUSH1 0x0 DUP3 ADD SWAP1 POP SWAP2 SWAP1 POP JUMP JUMPDEST PUSH1 0x0 PUSH2 0x2452 DUP3 PUSH2 0x2424 JUMP JUMPDEST SWAP2 POP DUP2 SWAP1 POP SWAP2 SWAP1 POP JUMP JUMPDEST PUSH32 0x5769746864726177616C206661696C6564000000000000000000000000000000 PUSH1 0x0 DUP3 ADD MSTORE POP JUMP JUMPDEST PUSH1 0x0 PUSH2 0x2492 PUSH1 0x11 DUP4 PUSH2 0x2399 JUMP JUMPDEST SWAP2 POP PUSH2 0x249D DUP3 PUSH2 0x245C JUMP JUMPDEST PUSH1 0x20 DUP3 ADD SWAP1 POP SWAP2 SWAP1 POP JUMP JUMPDEST PUSH1 0x0 PUSH1 0x20 DUP3 ADD SWAP1 POP DUP2 DUP2 SUB PUSH1 0x0 DUP4 ADD MSTORE PUSH2 0x24C1 DUP2 PUSH2 0x2485 JUMP JUMPDEST SWAP1 POP SWAP2 SWAP1 POP JUMP JUMPDEST PUSH32 0x4E487B7100000000000000000000000000000000000000000000000000000000 PUSH1 0x0 MSTORE PUSH1 0x22 PUSH1 0x4 MSTORE PUSH1 0x24 PUSH1 0x0 REVERT JUMPDEST PUSH1 0x0 PUSH1 0x2 DUP3 DIV SWAP1 POP PUSH1 0x1 DUP3 AND DUP1 PUSH2 0x250F JUMPI PUSH1 0x7F DUP3 AND SWAP2 POP JUMPDEST PUSH1 0x20 DUP3 LT DUP2 SUB PUSH2 0x2522 JUMPI PUSH2 0x2521 PUSH2 0x24C8 JUMP JUMPDEST JUMPDEST POP SWAP2 SWAP1 POP JUMP JUMPDEST PUSH32 0x4E6F7420796F75722067616D6500000000000000000000000000000000000000 PUSH1 0x0 DUP3 ADD MSTORE POP JUMP JUMPDEST PUSH1 0x0 PUSH2 0x255E PUSH1 0xD DUP4 PUSH2 0x2399 JUMP JUMPDEST SWAP2 POP PUSH2 0x2569 DUP3 PUSH2 0x2528 JUMP JUMPDEST PUSH1 0x20 DUP3 ADD SWAP1 POP SWAP2 SWAP1 POP JUMP JUMPDEST PUSH1 0x0 PUSH1 0x20 DUP3 ADD SWAP1 POP DUP2 DUP2 SUB PUSH1 0x0 DUP4 ADD MSTORE PUSH2 0x258D DUP2 PUSH2 0x2551 JUMP JUMPDEST SWAP1 POP SWAP2 SWAP1 POP JUMP JUMPDEST PUSH32 0x47616D65206E6F74206163746976650000000000000000000000000000000000 PUSH1 0x0 DUP3 ADD MSTORE POP JUMP JUMPDEST PUSH1 0x0 PUSH2 0x25CA PUSH1 0xF DUP4 PUSH2 0x2399 JUMP JUMPDEST SWAP2 POP PUSH2 0x25D5 DUP3 PUSH2 0x2594 JUMP JUMPDEST PUSH1 0x20 DUP3 ADD SWAP1 POP SWAP2 SWAP1 POP JUMP JUMPDEST PUSH1 0x0 PUSH1 0x20 DUP3 ADD SWAP1 POP DUP2 DUP2 SUB PUSH1 0x0 DUP4 ADD MSTORE PUSH2 0x25F9 DUP2 PUSH2 0x25BD JUMP JUMPDEST SWAP1 POP SWAP2 SWAP1 POP JUMP JUMPDEST PUSH1 0x0 PUSH1 0x40 DUP3 ADD SWAP1 POP PUSH2 0x2615 PUSH1 0x0 DUP4 ADD DUP6 PUSH2 0x1C90 JUMP JUMPDEST PUSH2 0x2622 PUSH1 0x20 DUP4 ADD DUP5 PUSH2 0x1C90 JUMP JUMPDEST SWAP4 SWAP3 POP POP POP JUMP JUMPDEST PUSH32 0x496E76616C696420746F6B656E20616464726573730000000000000000000000 PUSH1 0x0 DUP3 ADD MSTORE POP JUMP JUMPDEST PUSH1 0x0 PUSH2 0x265F PUSH1 0x15 DUP4 PUSH2 0x2399 JUMP JUMPDEST SWAP2 POP PUSH2 0x266A DUP3 PUSH2 0x2629 JUMP JUMPDEST PUSH1 0x20 DUP3 ADD SWAP1 POP SWAP2 SWAP1 POP JUMP JUMPDEST PUSH1 0x0 PUSH1 0x20 DUP3 ADD SWAP1 POP DUP2 DUP2 SUB PUSH1 0x0 DUP4 ADD MSTORE PUSH2 0x268E DUP2 PUSH2 0x2652 JUMP JUMPDEST SWAP1 POP SWAP2 SWAP1 POP JUMP JUMPDEST PUSH1 0x0 DUP2 MLOAD SWAP1 POP PUSH2 0x26A4 DUP2 PUSH2 0x1C24 JUMP JUMPDEST SWAP3 SWAP2 POP POP JUMP JUMPDEST PUSH1 0x0 PUSH1 0x20 DUP3 DUP5 SUB SLT ISZERO PUSH2 0x26C0 JUMPI PUSH2 0x26BF PUSH2 0x1BB2 JUMP JUMPDEST JUMPDEST PUSH1 0x0 PUSH2 0x26CE DUP5 DUP3 DUP6 ADD PUSH2 0x2695 JUMP JUMPDEST SWAP2 POP POP SWAP3 SWAP2 POP POP JUMP JUMPDEST PUSH32 0x4E6F20746F6B656E7320746F2077697468647261770000000000000000000000 PUSH1 0x0 DUP3 ADD MSTORE POP JUMP JUMPDEST PUSH1 0x0 PUSH2 0x270D PUSH1 0x15 DUP4 PUSH2 0x2399 JUMP JUMPDEST SWAP2 POP PUSH2 0x2718 DUP3 PUSH2 0x26D7 JUMP JUMPDEST PUSH1 0x20 DUP3 ADD SWAP1 POP SWAP2 SWAP1 POP JUMP JUMPDEST PUSH1 0x0 PUSH1 0x20 DUP3 ADD SWAP1 POP DUP2 DUP2 SUB PUSH1 0x0 DUP4 ADD MSTORE PUSH2 0x273C DUP2 PUSH2 0x2700 JUMP JUMPDEST SWAP1 POP SWAP2 SWAP1 POP JUMP JUMPDEST PUSH1 0x0 PUSH1 0x40 DUP3 ADD SWAP1 POP PUSH2 0x2758 PUSH1 0x0 DUP4 ADD DUP6 PUSH2 0x1DF4 JUMP JUMPDEST PUSH2 0x2765 PUSH1 0x20 DUP4 ADD DUP5 PUSH2 0x1C90 JUMP JUMPDEST SWAP4 SWAP3 POP POP POP JUMP JUMPDEST PUSH1 0x0 DUP2 ISZERO ISZERO SWAP1 POP SWAP2 SWAP1 POP JUMP JUMPDEST PUSH2 0x2781 DUP2 PUSH2 0x276C JUMP JUMPDEST DUP2 EQ PUSH2 0x278C JUMPI PUSH1 0x0 DUP1 REVERT JUMPDEST POP JUMP JUMPDEST PUSH1 0x0 DUP2 MLOAD SWAP1 POP PUSH2 0x279E DUP2 PUSH2 0x2778 JUMP JUMPDEST SWAP3 SWAP2 POP POP JUMP JUMPDEST PUSH1 0x0 PUSH1 0x20 DUP3 DUP5 SUB SLT ISZERO PUSH2 0x27BA JUMPI PUSH2 0x27B9 PUSH2 0x1BB2 JUMP JUMPDEST JUMPDEST PUSH1 0x0 PUSH2 0x27C8 DUP5 DUP3 DUP6 ADD PUSH2 0x278F JUMP JUMPDEST SWAP2 POP POP SWAP3 SWAP2 POP POP JUMP JUMPDEST PUSH32 0x546F6B656E207472616E73666572206661696C65640000000000000000000000 PUSH1 0x0 DUP3 ADD MSTORE POP JUMP JUMPDEST PUSH1 0x0 PUSH2 0x2807 PUSH1 0x15 DUP4 PUSH2 0x2399 JUMP JUMPDEST SWAP2 POP PUSH2 0x2812 DUP3 PUSH2 0x27D1 JUMP JUMPDEST PUSH1 0x20 DUP3 ADD SWAP1 POP SWAP2 SWAP1 POP JUMP JUMPDEST PUSH1 0x0 PUSH1 0x20 DUP3 ADD SWAP1 POP DUP2 DUP2 SUB PUSH1 0x0 DUP4 ADD MSTORE PUSH2 0x2836 DUP2 PUSH2 0x27FA JUMP JUMPDEST SWAP1 POP SWAP2 SWAP1 POP JUMP JUMPDEST PUSH32 0x496E73756666696369656E742067616D65206665650000000000000000000000 PUSH1 0x0 DUP3 ADD MSTORE POP JUMP JUMPDEST PUSH1 0x0 PUSH2 0x2873 PUSH1 0x15 DUP4 PUSH2 0x2399 JUMP JUMPDEST SWAP2 POP PUSH2 0x287E DUP3 PUSH2 0x283D JUMP JUMPDEST PUSH1 0x20 DUP3 ADD SWAP1 POP SWAP2 SWAP1 POP JUMP JUMPDEST PUSH1 0x0 PUSH1 0x20 DUP3 ADD SWAP1 POP DUP2 DUP2 SUB PUSH1 0x0 DUP4 ADD MSTORE PUSH2 0x28A2 DUP2 PUSH2 0x2866 JUMP JUMPDEST SWAP1 POP SWAP2 SWAP1 POP JUMP JUMPDEST PUSH32 0x4E487B7100000000000000000000000000000000000000000000000000000000 PUSH1 0x0 MSTORE PUSH1 0x11 PUSH1 0x4 MSTORE PUSH1 0x24 PUSH1 0x0 REVERT JUMPDEST PUSH1 0x0 PUSH2 0x28E3 DUP3 PUSH2 0x1C1A JUMP JUMPDEST SWAP2 POP PUSH32 0xFFFFFFFFFFFFFFFFFFFFFFFFFFFFFFFFFFFFFFFFFFFFFFFFFFFFFFFFFFFFFFFF DUP3 SUB PUSH2 0x2915 JUMPI PUSH2 0x2914 PUSH2 0x28A9 JUMP JUMPDEST JUMPDEST PUSH1 0x1 DUP3 ADD SWAP1 POP SWAP2 SWAP1 POP JUMP JUMPDEST PUSH1 0x0 PUSH1 0x20 DUP3 ADD SWAP1 POP DUP2 DUP2 SUB PUSH1 0x0 DUP4 ADD MSTORE PUSH2 0x293A DUP2 DUP5 PUSH2 0x1E5A JUMP JUMPDEST SWAP1 POP SWAP3 SWAP2 POP POP JUMP JUMPDEST PUSH1 0x0 DUP2 SWAP1 POP DUP2 PUSH1 0x0 MSTORE PUSH1 0x20 PUSH1 0x0 KECCAK256 SWAP1 POP SWAP2 SWAP1 POP JUMP JUMPDEST PUSH1 0x0 PUSH1 0x20 PUSH1 0x1F DUP4 ADD DIV SWAP1 POP SWAP2 SWAP1 POP JUMP JUMPDEST PUSH1 0x0 DUP3 DUP3 SHL SWAP1 POP SWAP3 SWAP2 POP POP JUMP JUMPDEST PUSH1 0x0 PUSH1 0x8 DUP4 MUL PUSH2 0x29A4 PUSH32 0xFFFFFFFFFFFFFFFFFFFFFFFFFFFFFFFFFFFFFFFFFFFFFFFFFFFFFFFFFFFFFFFF DUP3 PUSH2 0x2967 JUMP JUMPDEST PUSH2 0x29AE DUP7 DUP4 PUSH2 0x2967 JUMP JUMPDEST SWAP6 POP DUP1 NOT DUP5 AND SWAP4 POP DUP1 DUP7 AND DUP5 OR SWAP3 POP POP POP SWAP4 SWAP3 POP POP POP JUMP JUMPDEST PUSH1 0x0 DUP2 SWAP1 POP SWAP2 SWAP1 POP JUMP JUMPDEST PUSH1 0x0 PUSH2 0x29EB PUSH2 0x29E6 PUSH2 0x29E1 DUP5 PUSH2 0x1C1A JUMP JUMPDEST PUSH2 0x29C6 JUMP JUMPDEST PUSH2 0x1C1A JUMP JUMPDEST SWAP1 POP SWAP2 SWAP1 POP JUMP JUMPDEST PUSH1 0x0 DUP2 SWAP1 POP SWAP2 SWAP1 POP JUMP JUMPDEST PUSH2 0x2A05 DUP4 PUSH2 0x29D0 JUMP JUMPDEST PUSH2 0x2A19 PUSH2 0x2A11 DUP3 PUSH2 0x29F2 JUMP JUMPDEST DUP5 DUP5 SLOAD PUSH2 0x2974 JUMP JUMPDEST DUP3 SSTORE POP POP POP POP JUMP JUMPDEST PUSH1 0x0 SWAP1 JUMP JUMPDEST PUSH2 0x2A2E PUSH2 0x2A21 JUMP JUMPDEST PUSH2 0x2A39 DUP2 DUP5 DUP5 PUSH2 0x29FC JUMP JUMPDEST POP POP POP JUMP JUMPDEST JUMPDEST DUP2 DUP2 LT ISZERO PUSH2 0x2A5D JUMPI PUSH2 0x2A52 PUSH1 0x0 DUP3 PUSH2 0x2A26 JUMP JUMPDEST PUSH1 0x1 DUP2 ADD SWAP1 POP PUSH2 0x2A3F JUMP JUMPDEST POP POP JUMP JUMPDEST PUSH1 0x1F DUP3 GT ISZERO PUSH2 0x2AA2 JUMPI PUSH2 0x2A73 DUP2 PUSH2 0x2942 JUMP JUMPDEST PUSH2 0x2A7C DUP5 PUSH2 0x2957 JUMP JUMPDEST DUP2 ADD PUSH1 0x20 DUP6 LT ISZERO PUSH2 0x2A8B JUMPI DUP2 SWAP1 POP JUMPDEST PUSH2 0x2A9F PUSH2 0x2A97 DUP6 PUSH2 0x2957 JUMP JUMPDEST DUP4 ADD DUP3 PUSH2 0x2A3E JUMP JUMPDEST POP POP JUMPDEST POP POP POP JUMP JUMPDEST PUSH1 0x0 DUP3 DUP3 SHR SWAP1 POP SWAP3 SWAP2 POP POP JUMP JUMPDEST PUSH1 0x0 PUSH2 0x2AC5 PUSH1 0x0 NOT DUP5 PUSH1 0x8 MUL PUSH2 0x2AA7 JUMP JUMPDEST NOT DUP1 DUP4 AND SWAP2 POP POP SWAP3 SWAP2 POP POP JUMP JUMPDEST PUSH1 0x0 PUSH2 0x2ADE DUP4 DUP4 PUSH2 0x2AB4 JUMP JUMPDEST SWAP2 POP DUP3 PUSH1 0x2 MUL DUP3 OR SWAP1 POP SWAP3 SWAP2 POP POP JUMP JUMPDEST PUSH2 0x2AF7 DUP3 PUSH2 0x1E03 JUMP JUMPDEST PUSH8 0xFFFFFFFFFFFFFFFF DUP2 GT ISZERO PUSH2 0x2B10 JUMPI PUSH2 0x2B0F PUSH2 0x1F91 JUMP JUMPDEST JUMPDEST PUSH2 0x2B1A DUP3 SLOAD PUSH2 0x24F7 JUMP JUMPDEST PUSH2 0x2B25 DUP3 DUP3 DUP6 PUSH2 0x2A61 JUMP JUMPDEST PUSH1 0x0 PUSH1 0x20 SWAP1 POP PUSH1 0x1F DUP4 GT PUSH1 0x1 DUP2 EQ PUSH2 0x2B58 JUMPI PUSH1 0x0 DUP5 ISZERO PUSH2 0x2B46 JUMPI DUP3 DUP8 ADD MLOAD SWAP1 POP JUMPDEST PUSH2 0x2B50 DUP6 DUP3 PUSH2 0x2AD2 JUMP JUMPDEST DUP7 SSTORE POP PUSH2 0x2BB8 JUMP JUMPDEST PUSH1 0x1F NOT DUP5 AND PUSH2 0x2B66 DUP7 PUSH2 0x2942 JUMP JUMPDEST PUSH1 0x0 JUMPDEST DUP3 DUP2 LT ISZERO PUSH2 0x2B8E JUMPI DUP5 DUP10 ADD MLOAD DUP3 SSTORE PUSH1 0x1 DUP3 ADD SWAP2 POP PUSH1 0x20 DUP6 ADD SWAP5 POP PUSH1 0x20 DUP2 ADD SWAP1 POP PUSH2 0x2B69 JUMP JUMPDEST DUP7 DUP4 LT ISZERO PUSH2 0x2BAB JUMPI DUP5 DUP10 ADD MLOAD PUSH2 0x2BA7 PUSH1 0x1F DUP10 AND DUP3 PUSH2 0x2AB4 JUMP JUMPDEST DUP4 SSTORE POP JUMPDEST PUSH1 0x1 PUSH1 0x2 DUP9 MUL ADD DUP9 SSTORE POP POP POP JUMPDEST POP POP POP POP POP POP JUMP JUMPDEST PUSH1 0x0 PUSH2 0x2BCB DUP3 PUSH2 0x1C1A JUMP JUMPDEST SWAP2 POP PUSH2 0x2BD6 DUP4 PUSH2 0x1C1A JUMP JUMPDEST SWAP3 POP DUP3 DUP3 SUB SWAP1 POP DUP2 DUP2 GT ISZERO PUSH2 0x2BEE JUMPI PUSH2 0x2BED PUSH2 0x28A9 JUMP JUMPDEST JUMPDEST SWAP3 SWAP2 POP POP JUMP JUMPDEST PUSH32 0x4E487B7100000000000000000000000000000000000000000000000000000000 PUSH1 0x0 MSTORE PUSH1 0x32 PUSH1 0x4 MSTORE PUSH1 0x24 PUSH1 0x0 REVERT JUMPDEST PUSH32 0x526566756E64206661696C656400000000000000000000000000000000000000 PUSH1 0x0 DUP3 ADD MSTORE POP JUMP JUMPDEST PUSH1 0x0 PUSH2 0x2C59 PUSH1 0xD DUP4 PUSH2 0x2399 JUMP JUMPDEST SWAP2 POP PUSH2 0x2C64 DUP3 PUSH2 0x2C23 JUMP JUMPDEST PUSH1 0x20 DUP3 ADD SWAP1 POP SWAP2 SWAP1 POP JUMP JUMPDEST PUSH1 0x0 PUSH1 0x20 DUP3 ADD SWAP1 POP DUP2 DUP2 SUB PUSH1 0x0 DUP4 ADD MSTORE PUSH2 0x2C88 DUP2 PUSH2 0x2C4C JUMP JUMPDEST SWAP1 POP SWAP2 SWAP1 POP JUMP INVALID LOG2 PUSH5 0x6970667358 0x22 SLT KECCAK256 REVERT PUSH13 0x19142921C99C82BA2E65F88003 PUSH25 0xA64C5387404F7D3BFBBE378984BE045964736F6C634300081C STOP CALLER "
        },
        "methodIdentifiers": {
          "GRID_SIZE()": "7fc4eda8",
          "MAX_BAD_PLACEMENTS()": "8afc4754",
          "MAX_HINTS()": "17092c94",
          "gameFee()": "ea777eec",
          "gameIdCounter()": "1bb412d6",
          "getActiveGame(address)": "7bf77345",
          "getGameSession(uint256)": "8ab06fea",
          "getGameSessionWithPuzzle(uint256)": "4edcfed6",
          "getPlayerGames(address)": "129daf84",
          "getPlayerHistory(address,uint256,uint256)": "d46588bf",
          "owner()": "8da5cb5b",
          "playerGames(address,uint256)": "0a5694c2",
          "renounceOwnership()": "715018a6",
          "startGame(bytes)": "dc2ac129",
          "submitGame(uint256,uint256,bytes)": "628aa9a7",
          "transferOwnership(address)": "f2fde38b",
          "updateGameFee(uint256)": "b70a6dec",
          "withdrawFees()": "476343ee",
          "withdrawLostTokens(address)": "a3546be4"
        }
      }
    }
  }
}