{
  "_format": "hh-sol-artifact-1",
  "contractName": "Game2048",
  "sourceName": "contracts/Game2048.sol",
  "abi": [
    {
      "inputs": [],
      "stateMutability": "nonpayable",
      "type": "constructor"
    },
    {
      "inputs": [
        {
          "internalType": "address",
          "name": "owner",
          "type": "address"
        }
      ],
      "name": "OwnableInvalidOwner",
      "type": "error"
    },
    {
      "inputs": [
        {
          "internalType": "address",
          "name": "account",
          "type": "address"
        }
      ],
      "name": "OwnableUnauthorizedAccount",
      "type": "error"
    },
    {
      "inputs": [],
      "name": "ReentrancyGuardReentrantCall",
      "type": "error"
    },
    {
      "anonymous": false,
      "inputs": [
        {
          "indexed": true,
          "internalType": "address",
          "name": "owner",
          "type": "address"
        },
        {
          "indexed": false,
          "internalType": "uint256",
          "name": "amount",
          "type": "uint256"
        }
      ],
      "name": "FeesWithdrawn",
      "type": "event"
    },
    {
      "anonymous": false,
      "inputs": [
        {
          "indexed": true,
          "internalType": "address",
          "name": "player",
          "type": "address"
        },
        {
          "indexed": true,
          "internalType": "uint256",
          "name": "gameId",
          "type": "uint256"
        }
      ],
      "name": "GameAbandoned",
      "type": "event"
    },
    {
      "anonymous": false,
      "inputs": [
        {
          "indexed": true,
          "internalType": "address",
          "name": "player",
          "type": "address"
        },
        {
          "indexed": true,
          "internalType": "uint256",
          "name": "gameId",
          "type": "uint256"
        },
        {
          "indexed": false,
          "internalType": "uint256",
          "name": "finalScore",
          "type": "uint256"
        },
        {
          "indexed": false,
          "internalType": "uint256",
          "name": "moveCount",
          "type": "uint256"
        }
      ],
      "name": "GameCompleted",
      "type": "event"
    },
    {
      "anonymous": false,
      "inputs": [
        {
          "indexed": false,
          "internalType": "uint256",
          "name": "oldFee",
          "type": "uint256"
        },
        {
          "indexed": false,
          "internalType": "uint256",
          "name": "newFee",
          "type": "uint256"
        }
      ],
      "name": "GameFeeUpdated",
      "type": "event"
    },
    {
      "anonymous": false,
      "inputs": [
        {
          "indexed": true,
          "internalType": "address",
          "name": "player",
          "type": "address"
        },
        {
          "indexed": true,
          "internalType": "uint256",
          "name": "gameId",
          "type": "uint256"
        },
        {
          "indexed": false,
          "internalType": "bytes",
          "name": "gameData",
          "type": "bytes"
        }
      ],
      "name": "GameStarted",
      "type": "event"
    },
    {
      "anonymous": false,
      "inputs": [
        {
          "indexed": true,
          "internalType": "address",
          "name": "previousOwner",
          "type": "address"
        },
        {
          "indexed": true,
          "internalType": "address",
          "name": "newOwner",
          "type": "address"
        }
      ],
      "name": "OwnershipTransferred",
      "type": "event"
    },
    {
      "inputs": [],
      "name": "gameFee",
      "outputs": [
        {
          "internalType": "uint256",
          "name": "",
          "type": "uint256"
        }
      ],
      "stateMutability": "view",
      "type": "function"
    },
    {
      "inputs": [],
      "name": "gameIdCounter",
      "outputs": [
        {
          "internalType": "uint256",
          "name": "",
          "type": "uint256"
        }
      ],
      "stateMutability": "view",
      "type": "function"
    },
    {
      "inputs": [
        {
          "internalType": "address",
          "name": "_player",
          "type": "address"
        }
      ],
      "name": "getActiveGame",
      "outputs": [
        {
          "internalType": "uint256",
          "name": "gameId",
          "type": "uint256"
        },
        {
          "internalType": "bytes",
          "name": "gameData",
          "type": "bytes"
        }
      ],
      "stateMutability": "view",
      "type": "function"
    },
    {
      "inputs": [
        {
          "internalType": "uint256",
          "name": "_gameId",
          "type": "uint256"
        }
      ],
      "name": "getGameSession",
      "outputs": [
        {
          "internalType": "address",
          "name": "player",
          "type": "address"
        },
        {
          "internalType": "uint256",
          "name": "startTime",
          "type": "uint256"
        },
        {
          "internalType": "uint256",
          "name": "endTime",
          "type": "uint256"
        },
        {
          "internalType": "uint256",
          "name": "finalScore",
          "type": "uint256"
        },
        {
          "internalType": "bytes",
          "name": "moves",
          "type": "bytes"
        },
        {
          "internalType": "enum IMiniGamesOnInk.GameState",
          "name": "state",
          "type": "uint8"
        }
      ],
      "stateMutability": "view",
      "type": "function"
    },
    {
      "inputs": [
        {
          "internalType": "uint256",
          "name": "_gameId",
          "type": "uint256"
        }
      ],
      "name": "getGameSessionWithBoard",
      "outputs": [
        {
          "internalType": "address",
          "name": "player",
          "type": "address"
        },
        {
          "internalType": "uint256[16]",
          "name": "initialBoard",
          "type": "uint256[16]"
        },
        {
          "internalType": "uint256",
          "name": "startTime",
          "type": "uint256"
        },
        {
          "internalType": "uint256",
          "name": "endTime",
          "type": "uint256"
        },
        {
          "internalType": "uint256",
          "name": "finalScore",
          "type": "uint256"
        },
        {
          "internalType": "bytes",
          "name": "moves",
          "type": "bytes"
        },
        {
          "internalType": "enum IMiniGamesOnInk.GameState",
          "name": "state",
          "type": "uint8"
        }
      ],
      "stateMutability": "view",
      "type": "function"
    },
    {
      "inputs": [
        {
          "internalType": "address",
          "name": "_player",
          "type": "address"
        }
      ],
      "name": "getPlayerGames",
      "outputs": [
        {
          "internalType": "uint256[]",
          "name": "",
          "type": "uint256[]"
        }
      ],
      "stateMutability": "view",
      "type": "function"
    },
    {
      "inputs": [
        {
          "internalType": "address",
          "name": "_player",
          "type": "address"
        },
        {
          "internalType": "uint256",
          "name": "_limit",
          "type": "uint256"
        },
        {
          "internalType": "uint256",
          "name": "_offset",
          "type": "uint256"
        }
      ],
      "name": "getPlayerHistory",
      "outputs": [
        {
          "internalType": "uint256[]",
          "name": "gameIds",
          "type": "uint256[]"
        },
        {
          "internalType": "uint256[]",
          "name": "scores",
          "type": "uint256[]"
        },
        {
          "internalType": "uint256[]",
          "name": "timestamps",
          "type": "uint256[]"
        },
        {
          "internalType": "enum IMiniGamesOnInk.GameState[]",
          "name": "states",
          "type": "uint8[]"
        }
      ],
      "stateMutability": "view",
      "type": "function"
    },
    {
      "inputs": [],
      "name": "owner",
      "outputs": [
        {
          "internalType": "address",
          "name": "",
          "type": "address"
        }
      ],
      "stateMutability": "view",
      "type": "function"
    },
    {
      "inputs": [
        {
          "internalType": "address",
          "name": "",
          "type": "address"
        },
        {
          "internalType": "uint256",
          "name": "",
          "type": "uint256"
        }
      ],
      "name": "playerGames",
      "outputs": [
        {
          "internalType": "uint256",
          "name": "",
          "type": "uint256"
        }
      ],
      "stateMutability": "view",
      "type": "function"
    },
    {
      "inputs": [],
      "name": "renounceOwnership",
      "outputs": [],
      "stateMutability": "nonpayable",
      "type": "function"
    },
    {
      "inputs": [
        {
          "internalType": "bytes",
          "name": "gameData",
          "type": "bytes"
        }
      ],
      "name": "startGame",
      "outputs": [
        {
          "internalType": "uint256",
          "name": "",
          "type": "uint256"
        }
      ],
      "stateMutability": "payable",
      "type": "function"
    },
    {
      "inputs": [
        {
          "internalType": "uint256",
          "name": "_gameId",
          "type": "uint256"
        },
        {
          "internalType": "uint256",
          "name": "_finalScore",
          "type": "uint256"
        },
        {
          "internalType": "bytes",
          "name": "_moves",
          "type": "bytes"
        }
      ],
      "name": "submitGame",
      "outputs": [],
      "stateMutability": "nonpayable",
      "type": "function"
    },
    {
      "inputs": [
        {
          "internalType": "address",
          "name": "newOwner",
          "type": "address"
        }
      ],
      "name": "transferOwnership",
      "outputs": [],
      "stateMutability": "nonpayable",
      "type": "function"
    },
    {
      "inputs": [
        {
          "internalType": "uint256",
          "name": "_newFee",
          "type": "uint256"
        }
      ],
      "name": "updateGameFee",
      "outputs": [],
      "stateMutability": "nonpayable",
      "type": "function"
    },
    {
      "inputs": [],
      "name": "withdrawFees",
      "outputs": [],
      "stateMutability": "nonpayable",
      "type": "function"
    },
    {
      "inputs": [
        {
          "internalType": "address",
          "name": "tokenAddress",
          "type": "address"
        }
      ],
      "name": "withdrawLostTokens",
      "outputs": [],
      "stateMutability": "nonpayable",
      "type": "function"
    }
  ],
  "bytecode": "0x6080604052655af3107a400060025534801561001a57600080fd5b5033600073ffffffffffffffffffffffffffffffffffffffff168173ffffffffffffffffffffffffffffffffffffffff160361008e5760006040517f1e4fbdf700000000000000000000000000000000000000000000000000000000815260040161008591906101af565b60405180910390fd5b61009d816100aa60201b60201c565b50600180819055506101ca565b60008060009054906101000a900473ffffffffffffffffffffffffffffffffffffffff169050816000806101000a81548173ffffffffffffffffffffffffffffffffffffffff021916908373ffffffffffffffffffffffffffffffffffffffff1602179055508173ffffffffffffffffffffffffffffffffffffffff168173ffffffffffffffffffffffffffffffffffffffff167f8be0079c531659141344cd1fd0a4f28419497f9722a3daafe3b4186f6b6457e060405160405180910390a35050565b600073ffffffffffffffffffffffffffffffffffffffff82169050919050565b60006101998261016e565b9050919050565b6101a98161018e565b82525050565b60006020820190506101c460008301846101a0565b92915050565b612e04806101d96000396000f3fe6080604052600436106100f35760003560e01c80638da5cb5b1161008a578063dc2ac12911610059578063dc2ac12914610331578063ea777eec14610361578063eaad78041461038c578063f2fde38b146103cf576100f3565b80638da5cb5b14610274578063a3546be41461029f578063b70a6dec146102c8578063d46588bf146102f1576100f3565b8063628aa9a7116100c6578063628aa9a7146101b4578063715018a6146101dd5780637bf77345146101f45780638ab06fea14610232576100f3565b80630a5694c2146100f8578063129daf84146101355780631bb412d614610172578063476343ee1461019d575b600080fd5b34801561010457600080fd5b5061011f600480360381019061011a9190611c28565b6103f8565b60405161012c9190611c77565b60405180910390f35b34801561014157600080fd5b5061015c60048036038101906101579190611c92565b610429565b6040516101699190611d7d565b60405180910390f35b34801561017e57600080fd5b506101876104c0565b6040516101949190611c77565b60405180910390f35b3480156101a957600080fd5b506101b26104c6565b005b3480156101c057600080fd5b506101db60048036038101906101d69190611ee5565b610632565b005b3480156101e957600080fd5b506101f26107c6565b005b34801561020057600080fd5b5061021b60048036038101906102169190611c92565b6107da565b604051610229929190611fd3565b60405180910390f35b34801561023e57600080fd5b5061025960048036038101906102549190612003565b6107f4565b60405161026b969594939291906120b6565b60405180910390f35b34801561028057600080fd5b5061028961081e565b604051610296919061211e565b60405180910390f35b3480156102ab57600080fd5b506102c660048036038101906102c19190611c92565b610847565b005b3480156102d457600080fd5b506102ef60048036038101906102ea9190612003565b610a5d565b005b3480156102fd57600080fd5b5061031860048036038101906103139190612139565b610ab0565b604051610328949392919061224a565b60405180910390f35b61034b600480360381019061034691906122ab565b610ad6565b6040516103589190611c77565b60405180910390f35b34801561036d57600080fd5b50610376610c2c565b6040516103839190611c77565b60405180910390f35b34801561039857600080fd5b506103b360048036038101906103ae9190612003565b610c32565b6040516103c69796959493929190612378565b60405180910390f35b3480156103db57600080fd5b506103f660048036038101906103f19190611c92565b610df1565b005b6003602052816000526040600020818154811061041457600080fd5b90600052602060002001600091509150505481565b6060600360008373ffffffffffffffffffffffffffffffffffffffff1673ffffffffffffffffffffffffffffffffffffffff1681526020019081526020016000208054806020026020016040519081016040528092919081815260200182805480156104b457602002820191906000526020600020905b8154815260200190600101908083116104a0575b50505050509050919050565b60055481565b6104ce610e77565b6104d6610efe565b60004790506000811161051e576040517f08c379a000000000000000000000000000000000000000000000000000000000815260040161051590612451565b60405180910390fd5b600061052861081e565b73ffffffffffffffffffffffffffffffffffffffff168260405161054b906124a2565b60006040518083038185875af1925050503d8060008114610588576040519150601f19603f3d011682016040523d82523d6000602084013e61058d565b606091505b50509050806105d1576040517f08c379a00000000000000000000000000000000000000000000000000000000081526004016105c890612503565b60405180910390fd5b6105d961081e565b73ffffffffffffffffffffffffffffffffffffffff167fc0819c13be868895eb93e40eaceb96de976442fa1d404e5c55f14bb65a8c489a8360405161061e9190611c77565b60405180910390a25050610630610f44565b565b61063a610efe565b60006004600085815260200190815260200160002090503373ffffffffffffffffffffffffffffffffffffffff168160000160009054906101000a900473ffffffffffffffffffffffffffffffffffffffff1673ffffffffffffffffffffffffffffffffffffffff16146106e3576040517f08c379a00000000000000000000000000000000000000000000000000000000081526004016106da9061256f565b60405180910390fd5b600060028111156106f7576106f661203f565b5b8160070160009054906101000a900460ff16600281111561071b5761071a61203f565b5b1461075b576040517f08c379a0000000000000000000000000000000000000000000000000000000008152600401610752906125db565b60405180910390fd5b610766818484610f4d565b833373ffffffffffffffffffffffffffffffffffffffff167f02bc913790ab631ec32c90d78f72b9b8ef68289c2dcd586f7da9c36b244a2ed48585516040516107b09291906125fb565b60405180910390a3506107c1610f44565b505050565b6107ce610e77565b6107d86000610fa3565b565b600060606107eb6003600485611067565b91509150915091565b600080600080606060006108096004886111f5565b95509550955095509550955091939550919395565b60008060009054906101000a900473ffffffffffffffffffffffffffffffffffffffff16905090565b61084f610e77565b610857610efe565b600073ffffffffffffffffffffffffffffffffffffffff168173ffffffffffffffffffffffffffffffffffffffff16036108c6576040517f08c379a00000000000000000000000000000000000000000000000000000000081526004016108bd90612670565b60405180910390fd5b600081905060008173ffffffffffffffffffffffffffffffffffffffff166370a08231306040518263ffffffff1660e01b8152600401610906919061211e565b602060405180830381865afa158015610923573d6000803e3d6000fd5b505050506040513d601f19601f8201168201806040525081019061094791906126a5565b90506000811161098c576040517f08c379a00000000000000000000000000000000000000000000000000000000081526004016109839061271e565b60405180910390fd5b8173ffffffffffffffffffffffffffffffffffffffff1663a9059cbb6109b061081e565b836040518363ffffffff1660e01b81526004016109ce92919061273e565b6020604051808303816000875af11580156109ed573d6000803e3d6000fd5b505050506040513d601f19601f82011682018060405250810190610a11919061279f565b610a50576040517f08c379a0000000000000000000000000000000000000000000000000000000008152600401610a4790612818565b60405180910390fd5b5050610a5a610f44565b50565b610a65610e77565b60006002549050816002819055507f75aef5483b24548953e5e86df155417ee9e1b8a174ad54f9c1a2211ab03822c28183604051610aa49291906125fb565b60405180910390a15050565b606080606080610ac560036004898989611301565b935093509350935093509350935093565b6000610ae0610efe565b600254341015610b25576040517f08c379a0000000000000000000000000000000000000000000000000000000008152600401610b1c90612884565b60405180910390fd5b600080610b35600360043361173b565b915091508115610b8457803373ffffffffffffffffffffffffffffffffffffffff167fc8fea8853b9a09335acd8a7a289338cd416b10c98090b62aa8361950b866303d60405160405180910390a35b60056000815480929190610b97906128d3565b919050555060006005549050610bb26004600383338961186b565b610bbf6006600733611982565b803373ffffffffffffffffffffffffffffffffffffffff167fb93756cd05fbb5bda0c87e5d77406d7b7e3649fe1327f6783b4e28bb5789d96987604051610c06919061291b565b60405180910390a3610c19600254611a91565b809350505050610c27610f44565b919050565b60025481565b6000610c3c611b5d565b60008060006060600080600460008a815260200190815260200160002090506000816002018054610c6c9061296c565b80601f0160208091040260200160405190810160405280929190818152602001828054610c989061296c565b8015610ce55780601f10610cba57610100808354040283529160200191610ce5565b820191906000526020600020905b815481529060010190602001808311610cc857829003601f168201915b5050505050806020019051810190610cfd9190612a53565b90508160000160009054906101000a900473ffffffffffffffffffffffffffffffffffffffff1681836003015484600401548560050154866006018760070160009054906101000a900460ff16818054610d569061296c565b80601f0160208091040260200160405190810160405280929190818152602001828054610d829061296c565b8015610dcf5780601f10610da457610100808354040283529160200191610dcf565b820191906000526020600020905b815481529060010190602001808311610db257829003601f168201915b5050505050915098509850985098509850985098505050919395979092949650565b610df9610e77565b600073ffffffffffffffffffffffffffffffffffffffff168173ffffffffffffffffffffffffffffffffffffffff1603610e6b5760006040517f1e4fbdf7000000000000000000000000000000000000000000000000000000008152600401610e62919061211e565b60405180910390fd5b610e7481610fa3565b50565b610e7f611b55565b73ffffffffffffffffffffffffffffffffffffffff16610e9d61081e565b73ffffffffffffffffffffffffffffffffffffffff1614610efc57610ec0611b55565b6040517f118cdaa7000000000000000000000000000000000000000000000000000000008152600401610ef3919061211e565b60405180910390fd5b565b600260015403610f3a576040517f3ee5aeb500000000000000000000000000000000000000000000000000000000815260040160405180910390fd5b6002600181905550565b60018081905550565b81836005018190555080836006019081610f679190612c2d565b5042836004018190555060018360070160006101000a81548160ff02191690836002811115610f9957610f9861203f565b5b0217905550505050565b60008060009054906101000a900473ffffffffffffffffffffffffffffffffffffffff169050816000806101000a81548173ffffffffffffffffffffffffffffffffffffffff021916908373ffffffffffffffffffffffffffffffffffffffff1602179055508173ffffffffffffffffffffffffffffffffffffffff168173ffffffffffffffffffffffffffffffffffffffff167f8be0079c531659141344cd1fd0a4f28419497f9722a3daafe3b4186f6b6457e060405160405180910390a35050565b6000606060008560008573ffffffffffffffffffffffffffffffffffffffff1673ffffffffffffffffffffffffffffffffffffffff168152602001908152602001600020905060008180549050036110c35760009250506111ed565b600081600183805490506110d79190612cff565b815481106110e8576110e7612d33565b5b90600052602060002001549050600086600083815260200190815260200160002090506000600281111561111f5761111e61203f565b5b8160070160009054906101000a900460ff1660028111156111435761114261203f565b5b036111e55781816002018080546111599061296c565b80601f01602080910402602001604051908101604052809291908181526020018280546111859061296c565b80156111d25780601f106111a7576101008083540402835291602001916111d2565b820191906000526020600020905b8154815290600101906020018083116111b557829003601f168201915b50505050509050945094505050506111ed565b600094505050505b935093915050565b600080600080606060008088600089815260200190815260200160002090508060000160009054906101000a900473ffffffffffffffffffffffffffffffffffffffff16816003015482600401548360050154846006018560070160009054906101000a900460ff1681805461126a9061296c565b80601f01602080910402602001604051908101604052809291908181526020018280546112969061296c565b80156112e35780601f106112b8576101008083540402835291602001916112e3565b820191906000526020600020905b8154815290600101906020018083116112c657829003601f168201915b50505050509150965096509650965096509650509295509295509295565b60608060608060008960008973ffffffffffffffffffffffffffffffffffffffff1673ffffffffffffffffffffffffffffffffffffffff168152602001908152602001600020905060008180549050905080871061149057600067ffffffffffffffff81111561137457611373611dba565b5b6040519080825280602002602001820160405280156113a25781602001602082028036833780820191505090505b50600067ffffffffffffffff8111156113be576113bd611dba565b5b6040519080825280602002602001820160405280156113ec5781602001602082028036833780820191505090505b50600067ffffffffffffffff81111561140857611407611dba565b5b6040519080825280602002602001820160405280156114365781602001602082028036833780820191505090505b50600067ffffffffffffffff81111561145257611451611dba565b5b6040519080825280602002602001820160405280156114805781602001602082028036833780820191505090505b509550955095509550505061172f565b6000878261149e9190612cff565b905060008982106114af57896114b1565b815b90508067ffffffffffffffff8111156114cd576114cc611dba565b5b6040519080825280602002602001820160405280156114fb5781602001602082028036833780820191505090505b5097508067ffffffffffffffff81111561151857611517611dba565b5b6040519080825280602002602001820160405280156115465781602001602082028036833780820191505090505b5096508067ffffffffffffffff81111561156357611562611dba565b5b6040519080825280602002602001820160405280156115915781602001602082028036833780820191505090505b5095508067ffffffffffffffff8111156115ae576115ad611dba565b5b6040519080825280602002602001820160405280156115dc5781602001602082028036833780820191505090505b50945060005b8181101561172957600085828c6001886115fc9190612cff565b6116069190612cff565b6116109190612cff565b8154811061162157611620612d33565b5b9060005260206000200154905060008e60008381526020019081526020016000209050818b848151811061165857611657612d33565b5b60200260200101818152505080600501548a848151811061167c5761167b612d33565b5b602002602001018181525050600081600401541161169e5780600301546116a4565b80600401545b8984815181106116b7576116b6612d33565b5b6020026020010181815250508060070160009054906101000a900460ff168884815181106116e8576116e7612d33565b5b602002602001019060028111156117025761170161203f565b5b908160028111156117165761171561203f565b5b81525050505080806001019150506115e2565b50505050505b95509550955095915050565b60008060008560008573ffffffffffffffffffffffffffffffffffffffff1673ffffffffffffffffffffffffffffffffffffffff168152602001908152602001600020905060008180549050111561185a57600081600183805490506117a19190612cff565b815481106117b2576117b1612d33565b5b9060005260206000200154905060008660008381526020019081526020016000209050600060028111156117e9576117e861203f565b5b8160070160009054906101000a900460ff16600281111561180d5761180c61203f565b5b036118575760028160070160006101000a81548160ff0219169083600281111561183a5761183961203f565b5b021790555042816004018190555060018294509450505050611863565b50505b60008092509250505b935093915050565b60008560008581526020019081526020016000209050828160000160006101000a81548173ffffffffffffffffffffffffffffffffffffffff021916908373ffffffffffffffffffffffffffffffffffffffff160217905550838160010181905550818160020190816118de9190612c2d565b5042816003018190555060008160070160006101000a81548160ff021916908360028111156119105761190f61203f565b5b02179055508460008473ffffffffffffffffffffffffffffffffffffffff1673ffffffffffffffffffffffffffffffffffffffff168152602001908152602001600020849080600181540180825580915050600190039060005260206000200160009091909190915055505050505050565b8160008273ffffffffffffffffffffffffffffffffffffffff1673ffffffffffffffffffffffffffffffffffffffff16815260200190815260200160002060009054906101000a900460ff16611a8c5782819080600181540180825580915050600190039060005260206000200160009091909190916101000a81548173ffffffffffffffffffffffffffffffffffffffff021916908373ffffffffffffffffffffffffffffffffffffffff16021790555060018260008373ffffffffffffffffffffffffffffffffffffffff1673ffffffffffffffffffffffffffffffffffffffff16815260200190815260200160002060006101000a81548160ff0219169083151502179055505b505050565b80341115611b525760003373ffffffffffffffffffffffffffffffffffffffff168234611abe9190612cff565b604051611aca906124a2565b60006040518083038185875af1925050503d8060008114611b07576040519150601f19603f3d011682016040523d82523d6000602084013e611b0c565b606091505b5050905080611b50576040517f08c379a0000000000000000000000000000000000000000000000000000000008152600401611b4790612dae565b60405180910390fd5b505b50565b600033905090565b604051806102000160405280601090602082028036833780820191505090505090565b6000604051905090565b600080fd5b600080fd5b600073ffffffffffffffffffffffffffffffffffffffff82169050919050565b6000611bbf82611b94565b9050919050565b611bcf81611bb4565b8114611bda57600080fd5b50565b600081359050611bec81611bc6565b92915050565b6000819050919050565b611c0581611bf2565b8114611c1057600080fd5b50565b600081359050611c2281611bfc565b92915050565b60008060408385031215611c3f57611c3e611b8a565b5b6000611c4d85828601611bdd565b9250506020611c5e85828601611c13565b9150509250929050565b611c7181611bf2565b82525050565b6000602082019050611c8c6000830184611c68565b92915050565b600060208284031215611ca857611ca7611b8a565b5b6000611cb684828501611bdd565b91505092915050565b600081519050919050565b600082825260208201905092915050565b6000819050602082019050919050565b611cf481611bf2565b82525050565b6000611d068383611ceb565b60208301905092915050565b6000602082019050919050565b6000611d2a82611cbf565b611d348185611cca565b9350611d3f83611cdb565b8060005b83811015611d70578151611d578882611cfa565b9750611d6283611d12565b925050600181019050611d43565b5085935050505092915050565b60006020820190508181036000830152611d978184611d1f565b905092915050565b600080fd5b600080fd5b6000601f19601f8301169050919050565b7f4e487b7100000000000000000000000000000000000000000000000000000000600052604160045260246000fd5b611df282611da9565b810181811067ffffffffffffffff82111715611e1157611e10611dba565b5b80604052505050565b6000611e24611b80565b9050611e308282611de9565b919050565b600067ffffffffffffffff821115611e5057611e4f611dba565b5b611e5982611da9565b9050602081019050919050565b82818337600083830152505050565b6000611e88611e8384611e35565b611e1a565b905082815260208101848484011115611ea457611ea3611da4565b5b611eaf848285611e66565b509392505050565b600082601f830112611ecc57611ecb611d9f565b5b8135611edc848260208601611e75565b91505092915050565b600080600060608486031215611efe57611efd611b8a565b5b6000611f0c86828701611c13565b9350506020611f1d86828701611c13565b925050604084013567ffffffffffffffff811115611f3e57611f3d611b8f565b5b611f4a86828701611eb7565b9150509250925092565b600081519050919050565b600082825260208201905092915050565b60005b83811015611f8e578082015181840152602081019050611f73565b60008484015250505050565b6000611fa582611f54565b611faf8185611f5f565b9350611fbf818560208601611f70565b611fc881611da9565b840191505092915050565b6000604082019050611fe86000830185611c68565b8181036020830152611ffa8184611f9a565b90509392505050565b60006020828403121561201957612018611b8a565b5b600061202784828501611c13565b91505092915050565b61203981611bb4565b82525050565b7f4e487b7100000000000000000000000000000000000000000000000000000000600052602160045260246000fd5b6003811061207f5761207e61203f565b5b50565b60008190506120908261206e565b919050565b60006120a082612082565b9050919050565b6120b081612095565b82525050565b600060c0820190506120cb6000830189612030565b6120d86020830188611c68565b6120e56040830187611c68565b6120f26060830186611c68565b81810360808301526121048185611f9a565b905061211360a08301846120a7565b979650505050505050565b60006020820190506121336000830184612030565b92915050565b60008060006060848603121561215257612151611b8a565b5b600061216086828701611bdd565b935050602061217186828701611c13565b925050604061218286828701611c13565b9150509250925092565b600081519050919050565b600082825260208201905092915050565b6000819050602082019050919050565b6121c181612095565b82525050565b60006121d383836121b8565b60208301905092915050565b6000602082019050919050565b60006121f78261218c565b6122018185612197565b935061220c836121a8565b8060005b8381101561223d57815161222488826121c7565b975061222f836121df565b925050600181019050612210565b5085935050505092915050565b600060808201905081810360008301526122648187611d1f565b905081810360208301526122788186611d1f565b9050818103604083015261228c8185611d1f565b905081810360608301526122a081846121ec565b905095945050505050565b6000602082840312156122c1576122c0611b8a565b5b600082013567ffffffffffffffff8111156122df576122de611b8f565b5b6122eb84828501611eb7565b91505092915050565b600060109050919050565b600081905092915050565b6000819050919050565b6000602082019050919050565b61232a816122f4565b61233481846122ff565b925061233f8261230a565b8060005b838110156123705781516123578782611cfa565b965061236283612314565b925050600181019050612343565b505050505050565b60006102c08201905061238e600083018a612030565b61239b6020830189612321565b6123a9610220830188611c68565b6123b7610240830187611c68565b6123c5610260830186611c68565b8181036102808301526123d88185611f9a565b90506123e86102a08301846120a7565b98975050505050505050565b600082825260208201905092915050565b7f4e6f206665657320746f20776974686472617700000000000000000000000000600082015250565b600061243b6013836123f4565b915061244682612405565b602082019050919050565b6000602082019050818103600083015261246a8161242e565b9050919050565b600081905092915050565b50565b600061248c600083612471565b91506124978261247c565b600082019050919050565b60006124ad8261247f565b9150819050919050565b7f5769746864726177616c206661696c6564000000000000000000000000000000600082015250565b60006124ed6011836123f4565b91506124f8826124b7565b602082019050919050565b6000602082019050818103600083015261251c816124e0565b9050919050565b7f4e6f7420796f75722067616d6500000000000000000000000000000000000000600082015250565b6000612559600d836123f4565b915061256482612523565b602082019050919050565b600060208201905081810360008301526125888161254c565b9050919050565b7f47616d65206e6f74206163746976650000000000000000000000000000000000600082015250565b60006125c5600f836123f4565b91506125d08261258f565b602082019050919050565b600060208201905081810360008301526125f4816125b8565b9050919050565b60006040820190506126106000830185611c68565b61261d6020830184611c68565b9392505050565b7f496e76616c696420746f6b656e20616464726573730000000000000000000000600082015250565b600061265a6015836123f4565b915061266582612624565b602082019050919050565b600060208201905081810360008301526126898161264d565b9050919050565b60008151905061269f81611bfc565b92915050565b6000602082840312156126bb576126ba611b8a565b5b60006126c984828501612690565b91505092915050565b7f4e6f20746f6b656e7320746f2077697468647261770000000000000000000000600082015250565b60006127086015836123f4565b9150612713826126d2565b602082019050919050565b60006020820190508181036000830152612737816126fb565b9050919050565b60006040820190506127536000830185612030565b6127606020830184611c68565b9392505050565b60008115159050919050565b61277c81612767565b811461278757600080fd5b50565b60008151905061279981612773565b92915050565b6000602082840312156127b5576127b4611b8a565b5b60006127c38482850161278a565b91505092915050565b7f546f6b656e207472616e73666572206661696c65640000000000000000000000600082015250565b60006128026015836123f4565b915061280d826127cc565b602082019050919050565b60006020820190508181036000830152612831816127f5565b9050919050565b7f496e73756666696369656e742067616d65206665650000000000000000000000600082015250565b600061286e6015836123f4565b915061287982612838565b602082019050919050565b6000602082019050818103600083015261289d81612861565b9050919050565b7f4e487b7100000000000000000000000000000000000000000000000000000000600052601160045260246000fd5b60006128de82611bf2565b91507fffffffffffffffffffffffffffffffffffffffffffffffffffffffffffffffff82036129105761290f6128a4565b5b600182019050919050565b600060208201905081810360008301526129358184611f9a565b905092915050565b7f4e487b7100000000000000000000000000000000000000000000000000000000600052602260045260246000fd5b6000600282049050600182168061298457607f821691505b6020821081036129975761299661293d565b5b50919050565b600067ffffffffffffffff8211156129b8576129b7611dba565b5b602082029050919050565b600080fd5b60006129db6129d68461299d565b611e1a565b905080602084028301858111156129f5576129f46129c3565b5b835b81811015612a1e5780612a0a8882612690565b8452602084019350506020810190506129f7565b5050509392505050565b600082601f830112612a3d57612a3c611d9f565b5b6010612a4a8482856129c8565b91505092915050565b60006102008284031215612a6a57612a69611b8a565b5b6000612a7884828501612a28565b91505092915050565b60008190508160005260206000209050919050565b60006020601f8301049050919050565b600082821b905092915050565b600060088302612ae37fffffffffffffffffffffffffffffffffffffffffffffffffffffffffffffffff82612aa6565b612aed8683612aa6565b95508019841693508086168417925050509392505050565b6000819050919050565b6000612b2a612b25612b2084611bf2565b612b05565b611bf2565b9050919050565b6000819050919050565b612b4483612b0f565b612b58612b5082612b31565b848454612ab3565b825550505050565b600090565b612b6d612b60565b612b78818484612b3b565b505050565b5b81811015612b9c57612b91600082612b65565b600181019050612b7e565b5050565b601f821115612be157612bb281612a81565b612bbb84612a96565b81016020851015612bca578190505b612bde612bd685612a96565b830182612b7d565b50505b505050565b600082821c905092915050565b6000612c0460001984600802612be6565b1980831691505092915050565b6000612c1d8383612bf3565b9150826002028217905092915050565b612c3682611f54565b67ffffffffffffffff811115612c4f57612c4e611dba565b5b612c59825461296c565b612c64828285612ba0565b600060209050601f831160018114612c975760008415612c85578287015190505b612c8f8582612c11565b865550612cf7565b601f198416612ca586612a81565b60005b82811015612ccd57848901518255600182019150602085019450602081019050612ca8565b86831015612cea5784890151612ce6601f891682612bf3565b8355505b6001600288020188555050505b505050505050565b6000612d0a82611bf2565b9150612d1583611bf2565b9250828203905081811115612d2d57612d2c6128a4565b5b92915050565b7f4e487b7100000000000000000000000000000000000000000000000000000000600052603260045260246000fd5b7f526566756e64206661696c656400000000000000000000000000000000000000600082015250565b6000612d98600d836123f4565b9150612da382612d62565b602082019050919050565b60006020820190508181036000830152612dc781612d8b565b905091905056fea264697066735822122090f80538a927d74593b8a43da97bf69b310f9ea13aab4bb7ea7ae422517edf4e64736f6c634300081c0033",
  "linkReferences": {},
  "deployedLinkReferences": {}
}