{
  "_format": "hh-sol-artifact-1",
  "contractName": "Tetris",
  "sourceName": "contracts/Tetris.sol",
  "abi": [
    {
      "inputs": [],
      "stateMutability": "nonpayable",
      "type": "constructor"
    },
    {
      "inputs": [
        {
          "internalType": "address",
          "name": "owner",
          "type": "address"
        }
      ],
      "name": "OwnableInvalidOwner",
      "type": "error"
    },
    {
      "inputs": [
        {
          "internalType": "address",
          "name": "account",
          "type": "address"
        }
      ],
      "name": "OwnableUnauthorizedAccount",
      "type": "error"
    },
    {
      "inputs": [],
      "name": "ReentrancyGuardReentrantCall",
      "type": "error"
    },
    {
      "anonymous": false,
      "inputs": [
        {
          "indexed": true,
          "internalType": "address",
          "name": "owner",
          "type": "address"
        },
        {
          "indexed": false,
          "internalType": "uint256",
          "name": "amount",
          "type": "uint256"
        }
      ],
      "name": "FeesWithdrawn",
      "type": "event"
    },
    {
      "anonymous": false,
      "inputs": [
        {
          "indexed": true,
          "internalType": "address",
          "name": "player",
          "type": "address"
        },
        {
          "indexed": true,
          "internalType": "uint256",
          "name": "gameId",
          "type": "uint256"
        }
      ],
      "name": "GameAbandoned",
      "type": "event"
    },
    {
      "anonymous": false,
      "inputs": [
        {
          "indexed": true,
          "internalType": "address",
          "name": "player",
          "type": "address"
        },
        {
          "indexed": true,
          "internalType": "uint256",
          "name": "gameId",
          "type": "uint256"
        },
        {
          "indexed": false,
          "internalType": "uint256",
          "name": "finalScore",
          "type": "uint256"
        },
        {
          "indexed": false,
          "internalType": "uint256",
          "name": "moveCount",
          "type": "uint256"
        }
      ],
      "name": "GameCompleted",
      "type": "event"
    },
    {
      "anonymous": false,
      "inputs": [
        {
          "indexed": false,
          "internalType": "uint256",
          "name": "oldFee",
          "type": "uint256"
        },
        {
          "indexed": false,
          "internalType": "uint256",
          "name": "newFee",
          "type": "uint256"
        }
      ],
      "name": "GameFeeUpdated",
      "type": "event"
    },
    {
      "anonymous": false,
      "inputs": [
        {
          "indexed": true,
          "internalType": "address",
          "name": "player",
          "type": "address"
        },
        {
          "indexed": true,
          "internalType": "uint256",
          "name": "gameId",
          "type": "uint256"
        },
        {
          "indexed": false,
          "internalType": "bytes",
          "name": "gameData",
          "type": "bytes"
        }
      ],
      "name": "GameStarted",
      "type": "event"
    },
    {
      "anonymous": false,
      "inputs": [
        {
          "indexed": true,
          "internalType": "address",
          "name": "previousOwner",
          "type": "address"
        },
        {
          "indexed": true,
          "internalType": "address",
          "name": "newOwner",
          "type": "address"
        }
      ],
      "name": "OwnershipTransferred",
      "type": "event"
    },
    {
      "inputs": [],
      "name": "gameFee",
      "outputs": [
        {
          "internalType": "uint256",
          "name": "",
          "type": "uint256"
        }
      ],
      "stateMutability": "view",
      "type": "function"
    },
    {
      "inputs": [],
      "name": "gameIdCounter",
      "outputs": [
        {
          "internalType": "uint256",
          "name": "",
          "type": "uint256"
        }
      ],
      "stateMutability": "view",
      "type": "function"
    },
    {
      "inputs": [
        {
          "internalType": "address",
          "name": "_player",
          "type": "address"
        }
      ],
      "name": "getActiveGame",
      "outputs": [
        {
          "internalType": "uint256",
          "name": "gameId",
          "type": "uint256"
        },
        {
          "internalType": "bytes",
          "name": "gameData",
          "type": "bytes"
        }
      ],
      "stateMutability": "view",
      "type": "function"
    },
    {
      "inputs": [
        {
          "internalType": "uint256",
          "name": "_gameId",
          "type": "uint256"
        }
      ],
      "name": "getGameSession",
      "outputs": [
        {
          "internalType": "address",
          "name": "player",
          "type": "address"
        },
        {
          "internalType": "uint256",
          "name": "startTime",
          "type": "uint256"
        },
        {
          "internalType": "uint256",
          "name": "endTime",
          "type": "uint256"
        },
        {
          "internalType": "uint256",
          "name": "finalScore",
          "type": "uint256"
        },
        {
          "internalType": "bytes",
          "name": "moves",
          "type": "bytes"
        },
        {
          "internalType": "enum IMiniGamesOnInk.GameState",
          "name": "state",
          "type": "uint8"
        }
      ],
      "stateMutability": "view",
      "type": "function"
    },
    {
      "inputs": [
        {
          "internalType": "uint256",
          "name": "_gameId",
          "type": "uint256"
        }
      ],
      "name": "getGameSessionWithState",
      "outputs": [
        {
          "internalType": "address",
          "name": "player",
          "type": "address"
        },
        {
          "internalType": "bytes",
          "name": "initialState",
          "type": "bytes"
        },
        {
          "internalType": "uint256",
          "name": "startTime",
          "type": "uint256"
        },
        {
          "internalType": "uint256",
          "name": "endTime",
          "type": "uint256"
        },
        {
          "internalType": "uint256",
          "name": "finalScore",
          "type": "uint256"
        },
        {
          "internalType": "bytes",
          "name": "moves",
          "type": "bytes"
        },
        {
          "internalType": "enum IMiniGamesOnInk.GameState",
          "name": "state",
          "type": "uint8"
        }
      ],
      "stateMutability": "view",
      "type": "function"
    },
    {
      "inputs": [
        {
          "internalType": "address",
          "name": "_player",
          "type": "address"
        }
      ],
      "name": "getPlayerGames",
      "outputs": [
        {
          "internalType": "uint256[]",
          "name": "",
          "type": "uint256[]"
        }
      ],
      "stateMutability": "view",
      "type": "function"
    },
    {
      "inputs": [
        {
          "internalType": "address",
          "name": "_player",
          "type": "address"
        },
        {
          "internalType": "uint256",
          "name": "_limit",
          "type": "uint256"
        },
        {
          "internalType": "uint256",
          "name": "_offset",
          "type": "uint256"
        }
      ],
      "name": "getPlayerHistory",
      "outputs": [
        {
          "internalType": "uint256[]",
          "name": "gameIds",
          "type": "uint256[]"
        },
        {
          "internalType": "uint256[]",
          "name": "scores",
          "type": "uint256[]"
        },
        {
          "internalType": "uint256[]",
          "name": "timestamps",
          "type": "uint256[]"
        },
        {
          "internalType": "enum IMiniGamesOnInk.GameState[]",
          "name": "states",
          "type": "uint8[]"
        }
      ],
      "stateMutability": "view",
      "type": "function"
    },
    {
      "inputs": [],
      "name": "owner",
      "outputs": [
        {
          "internalType": "address",
          "name": "",
          "type": "address"
        }
      ],
      "stateMutability": "view",
      "type": "function"
    },
    {
      "inputs": [
        {
          "internalType": "address",
          "name": "",
          "type": "address"
        },
        {
          "internalType": "uint256",
          "name": "",
          "type": "uint256"
        }
      ],
      "name": "playerGames",
      "outputs": [
        {
          "internalType": "uint256",
          "name": "",
          "type": "uint256"
        }
      ],
      "stateMutability": "view",
      "type": "function"
    },
    {
      "inputs": [],
      "name": "renounceOwnership",
      "outputs": [],
      "stateMutability": "nonpayable",
      "type": "function"
    },
    {
      "inputs": [
        {
          "internalType": "bytes",
          "name": "gameData",
          "type": "bytes"
        }
      ],
      "name": "startGame",
      "outputs": [
        {
          "internalType": "uint256",
          "name": "",
          "type": "uint256"
        }
      ],
      "stateMutability": "payable",
      "type": "function"
    },
    {
      "inputs": [
        {
          "internalType": "uint256",
          "name": "_gameId",
          "type": "uint256"
        },
        {
          "internalType": "uint256",
          "name": "_finalScore",
          "type": "uint256"
        },
        {
          "internalType": "bytes",
          "name": "_moves",
          "type": "bytes"
        }
      ],
      "name": "submitGame",
      "outputs": [],
      "stateMutability": "nonpayable",
      "type": "function"
    },
    {
      "inputs": [
        {
          "internalType": "address",
          "name": "newOwner",
          "type": "address"
        }
      ],
      "name": "transferOwnership",
      "outputs": [],
      "stateMutability": "nonpayable",
      "type": "function"
    },
    {
      "inputs": [
        {
          "internalType": "uint256",
          "name": "_newFee",
          "type": "uint256"
        }
      ],
      "name": "updateGameFee",
      "outputs": [],
      "stateMutability": "nonpayable",
      "type": "function"
    },
    {
      "inputs": [],
      "name": "withdrawFees",
      "outputs": [],
      "stateMutability": "nonpayable",
      "type": "function"
    },
    {
      "inputs": [
        {
          "internalType": "address",
          "name": "tokenAddress",
          "type": "address"
        }
      ],
      "name": "withdrawLostTokens",
      "outputs": [],
      "stateMutability": "nonpayable",
      "type": "function"
    }
  ],
  "bytecode": "0x6080604052655af3107a400060025534801561001a57600080fd5b5033600073ffffffffffffffffffffffffffffffffffffffff168173ffffffffffffffffffffffffffffffffffffffff160361008e5760006040517f1e4fbdf700000000000000000000000000000000000000000000000000000000815260040161008591906101af565b60405180910390fd5b61009d816100aa60201b60201c565b50600180819055506101ca565b60008060009054906101000a900473ffffffffffffffffffffffffffffffffffffffff169050816000806101000a81548173ffffffffffffffffffffffffffffffffffffffff021916908373ffffffffffffffffffffffffffffffffffffffff1602179055508173ffffffffffffffffffffffffffffffffffffffff168173ffffffffffffffffffffffffffffffffffffffff167f8be0079c531659141344cd1fd0a4f28419497f9722a3daafe3b4186f6b6457e060405160405180910390a35050565b600073ffffffffffffffffffffffffffffffffffffffff82169050919050565b60006101998261016e565b9050919050565b6101a98161018e565b82525050565b60006020820190506101c460008301846101a0565b92915050565b612c5e806101d96000396000f3fe6080604052600436106100f35760003560e01c80638ab06fea1161008a578063d46588bf11610059578063d46588bf14610334578063dc2ac12914610374578063ea777eec146103a4578063f2fde38b146103cf576100f3565b80638ab06fea146102755780638da5cb5b146102b7578063a3546be4146102e2578063b70a6dec1461030b576100f3565b8063529f4362116100c6578063529f4362146101b4578063628aa9a7146101f7578063715018a6146102205780637bf7734514610237576100f3565b80630a5694c2146100f8578063129daf84146101355780631bb412d614610172578063476343ee1461019d575b600080fd5b34801561010457600080fd5b5061011f600480360381019061011a9190611be9565b6103f8565b60405161012c9190611c38565b60405180910390f35b34801561014157600080fd5b5061015c60048036038101906101579190611c53565b610429565b6040516101699190611d3e565b60405180910390f35b34801561017e57600080fd5b506101876104c0565b6040516101949190611c38565b60405180910390f35b3480156101a957600080fd5b506101b26104c6565b005b3480156101c057600080fd5b506101db60048036038101906101d69190611d60565b610632565b6040516101ee9796959493929190611ea3565b60405180910390f35b34801561020357600080fd5b5061021e60048036038101906102199190612055565b6107d5565b005b34801561022c57600080fd5b50610235610969565b005b34801561024357600080fd5b5061025e60048036038101906102599190611c53565b61097d565b60405161026c9291906120c4565b60405180910390f35b34801561028157600080fd5b5061029c60048036038101906102979190611d60565b610997565b6040516102ae969594939291906120f4565b60405180910390f35b3480156102c357600080fd5b506102cc6109c1565b6040516102d9919061215c565b60405180910390f35b3480156102ee57600080fd5b5061030960048036038101906103049190611c53565b6109ea565b005b34801561031757600080fd5b50610332600480360381019061032d9190611d60565b610c00565b005b34801561034057600080fd5b5061035b60048036038101906103569190612177565b610c53565b60405161036b9493929190612288565b60405180910390f35b61038e600480360381019061038991906122e9565b610c79565b60405161039b9190611c38565b60405180910390f35b3480156103b057600080fd5b506103b9610dcf565b6040516103c69190611c38565b60405180910390f35b3480156103db57600080fd5b506103f660048036038101906103f19190611c53565b610dd5565b005b6003602052816000526040600020818154811061041457600080fd5b90600052602060002001600091509150505481565b6060600360008373ffffffffffffffffffffffffffffffffffffffff1673ffffffffffffffffffffffffffffffffffffffff1681526020019081526020016000208054806020026020016040519081016040528092919081815260200182805480156104b457602002820191906000526020600020905b8154815260200190600101908083116104a0575b50505050509050919050565b60055481565b6104ce610e5b565b6104d6610ee2565b60004790506000811161051e576040517f08c379a00000000000000000000000000000000000000000000000000000000081526004016105159061238f565b60405180910390fd5b60006105286109c1565b73ffffffffffffffffffffffffffffffffffffffff168260405161054b906123e0565b60006040518083038185875af1925050503d8060008114610588576040519150601f19603f3d011682016040523d82523d6000602084013e61058d565b606091505b50509050806105d1576040517f08c379a00000000000000000000000000000000000000000000000000000000081526004016105c890612441565b60405180910390fd5b6105d96109c1565b73ffffffffffffffffffffffffffffffffffffffff167fc0819c13be868895eb93e40eaceb96de976442fa1d404e5c55f14bb65a8c489a8360405161061e9190611c38565b60405180910390a25050610630610f28565b565b6000606060008060006060600080600460008a815260200190815260200160002090508060000160009054906101000a900473ffffffffffffffffffffffffffffffffffffffff1681600201826003015483600401548460050154856006018660070160009054906101000a900460ff168580546106af90612490565b80601f01602080910402602001604051908101604052809291908181526020018280546106db90612490565b80156107285780601f106106fd57610100808354040283529160200191610728565b820191906000526020600020905b81548152906001019060200180831161070b57829003601f168201915b5050505050955081805461073b90612490565b80601f016020809104026020016040519081016040528092919081815260200182805461076790612490565b80156107b45780601f10610789576101008083540402835291602001916107b4565b820191906000526020600020905b81548152906001019060200180831161079757829003601f168201915b50505050509150975097509750975097509750975050919395979092949650565b6107dd610ee2565b60006004600085815260200190815260200160002090503373ffffffffffffffffffffffffffffffffffffffff168160000160009054906101000a900473ffffffffffffffffffffffffffffffffffffffff1673ffffffffffffffffffffffffffffffffffffffff1614610886576040517f08c379a000000000000000000000000000000000000000000000000000000000815260040161087d9061250d565b60405180910390fd5b6000600281111561089a57610899611e2c565b5b8160070160009054906101000a900460ff1660028111156108be576108bd611e2c565b5b146108fe576040517f08c379a00000000000000000000000000000000000000000000000000000000081526004016108f590612579565b60405180910390fd5b610909818484610f31565b833373ffffffffffffffffffffffffffffffffffffffff167f02bc913790ab631ec32c90d78f72b9b8ef68289c2dcd586f7da9c36b244a2ed4858551604051610953929190612599565b60405180910390a350610964610f28565b505050565b610971610e5b565b61097b6000610f87565b565b6000606061098e600360048561104b565b91509150915091565b600080600080606060006109ac6004886111d9565b95509550955095509550955091939550919395565b60008060009054906101000a900473ffffffffffffffffffffffffffffffffffffffff16905090565b6109f2610e5b565b6109fa610ee2565b600073ffffffffffffffffffffffffffffffffffffffff168173ffffffffffffffffffffffffffffffffffffffff1603610a69576040517f08c379a0000000000000000000000000000000000000000000000000000000008152600401610a609061260e565b60405180910390fd5b600081905060008173ffffffffffffffffffffffffffffffffffffffff166370a08231306040518263ffffffff1660e01b8152600401610aa9919061215c565b602060405180830381865afa158015610ac6573d6000803e3d6000fd5b505050506040513d601f19601f82011682018060405250810190610aea9190612643565b905060008111610b2f576040517f08c379a0000000000000000000000000000000000000000000000000000000008152600401610b26906126bc565b60405180910390fd5b8173ffffffffffffffffffffffffffffffffffffffff1663a9059cbb610b536109c1565b836040518363ffffffff1660e01b8152600401610b719291906126dc565b6020604051808303816000875af1158015610b90573d6000803e3d6000fd5b505050506040513d601f19601f82011682018060405250810190610bb4919061273d565b610bf3576040517f08c379a0000000000000000000000000000000000000000000000000000000008152600401610bea906127b6565b60405180910390fd5b5050610bfd610f28565b50565b610c08610e5b565b60006002549050816002819055507f75aef5483b24548953e5e86df155417ee9e1b8a174ad54f9c1a2211ab03822c28183604051610c47929190612599565b60405180910390a15050565b606080606080610c68600360048989896112e5565b935093509350935093509350935093565b6000610c83610ee2565b600254341015610cc8576040517f08c379a0000000000000000000000000000000000000000000000000000000008152600401610cbf90612822565b60405180910390fd5b600080610cd8600360043361171f565b915091508115610d2757803373ffffffffffffffffffffffffffffffffffffffff167fc8fea8853b9a09335acd8a7a289338cd416b10c98090b62aa8361950b866303d60405160405180910390a35b60056000815480929190610d3a90612871565b919050555060006005549050610d556004600383338961184f565b610d626006600733611966565b803373ffffffffffffffffffffffffffffffffffffffff167fb93756cd05fbb5bda0c87e5d77406d7b7e3649fe1327f6783b4e28bb5789d96987604051610da991906128b9565b60405180910390a3610dbc600254611a75565b809350505050610dca610f28565b919050565b60025481565b610ddd610e5b565b600073ffffffffffffffffffffffffffffffffffffffff168173ffffffffffffffffffffffffffffffffffffffff1603610e4f5760006040517f1e4fbdf7000000000000000000000000000000000000000000000000000000008152600401610e46919061215c565b60405180910390fd5b610e5881610f87565b50565b610e63611b39565b73ffffffffffffffffffffffffffffffffffffffff16610e816109c1565b73ffffffffffffffffffffffffffffffffffffffff1614610ee057610ea4611b39565b6040517f118cdaa7000000000000000000000000000000000000000000000000000000008152600401610ed7919061215c565b60405180910390fd5b565b600260015403610f1e576040517f3ee5aeb500000000000000000000000000000000000000000000000000000000815260040160405180910390fd5b6002600181905550565b60018081905550565b81836005018190555080836006019081610f4b9190612a87565b5042836004018190555060018360070160006101000a81548160ff02191690836002811115610f7d57610f7c611e2c565b5b0217905550505050565b60008060009054906101000a900473ffffffffffffffffffffffffffffffffffffffff169050816000806101000a81548173ffffffffffffffffffffffffffffffffffffffff021916908373ffffffffffffffffffffffffffffffffffffffff1602179055508173ffffffffffffffffffffffffffffffffffffffff168173ffffffffffffffffffffffffffffffffffffffff167f8be0079c531659141344cd1fd0a4f28419497f9722a3daafe3b4186f6b6457e060405160405180910390a35050565b6000606060008560008573ffffffffffffffffffffffffffffffffffffffff1673ffffffffffffffffffffffffffffffffffffffff168152602001908152602001600020905060008180549050036110a75760009250506111d1565b600081600183805490506110bb9190612b59565b815481106110cc576110cb612b8d565b5b90600052602060002001549050600086600083815260200190815260200160002090506000600281111561110357611102611e2c565b5b8160070160009054906101000a900460ff16600281111561112757611126611e2c565b5b036111c957818160020180805461113d90612490565b80601f016020809104026020016040519081016040528092919081815260200182805461116990612490565b80156111b65780601f1061118b576101008083540402835291602001916111b6565b820191906000526020600020905b81548152906001019060200180831161119957829003601f168201915b50505050509050945094505050506111d1565b600094505050505b935093915050565b600080600080606060008088600089815260200190815260200160002090508060000160009054906101000a900473ffffffffffffffffffffffffffffffffffffffff16816003015482600401548360050154846006018560070160009054906101000a900460ff1681805461124e90612490565b80601f016020809104026020016040519081016040528092919081815260200182805461127a90612490565b80156112c75780601f1061129c576101008083540402835291602001916112c7565b820191906000526020600020905b8154815290600101906020018083116112aa57829003601f168201915b50505050509150965096509650965096509650509295509295509295565b60608060608060008960008973ffffffffffffffffffffffffffffffffffffffff1673ffffffffffffffffffffffffffffffffffffffff168152602001908152602001600020905060008180549050905080871061147457600067ffffffffffffffff81111561135857611357611f2a565b5b6040519080825280602002602001820160405280156113865781602001602082028036833780820191505090505b50600067ffffffffffffffff8111156113a2576113a1611f2a565b5b6040519080825280602002602001820160405280156113d05781602001602082028036833780820191505090505b50600067ffffffffffffffff8111156113ec576113eb611f2a565b5b60405190808252806020026020018201604052801561141a5781602001602082028036833780820191505090505b50600067ffffffffffffffff81111561143657611435611f2a565b5b6040519080825280602002602001820160405280156114645781602001602082028036833780820191505090505b5095509550955095505050611713565b600087826114829190612b59565b905060008982106114935789611495565b815b90508067ffffffffffffffff8111156114b1576114b0611f2a565b5b6040519080825280602002602001820160405280156114df5781602001602082028036833780820191505090505b5097508067ffffffffffffffff8111156114fc576114fb611f2a565b5b60405190808252806020026020018201604052801561152a5781602001602082028036833780820191505090505b5096508067ffffffffffffffff81111561154757611546611f2a565b5b6040519080825280602002602001820160405280156115755781602001602082028036833780820191505090505b5095508067ffffffffffffffff81111561159257611591611f2a565b5b6040519080825280602002602001820160405280156115c05781602001602082028036833780820191505090505b50945060005b8181101561170d57600085828c6001886115e09190612b59565b6115ea9190612b59565b6115f49190612b59565b8154811061160557611604612b8d565b5b9060005260206000200154905060008e60008381526020019081526020016000209050818b848151811061163c5761163b612b8d565b5b60200260200101818152505080600501548a84815181106116605761165f612b8d565b5b6020026020010181815250506000816004015411611682578060030154611688565b80600401545b89848151811061169b5761169a612b8d565b5b6020026020010181815250508060070160009054906101000a900460ff168884815181106116cc576116cb612b8d565b5b602002602001019060028111156116e6576116e5611e2c565b5b908160028111156116fa576116f9611e2c565b5b81525050505080806001019150506115c6565b50505050505b95509550955095915050565b60008060008560008573ffffffffffffffffffffffffffffffffffffffff1673ffffffffffffffffffffffffffffffffffffffff168152602001908152602001600020905060008180549050111561183e57600081600183805490506117859190612b59565b8154811061179657611795612b8d565b5b9060005260206000200154905060008660008381526020019081526020016000209050600060028111156117cd576117cc611e2c565b5b8160070160009054906101000a900460ff1660028111156117f1576117f0611e2c565b5b0361183b5760028160070160006101000a81548160ff0219169083600281111561181e5761181d611e2c565b5b021790555042816004018190555060018294509450505050611847565b50505b60008092509250505b935093915050565b60008560008581526020019081526020016000209050828160000160006101000a81548173ffffffffffffffffffffffffffffffffffffffff021916908373ffffffffffffffffffffffffffffffffffffffff160217905550838160010181905550818160020190816118c29190612a87565b5042816003018190555060008160070160006101000a81548160ff021916908360028111156118f4576118f3611e2c565b5b02179055508460008473ffffffffffffffffffffffffffffffffffffffff1673ffffffffffffffffffffffffffffffffffffffff168152602001908152602001600020849080600181540180825580915050600190039060005260206000200160009091909190915055505050505050565b8160008273ffffffffffffffffffffffffffffffffffffffff1673ffffffffffffffffffffffffffffffffffffffff16815260200190815260200160002060009054906101000a900460ff16611a705782819080600181540180825580915050600190039060005260206000200160009091909190916101000a81548173ffffffffffffffffffffffffffffffffffffffff021916908373ffffffffffffffffffffffffffffffffffffffff16021790555060018260008373ffffffffffffffffffffffffffffffffffffffff1673ffffffffffffffffffffffffffffffffffffffff16815260200190815260200160002060006101000a81548160ff0219169083151502179055505b505050565b80341115611b365760003373ffffffffffffffffffffffffffffffffffffffff168234611aa29190612b59565b604051611aae906123e0565b60006040518083038185875af1925050503d8060008114611aeb576040519150601f19603f3d011682016040523d82523d6000602084013e611af0565b606091505b5050905080611b34576040517f08c379a0000000000000000000000000000000000000000000000000000000008152600401611b2b90612c08565b60405180910390fd5b505b50565b600033905090565b6000604051905090565b600080fd5b600080fd5b600073ffffffffffffffffffffffffffffffffffffffff82169050919050565b6000611b8082611b55565b9050919050565b611b9081611b75565b8114611b9b57600080fd5b50565b600081359050611bad81611b87565b92915050565b6000819050919050565b611bc681611bb3565b8114611bd157600080fd5b50565b600081359050611be381611bbd565b92915050565b60008060408385031215611c0057611bff611b4b565b5b6000611c0e85828601611b9e565b9250506020611c1f85828601611bd4565b9150509250929050565b611c3281611bb3565b82525050565b6000602082019050611c4d6000830184611c29565b92915050565b600060208284031215611c6957611c68611b4b565b5b6000611c7784828501611b9e565b91505092915050565b600081519050919050565b600082825260208201905092915050565b6000819050602082019050919050565b611cb581611bb3565b82525050565b6000611cc78383611cac565b60208301905092915050565b6000602082019050919050565b6000611ceb82611c80565b611cf58185611c8b565b9350611d0083611c9c565b8060005b83811015611d31578151611d188882611cbb565b9750611d2383611cd3565b925050600181019050611d04565b5085935050505092915050565b60006020820190508181036000830152611d588184611ce0565b905092915050565b600060208284031215611d7657611d75611b4b565b5b6000611d8484828501611bd4565b91505092915050565b611d9681611b75565b82525050565b600081519050919050565b600082825260208201905092915050565b60005b83811015611dd6578082015181840152602081019050611dbb565b60008484015250505050565b6000601f19601f8301169050919050565b6000611dfe82611d9c565b611e088185611da7565b9350611e18818560208601611db8565b611e2181611de2565b840191505092915050565b7f4e487b7100000000000000000000000000000000000000000000000000000000600052602160045260246000fd5b60038110611e6c57611e6b611e2c565b5b50565b6000819050611e7d82611e5b565b919050565b6000611e8d82611e6f565b9050919050565b611e9d81611e82565b82525050565b600060e082019050611eb8600083018a611d8d565b8181036020830152611eca8189611df3565b9050611ed96040830188611c29565b611ee66060830187611c29565b611ef36080830186611c29565b81810360a0830152611f058185611df3565b9050611f1460c0830184611e94565b98975050505050505050565b600080fd5b600080fd5b7f4e487b7100000000000000000000000000000000000000000000000000000000600052604160045260246000fd5b611f6282611de2565b810181811067ffffffffffffffff82111715611f8157611f80611f2a565b5b80604052505050565b6000611f94611b41565b9050611fa08282611f59565b919050565b600067ffffffffffffffff821115611fc057611fbf611f2a565b5b611fc982611de2565b9050602081019050919050565b82818337600083830152505050565b6000611ff8611ff384611fa5565b611f8a565b90508281526020810184848401111561201457612013611f25565b5b61201f848285611fd6565b509392505050565b600082601f83011261203c5761203b611f20565b5b813561204c848260208601611fe5565b91505092915050565b60008060006060848603121561206e5761206d611b4b565b5b600061207c86828701611bd4565b935050602061208d86828701611bd4565b925050604084013567ffffffffffffffff8111156120ae576120ad611b50565b5b6120ba86828701612027565b9150509250925092565b60006040820190506120d96000830185611c29565b81810360208301526120eb8184611df3565b90509392505050565b600060c0820190506121096000830189611d8d565b6121166020830188611c29565b6121236040830187611c29565b6121306060830186611c29565b81810360808301526121428185611df3565b905061215160a0830184611e94565b979650505050505050565b60006020820190506121716000830184611d8d565b92915050565b6000806000606084860312156121905761218f611b4b565b5b600061219e86828701611b9e565b93505060206121af86828701611bd4565b92505060406121c086828701611bd4565b9150509250925092565b600081519050919050565b600082825260208201905092915050565b6000819050602082019050919050565b6121ff81611e82565b82525050565b600061221183836121f6565b60208301905092915050565b6000602082019050919050565b6000612235826121ca565b61223f81856121d5565b935061224a836121e6565b8060005b8381101561227b5781516122628882612205565b975061226d8361221d565b92505060018101905061224e565b5085935050505092915050565b600060808201905081810360008301526122a28187611ce0565b905081810360208301526122b68186611ce0565b905081810360408301526122ca8185611ce0565b905081810360608301526122de818461222a565b905095945050505050565b6000602082840312156122ff576122fe611b4b565b5b600082013567ffffffffffffffff81111561231d5761231c611b50565b5b61232984828501612027565b91505092915050565b600082825260208201905092915050565b7f4e6f206665657320746f20776974686472617700000000000000000000000000600082015250565b6000612379601383612332565b915061238482612343565b602082019050919050565b600060208201905081810360008301526123a88161236c565b9050919050565b600081905092915050565b50565b60006123ca6000836123af565b91506123d5826123ba565b600082019050919050565b60006123eb826123bd565b9150819050919050565b7f5769746864726177616c206661696c6564000000000000000000000000000000600082015250565b600061242b601183612332565b9150612436826123f5565b602082019050919050565b6000602082019050818103600083015261245a8161241e565b9050919050565b7f4e487b7100000000000000000000000000000000000000000000000000000000600052602260045260246000fd5b600060028204905060018216806124a857607f821691505b6020821081036124bb576124ba612461565b5b50919050565b7f4e6f7420796f75722067616d6500000000000000000000000000000000000000600082015250565b60006124f7600d83612332565b9150612502826124c1565b602082019050919050565b60006020820190508181036000830152612526816124ea565b9050919050565b7f47616d65206e6f74206163746976650000000000000000000000000000000000600082015250565b6000612563600f83612332565b915061256e8261252d565b602082019050919050565b6000602082019050818103600083015261259281612556565b9050919050565b60006040820190506125ae6000830185611c29565b6125bb6020830184611c29565b9392505050565b7f496e76616c696420746f6b656e20616464726573730000000000000000000000600082015250565b60006125f8601583612332565b9150612603826125c2565b602082019050919050565b60006020820190508181036000830152612627816125eb565b9050919050565b60008151905061263d81611bbd565b92915050565b60006020828403121561265957612658611b4b565b5b60006126678482850161262e565b91505092915050565b7f4e6f20746f6b656e7320746f2077697468647261770000000000000000000000600082015250565b60006126a6601583612332565b91506126b182612670565b602082019050919050565b600060208201905081810360008301526126d581612699565b9050919050565b60006040820190506126f16000830185611d8d565b6126fe6020830184611c29565b9392505050565b60008115159050919050565b61271a81612705565b811461272557600080fd5b50565b60008151905061273781612711565b92915050565b60006020828403121561275357612752611b4b565b5b600061276184828501612728565b91505092915050565b7f546f6b656e207472616e73666572206661696c65640000000000000000000000600082015250565b60006127a0601583612332565b91506127ab8261276a565b602082019050919050565b600060208201905081810360008301526127cf81612793565b9050919050565b7f496e73756666696369656e742067616d65206665650000000000000000000000600082015250565b600061280c601583612332565b9150612817826127d6565b602082019050919050565b6000602082019050818103600083015261283b816127ff565b9050919050565b7f4e487b7100000000000000000000000000000000000000000000000000000000600052601160045260246000fd5b600061287c82611bb3565b91507fffffffffffffffffffffffffffffffffffffffffffffffffffffffffffffffff82036128ae576128ad612842565b5b600182019050919050565b600060208201905081810360008301526128d38184611df3565b905092915050565b60008190508160005260206000209050919050565b60006020601f8301049050919050565b600082821b905092915050565b60006008830261293d7fffffffffffffffffffffffffffffffffffffffffffffffffffffffffffffffff82612900565b6129478683612900565b95508019841693508086168417925050509392505050565b6000819050919050565b600061298461297f61297a84611bb3565b61295f565b611bb3565b9050919050565b6000819050919050565b61299e83612969565b6129b26129aa8261298b565b84845461290d565b825550505050565b600090565b6129c76129ba565b6129d2818484612995565b505050565b5b818110156129f6576129eb6000826129bf565b6001810190506129d8565b5050565b601f821115612a3b57612a0c816128db565b612a15846128f0565b81016020851015612a24578190505b612a38612a30856128f0565b8301826129d7565b50505b505050565b600082821c905092915050565b6000612a5e60001984600802612a40565b1980831691505092915050565b6000612a778383612a4d565b9150826002028217905092915050565b612a9082611d9c565b67ffffffffffffffff811115612aa957612aa8611f2a565b5b612ab38254612490565b612abe8282856129fa565b600060209050601f831160018114612af15760008415612adf578287015190505b612ae98582612a6b565b865550612b51565b601f198416612aff866128db565b60005b82811015612b2757848901518255600182019150602085019450602081019050612b02565b86831015612b445784890151612b40601f891682612a4d565b8355505b6001600288020188555050505b505050505050565b6000612b6482611bb3565b9150612b6f83611bb3565b9250828203905081811115612b8757612b86612842565b5b92915050565b7f4e487b7100000000000000000000000000000000000000000000000000000000600052603260045260246000fd5b7f526566756e64206661696c656400000000000000000000000000000000000000600082015250565b6000612bf2600d83612332565b9150612bfd82612bbc565b602082019050919050565b60006020820190508181036000830152612c2181612be5565b905091905056fea26469706673582212200c6ec758ddc6691de633a41b2a74bf44940701dcf1fd92ba4ed86e95794466c964736f6c634300081c0033",
  "linkReferences": {},
  "deployedLinkReferences": {}
}