{
  "_format": "hh-sol-artifact-1",
  "contractName": "MemoryMatch",
  "sourceName": "contracts/MemoryMatch.sol",
  "abi": [
    {
      "inputs": [],
      "stateMutability": "nonpayable",
      "type": "constructor"
    },
    {
      "inputs": [
        {
          "internalType": "address",
          "name": "owner",
          "type": "address"
        }
      ],
      "name": "OwnableInvalidOwner",
      "type": "error"
    },
    {
      "inputs": [
        {
          "internalType": "address",
          "name": "account",
          "type": "address"
        }
      ],
      "name": "OwnableUnauthorizedAccount",
      "type": "error"
    },
    {
      "inputs": [],
      "name": "ReentrancyGuardReentrantCall",
      "type": "error"
    },
    {
      "anonymous": false,
      "inputs": [
        {
          "indexed": true,
          "internalType": "address",
          "name": "owner",
          "type": "address"
        },
        {
          "indexed": false,
          "internalType": "uint256",
          "name": "amount",
          "type": "uint256"
        }
      ],
      "name": "FeesWithdrawn",
      "type": "event"
    },
    {
      "anonymous": false,
      "inputs": [
        {
          "indexed": true,
          "internalType": "address",
          "name": "player",
          "type": "address"
        },
        {
          "indexed": true,
          "internalType": "uint256",
          "name": "gameId",
          "type": "uint256"
        }
      ],
      "name": "GameAbandoned",
      "type": "event"
    },
    {
      "anonymous": false,
      "inputs": [
        {
          "indexed": true,
          "internalType": "address",
          "name": "player",
          "type": "address"
        },
        {
          "indexed": true,
          "internalType": "uint256",
          "name": "gameId",
          "type": "uint256"
        },
        {
          "indexed": false,
          "internalType": "uint256",
          "name": "finalScore",
          "type": "uint256"
        },
        {
          "indexed": false,
          "internalType": "uint256",
          "name": "moveCount",
          "type": "uint256"
        }
      ],
      "name": "GameCompleted",
      "type": "event"
    },
    {
      "anonymous": false,
      "inputs": [
        {
          "indexed": false,
          "internalType": "uint256",
          "name": "oldFee",
          "type": "uint256"
        },
        {
          "indexed": false,
          "internalType": "uint256",
          "name": "newFee",
          "type": "uint256"
        }
      ],
      "name": "GameFeeUpdated",
      "type": "event"
    },
    {
      "anonymous": false,
      "inputs": [
        {
          "indexed": true,
          "internalType": "address",
          "name": "player",
          "type": "address"
        },
        {
          "indexed": true,
          "internalType": "uint256",
          "name": "gameId",
          "type": "uint256"
        },
        {
          "indexed": false,
          "internalType": "bytes",
          "name": "gameData",
          "type": "bytes"
        }
      ],
      "name": "GameStarted",
      "type": "event"
    },
    {
      "anonymous": false,
      "inputs": [
        {
          "indexed": true,
          "internalType": "address",
          "name": "previousOwner",
          "type": "address"
        },
        {
          "indexed": true,
          "internalType": "address",
          "name": "newOwner",
          "type": "address"
        }
      ],
      "name": "OwnershipTransferred",
      "type": "event"
    },
    {
      "inputs": [],
      "name": "GRID_SIZE",
      "outputs": [
        {
          "internalType": "uint256",
          "name": "",
          "type": "uint256"
        }
      ],
      "stateMutability": "view",
      "type": "function"
    },
    {
      "inputs": [],
      "name": "MAX_ATTEMPTS",
      "outputs": [
        {
          "internalType": "uint256",
          "name": "",
          "type": "uint256"
        }
      ],
      "stateMutability": "view",
      "type": "function"
    },
    {
      "inputs": [],
      "name": "gameFee",
      "outputs": [
        {
          "internalType": "uint256",
          "name": "",
          "type": "uint256"
        }
      ],
      "stateMutability": "view",
      "type": "function"
    },
    {
      "inputs": [],
      "name": "gameIdCounter",
      "outputs": [
        {
          "internalType": "uint256",
          "name": "",
          "type": "uint256"
        }
      ],
      "stateMutability": "view",
      "type": "function"
    },
    {
      "inputs": [
        {
          "internalType": "address",
          "name": "_player",
          "type": "address"
        }
      ],
      "name": "getActiveGame",
      "outputs": [
        {
          "internalType": "uint256",
          "name": "gameId",
          "type": "uint256"
        },
        {
          "internalType": "bytes",
          "name": "gameData",
          "type": "bytes"
        }
      ],
      "stateMutability": "view",
      "type": "function"
    },
    {
      "inputs": [
        {
          "internalType": "uint256",
          "name": "_gameId",
          "type": "uint256"
        }
      ],
      "name": "getGameSession",
      "outputs": [
        {
          "internalType": "address",
          "name": "player",
          "type": "address"
        },
        {
          "internalType": "uint256",
          "name": "startTime",
          "type": "uint256"
        },
        {
          "internalType": "uint256",
          "name": "endTime",
          "type": "uint256"
        },
        {
          "internalType": "uint256",
          "name": "finalScore",
          "type": "uint256"
        },
        {
          "internalType": "bytes",
          "name": "moves",
          "type": "bytes"
        },
        {
          "internalType": "enum IMiniGamesOnInk.GameState",
          "name": "state",
          "type": "uint8"
        }
      ],
      "stateMutability": "view",
      "type": "function"
    },
    {
      "inputs": [
        {
          "internalType": "uint256",
          "name": "_gameId",
          "type": "uint256"
        }
      ],
      "name": "getGameSessionWithGrid",
      "outputs": [
        {
          "internalType": "address",
          "name": "player",
          "type": "address"
        },
        {
          "internalType": "bytes",
          "name": "initialGrid",
          "type": "bytes"
        },
        {
          "internalType": "uint256",
          "name": "startTime",
          "type": "uint256"
        },
        {
          "internalType": "uint256",
          "name": "endTime",
          "type": "uint256"
        },
        {
          "internalType": "uint256",
          "name": "finalScore",
          "type": "uint256"
        },
        {
          "internalType": "bytes",
          "name": "moves",
          "type": "bytes"
        },
        {
          "internalType": "enum IMiniGamesOnInk.GameState",
          "name": "state",
          "type": "uint8"
        }
      ],
      "stateMutability": "view",
      "type": "function"
    },
    {
      "inputs": [
        {
          "internalType": "address",
          "name": "_player",
          "type": "address"
        }
      ],
      "name": "getPlayerGames",
      "outputs": [
        {
          "internalType": "uint256[]",
          "name": "",
          "type": "uint256[]"
        }
      ],
      "stateMutability": "view",
      "type": "function"
    },
    {
      "inputs": [
        {
          "internalType": "address",
          "name": "_player",
          "type": "address"
        },
        {
          "internalType": "uint256",
          "name": "_limit",
          "type": "uint256"
        },
        {
          "internalType": "uint256",
          "name": "_offset",
          "type": "uint256"
        }
      ],
      "name": "getPlayerHistory",
      "outputs": [
        {
          "internalType": "uint256[]",
          "name": "gameIds",
          "type": "uint256[]"
        },
        {
          "internalType": "uint256[]",
          "name": "scores",
          "type": "uint256[]"
        },
        {
          "internalType": "uint256[]",
          "name": "timestamps",
          "type": "uint256[]"
        },
        {
          "internalType": "enum IMiniGamesOnInk.GameState[]",
          "name": "states",
          "type": "uint8[]"
        }
      ],
      "stateMutability": "view",
      "type": "function"
    },
    {
      "inputs": [],
      "name": "owner",
      "outputs": [
        {
          "internalType": "address",
          "name": "",
          "type": "address"
        }
      ],
      "stateMutability": "view",
      "type": "function"
    },
    {
      "inputs": [
        {
          "internalType": "address",
          "name": "",
          "type": "address"
        },
        {
          "internalType": "uint256",
          "name": "",
          "type": "uint256"
        }
      ],
      "name": "playerGames",
      "outputs": [
        {
          "internalType": "uint256",
          "name": "",
          "type": "uint256"
        }
      ],
      "stateMutability": "view",
      "type": "function"
    },
    {
      "inputs": [],
      "name": "renounceOwnership",
      "outputs": [],
      "stateMutability": "nonpayable",
      "type": "function"
    },
    {
      "inputs": [
        {
          "internalType": "bytes",
          "name": "gameData",
          "type": "bytes"
        }
      ],
      "name": "startGame",
      "outputs": [
        {
          "internalType": "uint256",
          "name": "",
          "type": "uint256"
        }
      ],
      "stateMutability": "payable",
      "type": "function"
    },
    {
      "inputs": [
        {
          "internalType": "uint256",
          "name": "_gameId",
          "type": "uint256"
        },
        {
          "internalType": "uint256",
          "name": "_finalScore",
          "type": "uint256"
        },
        {
          "internalType": "bytes",
          "name": "_moves",
          "type": "bytes"
        }
      ],
      "name": "submitGame",
      "outputs": [],
      "stateMutability": "nonpayable",
      "type": "function"
    },
    {
      "inputs": [
        {
          "internalType": "address",
          "name": "newOwner",
          "type": "address"
        }
      ],
      "name": "transferOwnership",
      "outputs": [],
      "stateMutability": "nonpayable",
      "type": "function"
    },
    {
      "inputs": [
        {
          "internalType": "uint256",
          "name": "_newFee",
          "type": "uint256"
        }
      ],
      "name": "updateGameFee",
      "outputs": [],
      "stateMutability": "nonpayable",
      "type": "function"
    },
    {
      "inputs": [],
      "name": "withdrawFees",
      "outputs": [],
      "stateMutability": "nonpayable",
      "type": "function"
    },
    {
      "inputs": [
        {
          "internalType": "address",
          "name": "_lostToken",
          "type": "address"
        }
      ],
      "name": "withdrawLostTokens",
      "outputs": [],
      "stateMutability": "nonpayable",
      "type": "function"
    }
  ],
  "bytecode": "0x6080604052655af3107a400060025534801561001a57600080fd5b5033600073ffffffffffffffffffffffffffffffffffffffff168173ffffffffffffffffffffffffffffffffffffffff160361008e5760006040517f1e4fbdf700000000000000000000000000000000000000000000000000000000815260040161008591906101af565b60405180910390fd5b61009d816100aa60201b60201c565b50600180819055506101ca565b60008060009054906101000a900473ffffffffffffffffffffffffffffffffffffffff169050816000806101000a81548173ffffffffffffffffffffffffffffffffffffffff021916908373ffffffffffffffffffffffffffffffffffffffff1602179055508173ffffffffffffffffffffffffffffffffffffffff168173ffffffffffffffffffffffffffffffffffffffff167f8be0079c531659141344cd1fd0a4f28419497f9722a3daafe3b4186f6b6457e060405160405180910390a35050565b600073ffffffffffffffffffffffffffffffffffffffff82169050919050565b60006101998261016e565b9050919050565b6101a98161018e565b82525050565b60006020820190506101c460008301846101a0565b92915050565b612c8a806101d96000396000f3fe6080604052600436106101095760003560e01c80638ab06fea11610095578063d46588bf11610064578063d46588bf1461035d578063dc2ac1291461039d578063ea777eec146103cd578063eab9308f146103f8578063f2fde38b1461043b57610109565b80638ab06fea1461029e5780638da5cb5b146102e0578063a3546be41461030b578063b70a6dec1461033457610109565b8063476343ee116100dc578063476343ee146101de578063628aa9a7146101f5578063715018a61461021e5780637bf77345146102355780637fc4eda81461027357610109565b80630a5694c21461010e578063129daf841461014b5780631bb412d61461018857806330e4349c146101b3575b600080fd5b34801561011a57600080fd5b5061013560048036038101906101309190611c15565b610464565b6040516101429190611c64565b60405180910390f35b34801561015757600080fd5b50610172600480360381019061016d9190611c7f565b610495565b60405161017f9190611d6a565b60405180910390f35b34801561019457600080fd5b5061019d61052c565b6040516101aa9190611c64565b60405180910390f35b3480156101bf57600080fd5b506101c8610532565b6040516101d59190611c64565b60405180910390f35b3480156101ea57600080fd5b506101f3610537565b005b34801561020157600080fd5b5061021c60048036038101906102179190611ed2565b610693565b005b34801561022a57600080fd5b50610233610827565b005b34801561024157600080fd5b5061025c60048036038101906102579190611c7f565b61083b565b60405161026a929190611fc0565b60405180910390f35b34801561027f57600080fd5b50610288610855565b6040516102959190611c64565b60405180910390f35b3480156102aa57600080fd5b506102c560048036038101906102c09190611ff0565b61085a565b6040516102d7969594939291906120a3565b60405180910390f35b3480156102ec57600080fd5b506102f5610966565b604051610302919061210b565b60405180910390f35b34801561031757600080fd5b50610332600480360381019061032d9190611c7f565b61098f565b005b34801561034057600080fd5b5061035b60048036038101906103569190611ff0565b610b95565b005b34801561036957600080fd5b50610384600480360381019061037f9190612126565b610be8565b6040516103949493929190612237565b60405180910390f35b6103b760048036038101906103b29190612298565b610c0e565b6040516103c49190611c64565b60405180910390f35b3480156103d957600080fd5b506103e2610d64565b6040516103ef9190611c64565b60405180910390f35b34801561040457600080fd5b5061041f600480360381019061041a9190611ff0565b610d6a565b60405161043297969594939291906122e1565b60405180910390f35b34801561044757600080fd5b50610462600480360381019061045d9190611c7f565b610f0d565b005b6003602052816000526040600020818154811061048057600080fd5b90600052602060002001600091509150505481565b6060600360008373ffffffffffffffffffffffffffffffffffffffff1673ffffffffffffffffffffffffffffffffffffffff16815260200190815260200160002080548060200260200160405190810160405280929190818152602001828054801561052057602002820191906000526020600020905b81548152602001906001019080831161050c575b50505050509050919050565b60055481565b603281565b61053f610f93565b600047905060008111610587576040517f08c379a000000000000000000000000000000000000000000000000000000000815260040161057e906123bb565b60405180910390fd5b6000610591610966565b73ffffffffffffffffffffffffffffffffffffffff16826040516105b49061240c565b60006040518083038185875af1925050503d80600081146105f1576040519150601f19603f3d011682016040523d82523d6000602084013e6105f6565b606091505b505090508061063a576040517f08c379a00000000000000000000000000000000000000000000000000000000081526004016106319061246d565b60405180910390fd5b610642610966565b73ffffffffffffffffffffffffffffffffffffffff167fc0819c13be868895eb93e40eaceb96de976442fa1d404e5c55f14bb65a8c489a836040516106879190611c64565b60405180910390a25050565b61069b61101a565b60006004600085815260200190815260200160002090503373ffffffffffffffffffffffffffffffffffffffff168160000160009054906101000a900473ffffffffffffffffffffffffffffffffffffffff1673ffffffffffffffffffffffffffffffffffffffff1614610744576040517f08c379a000000000000000000000000000000000000000000000000000000000815260040161073b906124d9565b60405180910390fd5b600060028111156107585761075761202c565b5b8160070160009054906101000a900460ff16600281111561077c5761077b61202c565b5b146107bc576040517f08c379a00000000000000000000000000000000000000000000000000000000081526004016107b390612545565b60405180910390fd5b6107c7818484611060565b833373ffffffffffffffffffffffffffffffffffffffff167f02bc913790ab631ec32c90d78f72b9b8ef68289c2dcd586f7da9c36b244a2ed4858551604051610811929190612565565b60405180910390a3506108226110b6565b505050565b61082f610f93565b61083960006110bf565b565b6000606061084c6003600485611183565b91509150915091565b601981565b60008060008060606000806004600089815260200190815260200160002090508060000160009054906101000a900473ffffffffffffffffffffffffffffffffffffffff16816003015482600401548360050154846006018560070160009054906101000a900460ff168180546108d0906125bd565b80601f01602080910402602001604051908101604052809291908181526020018280546108fc906125bd565b80156109495780601f1061091e57610100808354040283529160200191610949565b820191906000526020600020905b81548152906001019060200180831161092c57829003601f168201915b505050505091509650965096509650965096505091939550919395565b60008060009054906101000a900473ffffffffffffffffffffffffffffffffffffffff16905090565b610997610f93565b600073ffffffffffffffffffffffffffffffffffffffff168173ffffffffffffffffffffffffffffffffffffffff1603610a06576040517f08c379a00000000000000000000000000000000000000000000000000000000081526004016109fd9061263a565b60405180910390fd5b600081905060008173ffffffffffffffffffffffffffffffffffffffff166370a08231306040518263ffffffff1660e01b8152600401610a46919061210b565b602060405180830381865afa158015610a63573d6000803e3d6000fd5b505050506040513d601f19601f82011682018060405250810190610a87919061266f565b905060008111610acc576040517f08c379a0000000000000000000000000000000000000000000000000000000008152600401610ac3906126e8565b60405180910390fd5b8173ffffffffffffffffffffffffffffffffffffffff1663a9059cbb610af0610966565b836040518363ffffffff1660e01b8152600401610b0e929190612708565b6020604051808303816000875af1158015610b2d573d6000803e3d6000fd5b505050506040513d601f19601f82011682018060405250810190610b519190612769565b610b90576040517f08c379a0000000000000000000000000000000000000000000000000000000008152600401610b87906127e2565b60405180910390fd5b505050565b610b9d610f93565b60006002549050816002819055507f75aef5483b24548953e5e86df155417ee9e1b8a174ad54f9c1a2211ab03822c28183604051610bdc929190612565565b60405180910390a15050565b606080606080610bfd60036004898989611311565b935093509350935093509350935093565b6000610c1861101a565b600254341015610c5d576040517f08c379a0000000000000000000000000000000000000000000000000000000008152600401610c549061284e565b60405180910390fd5b600080610c6d600360043361174b565b915091508115610cbc57803373ffffffffffffffffffffffffffffffffffffffff167fc8fea8853b9a09335acd8a7a289338cd416b10c98090b62aa8361950b866303d60405160405180910390a35b60056000815480929190610ccf9061289d565b919050555060006005549050610cea6004600383338961187b565b610cf76006600733611992565b803373ffffffffffffffffffffffffffffffffffffffff167fb93756cd05fbb5bda0c87e5d77406d7b7e3649fe1327f6783b4e28bb5789d96987604051610d3e91906128e5565b60405180910390a3610d51600254611aa1565b809350505050610d5f6110b6565b919050565b60025481565b6000606060008060006060600080600460008a815260200190815260200160002090508060000160009054906101000a900473ffffffffffffffffffffffffffffffffffffffff1681600201826003015483600401548460050154856006018660070160009054906101000a900460ff16858054610de7906125bd565b80601f0160208091040260200160405190810160405280929190818152602001828054610e13906125bd565b8015610e605780601f10610e3557610100808354040283529160200191610e60565b820191906000526020600020905b815481529060010190602001808311610e4357829003601f168201915b50505050509550818054610e73906125bd565b80601f0160208091040260200160405190810160405280929190818152602001828054610e9f906125bd565b8015610eec5780601f10610ec157610100808354040283529160200191610eec565b820191906000526020600020905b815481529060010190602001808311610ecf57829003601f168201915b50505050509150975097509750975097509750975050919395979092949650565b610f15610f93565b600073ffffffffffffffffffffffffffffffffffffffff168173ffffffffffffffffffffffffffffffffffffffff1603610f875760006040517f1e4fbdf7000000000000000000000000000000000000000000000000000000008152600401610f7e919061210b565b60405180910390fd5b610f90816110bf565b50565b610f9b611b65565b73ffffffffffffffffffffffffffffffffffffffff16610fb9610966565b73ffffffffffffffffffffffffffffffffffffffff161461101857610fdc611b65565b6040517f118cdaa700000000000000000000000000000000000000000000000000000000815260040161100f919061210b565b60405180910390fd5b565b600260015403611056576040517f3ee5aeb500000000000000000000000000000000000000000000000000000000815260040160405180910390fd5b6002600181905550565b8183600501819055508083600601908161107a9190612ab3565b5042836004018190555060018360070160006101000a81548160ff021916908360028111156110ac576110ab61202c565b5b0217905550505050565b60018081905550565b60008060009054906101000a900473ffffffffffffffffffffffffffffffffffffffff169050816000806101000a81548173ffffffffffffffffffffffffffffffffffffffff021916908373ffffffffffffffffffffffffffffffffffffffff1602179055508173ffffffffffffffffffffffffffffffffffffffff168173ffffffffffffffffffffffffffffffffffffffff167f8be0079c531659141344cd1fd0a4f28419497f9722a3daafe3b4186f6b6457e060405160405180910390a35050565b6000606060008560008573ffffffffffffffffffffffffffffffffffffffff1673ffffffffffffffffffffffffffffffffffffffff168152602001908152602001600020905060008180549050036111df576000925050611309565b600081600183805490506111f39190612b85565b8154811061120457611203612bb9565b5b90600052602060002001549050600086600083815260200190815260200160002090506000600281111561123b5761123a61202c565b5b8160070160009054906101000a900460ff16600281111561125f5761125e61202c565b5b03611301578181600201808054611275906125bd565b80601f01602080910402602001604051908101604052809291908181526020018280546112a1906125bd565b80156112ee5780601f106112c3576101008083540402835291602001916112ee565b820191906000526020600020905b8154815290600101906020018083116112d157829003601f168201915b5050505050905094509450505050611309565b600094505050505b935093915050565b60608060608060008960008973ffffffffffffffffffffffffffffffffffffffff1673ffffffffffffffffffffffffffffffffffffffff16815260200190815260200160002090506000818054905090508087106114a057600067ffffffffffffffff81111561138457611383611da7565b5b6040519080825280602002602001820160405280156113b25781602001602082028036833780820191505090505b50600067ffffffffffffffff8111156113ce576113cd611da7565b5b6040519080825280602002602001820160405280156113fc5781602001602082028036833780820191505090505b50600067ffffffffffffffff81111561141857611417611da7565b5b6040519080825280602002602001820160405280156114465781602001602082028036833780820191505090505b50600067ffffffffffffffff81111561146257611461611da7565b5b6040519080825280602002602001820160405280156114905781602001602082028036833780820191505090505b509550955095509550505061173f565b600087826114ae9190612b85565b905060008982106114bf57896114c1565b815b90508067ffffffffffffffff8111156114dd576114dc611da7565b5b60405190808252806020026020018201604052801561150b5781602001602082028036833780820191505090505b5097508067ffffffffffffffff81111561152857611527611da7565b5b6040519080825280602002602001820160405280156115565781602001602082028036833780820191505090505b5096508067ffffffffffffffff81111561157357611572611da7565b5b6040519080825280602002602001820160405280156115a15781602001602082028036833780820191505090505b5095508067ffffffffffffffff8111156115be576115bd611da7565b5b6040519080825280602002602001820160405280156115ec5781602001602082028036833780820191505090505b50945060005b8181101561173957600085828c60018861160c9190612b85565b6116169190612b85565b6116209190612b85565b8154811061163157611630612bb9565b5b9060005260206000200154905060008e60008381526020019081526020016000209050818b848151811061166857611667612bb9565b5b60200260200101818152505080600501548a848151811061168c5761168b612bb9565b5b60200260200101818152505060008160040154116116ae5780600301546116b4565b80600401545b8984815181106116c7576116c6612bb9565b5b6020026020010181815250508060070160009054906101000a900460ff168884815181106116f8576116f7612bb9565b5b602002602001019060028111156117125761171161202c565b5b908160028111156117265761172561202c565b5b81525050505080806001019150506115f2565b50505050505b95509550955095915050565b60008060008560008573ffffffffffffffffffffffffffffffffffffffff1673ffffffffffffffffffffffffffffffffffffffff168152602001908152602001600020905060008180549050111561186a57600081600183805490506117b19190612b85565b815481106117c2576117c1612bb9565b5b9060005260206000200154905060008660008381526020019081526020016000209050600060028111156117f9576117f861202c565b5b8160070160009054906101000a900460ff16600281111561181d5761181c61202c565b5b036118675760028160070160006101000a81548160ff0219169083600281111561184a5761184961202c565b5b021790555042816004018190555060018294509450505050611873565b50505b60008092509250505b935093915050565b60008560008581526020019081526020016000209050828160000160006101000a81548173ffffffffffffffffffffffffffffffffffffffff021916908373ffffffffffffffffffffffffffffffffffffffff160217905550838160010181905550818160020190816118ee9190612ab3565b5042816003018190555060008160070160006101000a81548160ff021916908360028111156119205761191f61202c565b5b02179055508460008473ffffffffffffffffffffffffffffffffffffffff1673ffffffffffffffffffffffffffffffffffffffff168152602001908152602001600020849080600181540180825580915050600190039060005260206000200160009091909190915055505050505050565b8160008273ffffffffffffffffffffffffffffffffffffffff1673ffffffffffffffffffffffffffffffffffffffff16815260200190815260200160002060009054906101000a900460ff16611a9c5782819080600181540180825580915050600190039060005260206000200160009091909190916101000a81548173ffffffffffffffffffffffffffffffffffffffff021916908373ffffffffffffffffffffffffffffffffffffffff16021790555060018260008373ffffffffffffffffffffffffffffffffffffffff1673ffffffffffffffffffffffffffffffffffffffff16815260200190815260200160002060006101000a81548160ff0219169083151502179055505b505050565b80341115611b625760003373ffffffffffffffffffffffffffffffffffffffff168234611ace9190612b85565b604051611ada9061240c565b60006040518083038185875af1925050503d8060008114611b17576040519150601f19603f3d011682016040523d82523d6000602084013e611b1c565b606091505b5050905080611b60576040517f08c379a0000000000000000000000000000000000000000000000000000000008152600401611b5790612c34565b60405180910390fd5b505b50565b600033905090565b6000604051905090565b600080fd5b600080fd5b600073ffffffffffffffffffffffffffffffffffffffff82169050919050565b6000611bac82611b81565b9050919050565b611bbc81611ba1565b8114611bc757600080fd5b50565b600081359050611bd981611bb3565b92915050565b6000819050919050565b611bf281611bdf565b8114611bfd57600080fd5b50565b600081359050611c0f81611be9565b92915050565b60008060408385031215611c2c57611c2b611b77565b5b6000611c3a85828601611bca565b9250506020611c4b85828601611c00565b9150509250929050565b611c5e81611bdf565b82525050565b6000602082019050611c796000830184611c55565b92915050565b600060208284031215611c9557611c94611b77565b5b6000611ca384828501611bca565b91505092915050565b600081519050919050565b600082825260208201905092915050565b6000819050602082019050919050565b611ce181611bdf565b82525050565b6000611cf38383611cd8565b60208301905092915050565b6000602082019050919050565b6000611d1782611cac565b611d218185611cb7565b9350611d2c83611cc8565b8060005b83811015611d5d578151611d448882611ce7565b9750611d4f83611cff565b925050600181019050611d30565b5085935050505092915050565b60006020820190508181036000830152611d848184611d0c565b905092915050565b600080fd5b600080fd5b6000601f19601f8301169050919050565b7f4e487b7100000000000000000000000000000000000000000000000000000000600052604160045260246000fd5b611ddf82611d96565b810181811067ffffffffffffffff82111715611dfe57611dfd611da7565b5b80604052505050565b6000611e11611b6d565b9050611e1d8282611dd6565b919050565b600067ffffffffffffffff821115611e3d57611e3c611da7565b5b611e4682611d96565b9050602081019050919050565b82818337600083830152505050565b6000611e75611e7084611e22565b611e07565b905082815260208101848484011115611e9157611e90611d91565b5b611e9c848285611e53565b509392505050565b600082601f830112611eb957611eb8611d8c565b5b8135611ec9848260208601611e62565b91505092915050565b600080600060608486031215611eeb57611eea611b77565b5b6000611ef986828701611c00565b9350506020611f0a86828701611c00565b925050604084013567ffffffffffffffff811115611f2b57611f2a611b7c565b5b611f3786828701611ea4565b9150509250925092565b600081519050919050565b600082825260208201905092915050565b60005b83811015611f7b578082015181840152602081019050611f60565b60008484015250505050565b6000611f9282611f41565b611f9c8185611f4c565b9350611fac818560208601611f5d565b611fb581611d96565b840191505092915050565b6000604082019050611fd56000830185611c55565b8181036020830152611fe78184611f87565b90509392505050565b60006020828403121561200657612005611b77565b5b600061201484828501611c00565b91505092915050565b61202681611ba1565b82525050565b7f4e487b7100000000000000000000000000000000000000000000000000000000600052602160045260246000fd5b6003811061206c5761206b61202c565b5b50565b600081905061207d8261205b565b919050565b600061208d8261206f565b9050919050565b61209d81612082565b82525050565b600060c0820190506120b8600083018961201d565b6120c56020830188611c55565b6120d26040830187611c55565b6120df6060830186611c55565b81810360808301526120f18185611f87565b905061210060a0830184612094565b979650505050505050565b6000602082019050612120600083018461201d565b92915050565b60008060006060848603121561213f5761213e611b77565b5b600061214d86828701611bca565b935050602061215e86828701611c00565b925050604061216f86828701611c00565b9150509250925092565b600081519050919050565b600082825260208201905092915050565b6000819050602082019050919050565b6121ae81612082565b82525050565b60006121c083836121a5565b60208301905092915050565b6000602082019050919050565b60006121e482612179565b6121ee8185612184565b93506121f983612195565b8060005b8381101561222a57815161221188826121b4565b975061221c836121cc565b9250506001810190506121fd565b5085935050505092915050565b600060808201905081810360008301526122518187611d0c565b905081810360208301526122658186611d0c565b905081810360408301526122798185611d0c565b9050818103606083015261228d81846121d9565b905095945050505050565b6000602082840312156122ae576122ad611b77565b5b600082013567ffffffffffffffff8111156122cc576122cb611b7c565b5b6122d884828501611ea4565b91505092915050565b600060e0820190506122f6600083018a61201d565b81810360208301526123088189611f87565b90506123176040830188611c55565b6123246060830187611c55565b6123316080830186611c55565b81810360a08301526123438185611f87565b905061235260c0830184612094565b98975050505050505050565b600082825260208201905092915050565b7f4e6f206665657320746f20776974686472617700000000000000000000000000600082015250565b60006123a560138361235e565b91506123b08261236f565b602082019050919050565b600060208201905081810360008301526123d481612398565b9050919050565b600081905092915050565b50565b60006123f66000836123db565b9150612401826123e6565b600082019050919050565b6000612417826123e9565b9150819050919050565b7f5769746864726177616c206661696c6564000000000000000000000000000000600082015250565b600061245760118361235e565b915061246282612421565b602082019050919050565b600060208201905081810360008301526124868161244a565b9050919050565b7f4e6f7420796f75722067616d6500000000000000000000000000000000000000600082015250565b60006124c3600d8361235e565b91506124ce8261248d565b602082019050919050565b600060208201905081810360008301526124f2816124b6565b9050919050565b7f47616d65206e6f74206163746976650000000000000000000000000000000000600082015250565b600061252f600f8361235e565b915061253a826124f9565b602082019050919050565b6000602082019050818103600083015261255e81612522565b9050919050565b600060408201905061257a6000830185611c55565b6125876020830184611c55565b9392505050565b7f4e487b7100000000000000000000000000000000000000000000000000000000600052602260045260246000fd5b600060028204905060018216806125d557607f821691505b6020821081036125e8576125e761258e565b5b50919050565b7f496e76616c696420746f6b656e20616464726573730000000000000000000000600082015250565b600061262460158361235e565b915061262f826125ee565b602082019050919050565b6000602082019050818103600083015261265381612617565b9050919050565b60008151905061266981611be9565b92915050565b60006020828403121561268557612684611b77565b5b60006126938482850161265a565b91505092915050565b7f4e6f20746f6b656e7320746f2077697468647261770000000000000000000000600082015250565b60006126d260158361235e565b91506126dd8261269c565b602082019050919050565b60006020820190508181036000830152612701816126c5565b9050919050565b600060408201905061271d600083018561201d565b61272a6020830184611c55565b9392505050565b60008115159050919050565b61274681612731565b811461275157600080fd5b50565b6000815190506127638161273d565b92915050565b60006020828403121561277f5761277e611b77565b5b600061278d84828501612754565b91505092915050565b7f546f6b656e207472616e73666572206661696c65640000000000000000000000600082015250565b60006127cc60158361235e565b91506127d782612796565b602082019050919050565b600060208201905081810360008301526127fb816127bf565b9050919050565b7f496e73756666696369656e742067616d65206665650000000000000000000000600082015250565b600061283860158361235e565b915061284382612802565b602082019050919050565b600060208201905081810360008301526128678161282b565b9050919050565b7f4e487b7100000000000000000000000000000000000000000000000000000000600052601160045260246000fd5b60006128a882611bdf565b91507fffffffffffffffffffffffffffffffffffffffffffffffffffffffffffffffff82036128da576128d961286e565b5b600182019050919050565b600060208201905081810360008301526128ff8184611f87565b905092915050565b60008190508160005260206000209050919050565b60006020601f8301049050919050565b600082821b905092915050565b6000600883026129697fffffffffffffffffffffffffffffffffffffffffffffffffffffffffffffffff8261292c565b612973868361292c565b95508019841693508086168417925050509392505050565b6000819050919050565b60006129b06129ab6129a684611bdf565b61298b565b611bdf565b9050919050565b6000819050919050565b6129ca83612995565b6129de6129d6826129b7565b848454612939565b825550505050565b600090565b6129f36129e6565b6129fe8184846129c1565b505050565b5b81811015612a2257612a176000826129eb565b600181019050612a04565b5050565b601f821115612a6757612a3881612907565b612a418461291c565b81016020851015612a50578190505b612a64612a5c8561291c565b830182612a03565b50505b505050565b600082821c905092915050565b6000612a8a60001984600802612a6c565b1980831691505092915050565b6000612aa38383612a79565b9150826002028217905092915050565b612abc82611f41565b67ffffffffffffffff811115612ad557612ad4611da7565b5b612adf82546125bd565b612aea828285612a26565b600060209050601f831160018114612b1d5760008415612b0b578287015190505b612b158582612a97565b865550612b7d565b601f198416612b2b86612907565b60005b82811015612b5357848901518255600182019150602085019450602081019050612b2e565b86831015612b705784890151612b6c601f891682612a79565b8355505b6001600288020188555050505b505050505050565b6000612b9082611bdf565b9150612b9b83611bdf565b9250828203905081811115612bb357612bb261286e565b5b92915050565b7f4e487b7100000000000000000000000000000000000000000000000000000000600052603260045260246000fd5b7f526566756e64206661696c656400000000000000000000000000000000000000600082015250565b6000612c1e600d8361235e565b9150612c2982612be8565b602082019050919050565b60006020820190508181036000830152612c4d81612c11565b905091905056fea26469706673582212203901ead597a889f06f45381a8af3b0db7dd496563828b420d4c4a4fb4d985e7464736f6c634300081c0033",
  "linkReferences": {},
  "deployedLinkReferences": {}
}